{
  "contractName": "Democracy",
  "abi": [
    {
      "anonymous": false,
      "inputs": [
        {
          "indexed": true,
          "internalType": "address",
          "name": "owner",
          "type": "address"
        },
        {
          "indexed": true,
          "internalType": "address",
          "name": "spender",
          "type": "address"
        },
        {
          "indexed": false,
          "internalType": "uint256",
          "name": "value",
          "type": "uint256"
        }
      ],
      "name": "Approval",
      "type": "event"
    },
    {
      "anonymous": false,
      "inputs": [
        {
          "indexed": true,
          "internalType": "address",
          "name": "account",
          "type": "address"
        },
        {
          "indexed": false,
          "internalType": "bool",
          "name": "isExcluded",
          "type": "bool"
        }
      ],
      "name": "ExcludeFromFees",
      "type": "event"
    },
    {
      "anonymous": false,
      "inputs": [
        {
          "indexed": false,
          "internalType": "address[]",
          "name": "accounts",
          "type": "address[]"
        },
        {
          "indexed": false,
          "internalType": "bool",
          "name": "isExcluded",
          "type": "bool"
        }
      ],
      "name": "ExcludeMultipleAccountsFromFees",
      "type": "event"
    },
    {
      "anonymous": false,
      "inputs": [
        {
          "indexed": true,
          "internalType": "uint256",
          "name": "newValue",
          "type": "uint256"
        },
        {
          "indexed": true,
          "internalType": "uint256",
          "name": "oldValue",
          "type": "uint256"
        }
      ],
      "name": "GasForProcessingUpdated",
      "type": "event"
    },
    {
      "anonymous": false,
      "inputs": [
        {
          "indexed": true,
          "internalType": "address",
          "name": "newLiquidityWallet",
          "type": "address"
        },
        {
          "indexed": true,
          "internalType": "address",
          "name": "oldLiquidityWallet",
          "type": "address"
        }
      ],
      "name": "LiquidityWalletUpdated",
      "type": "event"
    },
    {
      "anonymous": false,
      "inputs": [
        {
          "indexed": true,
          "internalType": "address",
          "name": "previousOwner",
          "type": "address"
        },
        {
          "indexed": true,
          "internalType": "address",
          "name": "newOwner",
          "type": "address"
        }
      ],
      "name": "OwnershipTransferred",
      "type": "event"
    },
    {
      "anonymous": false,
      "inputs": [
        {
          "indexed": false,
          "internalType": "uint256",
          "name": "iterations",
          "type": "uint256"
        },
        {
          "indexed": false,
          "internalType": "uint256",
          "name": "claims",
          "type": "uint256"
        },
        {
          "indexed": false,
          "internalType": "uint256",
          "name": "lastProcessedIndex",
          "type": "uint256"
        },
        {
          "indexed": true,
          "internalType": "bool",
          "name": "automatic",
          "type": "bool"
        },
        {
          "indexed": false,
          "internalType": "uint256",
          "name": "gas",
          "type": "uint256"
        },
        {
          "indexed": true,
          "internalType": "address",
          "name": "processor",
          "type": "address"
        }
      ],
      "name": "ProcessedDividendTracker",
      "type": "event"
    },
    {
      "anonymous": false,
      "inputs": [
        {
          "indexed": false,
          "internalType": "uint256",
          "name": "tokensSwapped",
          "type": "uint256"
        },
        {
          "indexed": false,
          "internalType": "uint256",
          "name": "amount",
          "type": "uint256"
        }
      ],
      "name": "SendDividends",
      "type": "event"
    },
    {
      "anonymous": false,
      "inputs": [
        {
          "indexed": true,
          "internalType": "address",
          "name": "pair",
          "type": "address"
        },
        {
          "indexed": true,
          "internalType": "bool",
          "name": "value",
          "type": "bool"
        }
      ],
      "name": "SetAutomatedMarketMakerPair",
      "type": "event"
    },
    {
      "anonymous": false,
      "inputs": [
        {
          "indexed": false,
          "internalType": "uint256",
          "name": "tokensSwapped",
          "type": "uint256"
        },
        {
          "indexed": false,
          "internalType": "uint256",
          "name": "ethReceived",
          "type": "uint256"
        },
        {
          "indexed": false,
          "internalType": "uint256",
          "name": "tokensIntoLiqudity",
          "type": "uint256"
        }
      ],
      "name": "SwapAndLiquify",
      "type": "event"
    },
    {
      "anonymous": false,
      "inputs": [
        {
          "indexed": true,
          "internalType": "address",
          "name": "from",
          "type": "address"
        },
        {
          "indexed": true,
          "internalType": "address",
          "name": "to",
          "type": "address"
        },
        {
          "indexed": false,
          "internalType": "uint256",
          "name": "value",
          "type": "uint256"
        }
      ],
      "name": "Transfer",
      "type": "event"
    },
    {
      "anonymous": false,
      "inputs": [
        {
          "indexed": true,
          "internalType": "address",
          "name": "newAddress",
          "type": "address"
        },
        {
          "indexed": true,
          "internalType": "address",
          "name": "oldAddress",
          "type": "address"
        }
      ],
      "name": "UpdateDividendTracker",
      "type": "event"
    },
    {
      "anonymous": false,
      "inputs": [
        {
          "indexed": true,
          "internalType": "address",
          "name": "newAddress",
          "type": "address"
        },
        {
          "indexed": true,
          "internalType": "address",
          "name": "oldAddress",
          "type": "address"
        }
      ],
      "name": "UpdatePancakeswapV2Router",
      "type": "event"
    },
    {
      "anonymous": false,
      "inputs": [
        {
          "indexed": false,
          "internalType": "uint256",
          "name": "timestamp",
          "type": "uint256"
        }
      ],
      "name": "UpdateTradingEnabledTimestamp",
      "type": "event"
    },
    {
      "anonymous": false,
      "inputs": [
        {
          "indexed": false,
          "internalType": "address",
          "name": "account",
          "type": "address"
        },
        {
          "indexed": false,
          "internalType": "bool",
          "name": "state",
          "type": "bool"
        }
      ],
      "name": "UpdatedCanTransferBeforeTrading",
      "type": "event"
    },
    {
      "inputs": [],
      "name": "BNBRewardsFee",
      "outputs": [
        {
          "internalType": "uint256",
          "name": "",
          "type": "uint256"
        }
      ],
      "stateMutability": "view",
      "type": "function"
    },
    {
      "inputs": [
        {
          "internalType": "address",
          "name": "owner",
          "type": "address"
        },
        {
          "internalType": "address",
          "name": "spender",
          "type": "address"
        }
      ],
      "name": "allowance",
      "outputs": [
        {
          "internalType": "uint256",
          "name": "",
          "type": "uint256"
        }
      ],
      "stateMutability": "view",
      "type": "function"
    },
    {
      "inputs": [
        {
          "internalType": "address",
          "name": "spender",
          "type": "address"
        },
        {
          "internalType": "uint256",
          "name": "amount",
          "type": "uint256"
        }
      ],
      "name": "approve",
      "outputs": [
        {
          "internalType": "bool",
          "name": "",
          "type": "bool"
        }
      ],
      "stateMutability": "nonpayable",
      "type": "function"
    },
    {
      "inputs": [
        {
          "internalType": "address",
          "name": "",
          "type": "address"
        }
      ],
      "name": "automatedMarketMakerPairs",
      "outputs": [
        {
          "internalType": "bool",
          "name": "",
          "type": "bool"
        }
      ],
      "stateMutability": "view",
      "type": "function"
    },
    {
      "inputs": [
        {
          "internalType": "address",
          "name": "account",
          "type": "address"
        }
      ],
      "name": "balanceOf",
      "outputs": [
        {
          "internalType": "uint256",
          "name": "",
          "type": "uint256"
        }
      ],
      "stateMutability": "view",
      "type": "function"
    },
    {
      "inputs": [],
      "name": "burnAddress",
      "outputs": [
        {
          "internalType": "address",
          "name": "",
          "type": "address"
        }
      ],
      "stateMutability": "view",
      "type": "function"
    },
    {
      "inputs": [],
      "name": "buyBurnFee",
      "outputs": [
        {
          "internalType": "uint256",
          "name": "",
          "type": "uint256"
        }
      ],
      "stateMutability": "view",
      "type": "function"
    },
    {
      "inputs": [],
      "name": "buyTotalFees",
      "outputs": [
        {
          "internalType": "uint256",
          "name": "",
          "type": "uint256"
        }
      ],
      "stateMutability": "view",
      "type": "function"
    },
    {
      "inputs": [],
      "name": "claim",
      "outputs": [],
      "stateMutability": "nonpayable",
      "type": "function"
    },
    {
      "inputs": [],
      "name": "contractOfficialWallet",
      "outputs": [
        {
          "internalType": "address",
          "name": "",
          "type": "address"
        }
      ],
      "stateMutability": "view",
      "type": "function"
    },
    {
      "inputs": [],
      "name": "decimals",
      "outputs": [
        {
          "internalType": "uint8",
          "name": "",
          "type": "uint8"
        }
      ],
      "stateMutability": "view",
      "type": "function"
    },
    {
      "inputs": [
        {
          "internalType": "address",
          "name": "spender",
          "type": "address"
        },
        {
          "internalType": "uint256",
          "name": "subtractedValue",
          "type": "uint256"
        }
      ],
      "name": "decreaseAllowance",
      "outputs": [
        {
          "internalType": "bool",
          "name": "",
          "type": "bool"
        }
      ],
      "stateMutability": "nonpayable",
      "type": "function"
    },
    {
      "inputs": [
        {
          "internalType": "address",
          "name": "account",
          "type": "address"
        }
      ],
      "name": "dividendTokenBalanceOf",
      "outputs": [
        {
          "internalType": "uint256",
          "name": "",
          "type": "uint256"
        }
      ],
      "stateMutability": "view",
      "type": "function"
    },
    {
      "inputs": [],
      "name": "dividendTracker",
      "outputs": [
        {
          "internalType": "contract DemoTokenDividendTracker",
          "name": "",
          "type": "address"
        }
      ],
      "stateMutability": "view",
      "type": "function"
    },
    {
      "inputs": [
        {
          "internalType": "address",
          "name": "account",
          "type": "address"
        },
        {
          "internalType": "bool",
          "name": "excluded",
          "type": "bool"
        }
      ],
      "name": "excludeFromFees",
      "outputs": [],
      "stateMutability": "nonpayable",
      "type": "function"
    },
    {
      "inputs": [],
      "name": "gasForProcessing",
      "outputs": [
        {
          "internalType": "uint256",
          "name": "",
          "type": "uint256"
        }
      ],
      "stateMutability": "view",
      "type": "function"
    },
    {
      "inputs": [
        {
          "internalType": "address",
          "name": "account",
          "type": "address"
        }
      ],
      "name": "getAccountDividendsInfo",
      "outputs": [
        {
          "internalType": "address",
          "name": "",
          "type": "address"
        },
        {
          "internalType": "int256",
          "name": "",
          "type": "int256"
        },
        {
          "internalType": "int256",
          "name": "",
          "type": "int256"
        },
        {
          "internalType": "uint256",
          "name": "",
          "type": "uint256"
        },
        {
          "internalType": "uint256",
          "name": "",
          "type": "uint256"
        },
        {
          "internalType": "uint256",
          "name": "",
          "type": "uint256"
        },
        {
          "internalType": "uint256",
          "name": "",
          "type": "uint256"
        },
        {
          "internalType": "uint256",
          "name": "",
          "type": "uint256"
        }
      ],
      "stateMutability": "view",
      "type": "function"
    },
    {
      "inputs": [
        {
          "internalType": "uint256",
          "name": "index",
          "type": "uint256"
        }
      ],
      "name": "getAccountDividendsInfoAtIndex",
      "outputs": [
        {
          "internalType": "address",
          "name": "",
          "type": "address"
        },
        {
          "internalType": "int256",
          "name": "",
          "type": "int256"
        },
        {
          "internalType": "int256",
          "name": "",
          "type": "int256"
        },
        {
          "internalType": "uint256",
          "name": "",
          "type": "uint256"
        },
        {
          "internalType": "uint256",
          "name": "",
          "type": "uint256"
        },
        {
          "internalType": "uint256",
          "name": "",
          "type": "uint256"
        },
        {
          "internalType": "uint256",
          "name": "",
          "type": "uint256"
        },
        {
          "internalType": "uint256",
          "name": "",
          "type": "uint256"
        }
      ],
      "stateMutability": "view",
      "type": "function"
    },
    {
      "inputs": [],
      "name": "getLastProcessedIndex",
      "outputs": [
        {
          "internalType": "uint256",
          "name": "",
          "type": "uint256"
        }
      ],
      "stateMutability": "view",
      "type": "function"
    },
    {
      "inputs": [],
      "name": "getNumberOfDividendTokenHolders",
      "outputs": [
        {
          "internalType": "uint256",
          "name": "",
          "type": "uint256"
        }
      ],
      "stateMutability": "view",
      "type": "function"
    },
    {
      "inputs": [],
      "name": "getTotalDividendsDistributed",
      "outputs": [
        {
          "internalType": "uint256",
          "name": "",
          "type": "uint256"
        }
      ],
      "stateMutability": "view",
      "type": "function"
    },
    {
      "inputs": [
        {
          "internalType": "address",
          "name": "spender",
          "type": "address"
        },
        {
          "internalType": "uint256",
          "name": "addedValue",
          "type": "uint256"
        }
      ],
      "name": "increaseAllowance",
      "outputs": [
        {
          "internalType": "bool",
          "name": "",
          "type": "bool"
        }
      ],
      "stateMutability": "nonpayable",
      "type": "function"
    },
    {
      "inputs": [],
      "name": "liquidityFee",
      "outputs": [
        {
          "internalType": "uint256",
          "name": "",
          "type": "uint256"
        }
      ],
      "stateMutability": "view",
      "type": "function"
    },
    {
      "inputs": [],
      "name": "liquidityWallet",
      "outputs": [
        {
          "internalType": "address",
          "name": "",
          "type": "address"
        }
      ],
      "stateMutability": "view",
      "type": "function"
    },
    {
      "inputs": [],
      "name": "marketingFee",
      "outputs": [
        {
          "internalType": "uint256",
          "name": "",
          "type": "uint256"
        }
      ],
      "stateMutability": "view",
      "type": "function"
    },
    {
      "inputs": [],
      "name": "marketingWallet",
      "outputs": [
        {
          "internalType": "address",
          "name": "",
          "type": "address"
        }
      ],
      "stateMutability": "view",
      "type": "function"
    },
    {
      "inputs": [],
      "name": "maxSellTransactionAmount",
      "outputs": [
        {
          "internalType": "uint256",
          "name": "",
          "type": "uint256"
        }
      ],
      "stateMutability": "view",
      "type": "function"
    },
    {
      "inputs": [],
      "name": "name",
      "outputs": [
        {
          "internalType": "string",
          "name": "",
          "type": "string"
        }
      ],
      "stateMutability": "view",
      "type": "function"
    },
    {
      "inputs": [],
      "name": "pancakeswapV2Pair",
      "outputs": [
        {
          "internalType": "address",
          "name": "",
          "type": "address"
        }
      ],
      "stateMutability": "view",
      "type": "function"
    },
    {
      "inputs": [],
      "name": "pancakeswapV2Router",
      "outputs": [
        {
          "internalType": "contract IPancakeswapV2Router02",
          "name": "",
          "type": "address"
        }
      ],
      "stateMutability": "view",
      "type": "function"
    },
    {
      "inputs": [],
      "name": "preSaleWallet",
      "outputs": [
        {
          "internalType": "address",
          "name": "",
          "type": "address"
        }
      ],
      "stateMutability": "view",
      "type": "function"
    },
    {
      "inputs": [],
      "name": "president",
      "outputs": [
        {
          "internalType": "address",
          "name": "",
          "type": "address"
        }
      ],
      "stateMutability": "view",
      "type": "function"
    },
    {
      "inputs": [],
      "name": "prizeWallet",
      "outputs": [
        {
          "internalType": "address",
          "name": "",
          "type": "address"
        }
      ],
      "stateMutability": "view",
      "type": "function"
    },
    {
      "inputs": [
        {
          "internalType": "uint256",
          "name": "gas",
          "type": "uint256"
        }
      ],
      "name": "processDividendTracker",
      "outputs": [],
      "stateMutability": "nonpayable",
      "type": "function"
    },
    {
      "inputs": [],
      "name": "regulator",
      "outputs": [
        {
          "internalType": "address",
          "name": "",
          "type": "address"
        }
      ],
      "stateMutability": "view",
      "type": "function"
    },
    {
      "inputs": [],
      "name": "renounceOwnership",
      "outputs": [],
      "stateMutability": "nonpayable",
      "type": "function"
    },
    {
      "inputs": [],
      "name": "sellBurnFee",
      "outputs": [
        {
          "internalType": "uint256",
          "name": "",
          "type": "uint256"
        }
      ],
      "stateMutability": "view",
      "type": "function"
    },
    {
      "inputs": [],
      "name": "sellTotalFees",
      "outputs": [
        {
          "internalType": "uint256",
          "name": "",
          "type": "uint256"
        }
      ],
      "stateMutability": "view",
      "type": "function"
    },
    {
      "inputs": [
        {
          "internalType": "address",
          "name": "pair",
          "type": "address"
        },
        {
          "internalType": "bool",
          "name": "value",
          "type": "bool"
        }
      ],
      "name": "setAutomatedMarketMakerPair",
      "outputs": [],
      "stateMutability": "nonpayable",
      "type": "function"
    },
    {
      "inputs": [
        {
          "internalType": "uint256",
          "name": "txnAmount",
          "type": "uint256"
        }
      ],
      "name": "setMaxtxn",
      "outputs": [],
      "stateMutability": "nonpayable",
      "type": "function"
    },
    {
      "inputs": [
        {
          "internalType": "uint256",
          "name": "swapAmount",
          "type": "uint256"
        }
      ],
      "name": "setSwapAt",
      "outputs": [],
      "stateMutability": "nonpayable",
      "type": "function"
    },
    {
      "inputs": [],
      "name": "swapTokensAtAmount",
      "outputs": [
        {
          "internalType": "uint256",
          "name": "",
          "type": "uint256"
        }
      ],
      "stateMutability": "view",
      "type": "function"
    },
    {
      "inputs": [],
      "name": "symbol",
      "outputs": [
        {
          "internalType": "string",
          "name": "",
          "type": "string"
        }
      ],
      "stateMutability": "view",
      "type": "function"
    },
    {
      "inputs": [],
      "name": "teamWallet",
      "outputs": [
        {
          "internalType": "address",
          "name": "",
          "type": "address"
        }
      ],
      "stateMutability": "view",
      "type": "function"
    },
    {
      "inputs": [],
      "name": "totalSupply",
      "outputs": [
        {
          "internalType": "uint256",
          "name": "",
          "type": "uint256"
        }
      ],
      "stateMutability": "view",
      "type": "function"
    },
    {
      "inputs": [
        {
          "internalType": "address",
          "name": "recipient",
          "type": "address"
        },
        {
          "internalType": "uint256",
          "name": "amount",
          "type": "uint256"
        }
      ],
      "name": "transfer",
      "outputs": [
        {
          "internalType": "bool",
          "name": "",
          "type": "bool"
        }
      ],
      "stateMutability": "nonpayable",
      "type": "function"
    },
    {
      "inputs": [
        {
          "internalType": "address",
          "name": "sender",
          "type": "address"
        },
        {
          "internalType": "address",
          "name": "recipient",
          "type": "address"
        },
        {
          "internalType": "uint256",
          "name": "amount",
          "type": "uint256"
        }
      ],
      "name": "transferFrom",
      "outputs": [
        {
          "internalType": "bool",
          "name": "",
          "type": "bool"
        }
      ],
      "stateMutability": "nonpayable",
      "type": "function"
    },
    {
      "inputs": [
        {
          "internalType": "address",
          "name": "newRegulator",
          "type": "address"
        }
      ],
      "name": "transferOwnership",
      "outputs": [],
      "stateMutability": "nonpayable",
      "type": "function"
    },
    {
      "inputs": [
        {
          "internalType": "uint256",
          "name": "claimWait",
          "type": "uint256"
        }
      ],
      "name": "updateClaimWait",
      "outputs": [],
      "stateMutability": "nonpayable",
      "type": "function"
    },
    {
      "inputs": [
        {
          "internalType": "uint256",
          "name": "newValue",
          "type": "uint256"
        }
      ],
      "name": "updateGasForProcessing",
      "outputs": [],
      "stateMutability": "nonpayable",
      "type": "function"
    },
    {
      "stateMutability": "payable",
      "type": "receive"
    }
  ],
  "bytecode": "0x6101606040527345debc85a2e8f30f1d324c1c9530aad644d43cdc600960006101000a81548173ffffffffffffffffffffffffffffffffffffffff021916908373ffffffffffffffffffffffffffffffffffffffff16021790555073364eeb68afa5e41e9a9a28fdda137c0431084991600a60006101000a81548173ffffffffffffffffffffffffffffffffffffffff021916908373ffffffffffffffffffffffffffffffffffffffff16021790555073a0692ded8133f3f4c999b6fb1a40c3b2fd3bcdd8600b60006101000a81548173ffffffffffffffffffffffffffffffffffffffff021916908373ffffffffffffffffffffffffffffffffffffffff1602179055507306bcafcd467ec4cc2b534dc66b870984f3230474600c60006101000a81548173ffffffffffffffffffffffffffffffffffffffff021916908373ffffffffffffffffffffffffffffffffffffffff1602179055507367e440f86b979a27ebed458cbbd479217072abf1600d60006101000a81548173ffffffffffffffffffffffffffffffffffffffff021916908373ffffffffffffffffffffffffffffffffffffffff16021790555061dead600e60006101000a81548173ffffffffffffffffffffffffffffffffffffffff021916908373ffffffffffffffffffffffffffffffffffffffff160217905550731b6153b4459e308f026f7d3448d21a1778750601601060006101000a81548173ffffffffffffffffffffffffffffffffffffffff021916908373ffffffffffffffffffffffffffffffffffffffff1602179055506802b5e3af16b1880000601155670de0b6b3a7640000601255620493e06013553480156200027357600080fd5b506040518060400160405280600981526020017f44656d6f637261637900000000000000000000000000000000000000000000008152506040518060400160405280600481526020017f44454d4f0000000000000000000000000000000000000000000000000000000081525060098260039080519060200190620002fa9291906200158c565b508160049080519060200190620003139291906200158c565b5080600560006101000a81548160ff021916908360ff160217905550505050620003526200034662000f2860201b60201c565b62000f3060201b60201c565b6200036262000f2860201b60201c565b600660006101000a81548173ffffffffffffffffffffffffffffffffffffffff021916908373ffffffffffffffffffffffffffffffffffffffff16021790555060006004905060006004905060006005905060006007905060006002905084608081815250508360a081815250508260c081815250508160e08181525050806101008181525050620004358162000421856200040d888a62000ff660201b620020d91790919060201c565b62000ff660201b620020d91790919060201c565b62000ff660201b620020d91790919060201c565b61012081815250506200048981620004758562000461868a62000ff660201b620020d91790919060201c565b62000ff660201b620020d91790919060201c565b62000ff660201b620020d91790919060201c565b61014081815250506040516200049f906200161d565b604051809103906000f080158015620004bc573d6000803e3d6000fd5b50600f60006101000a81548173ffffffffffffffffffffffffffffffffffffffff021916908373ffffffffffffffffffffffffffffffffffffffff1602179055506000739ac64cc6e4415144c455bd8e4837fea55603e5c3905060008173ffffffffffffffffffffffffffffffffffffffff1663c45a01556040518163ffffffff1660e01b8152600401602060405180830381865afa15801562000564573d6000803e3d6000fd5b505050506040513d601f19601f820116820180604052508101906200058a9190620016b4565b73ffffffffffffffffffffffffffffffffffffffff1663c9c65396308473ffffffffffffffffffffffffffffffffffffffff1663ad5c46486040518163ffffffff1660e01b8152600401602060405180830381865afa158015620005f2573d6000803e3d6000fd5b505050506040513d601f19601f82011682018060405250810190620006189190620016b4565b6040518363ffffffff1660e01b815260040162000637929190620016f7565b6020604051808303816000875af115801562000657573d6000803e3d6000fd5b505050506040513d601f19601f820116820180604052508101906200067d9190620016b4565b905081600760006101000a81548173ffffffffffffffffffffffffffffffffffffffff021916908373ffffffffffffffffffffffffffffffffffffffff16021790555080600860006101000a81548173ffffffffffffffffffffffffffffffffffffffff021916908373ffffffffffffffffffffffffffffffffffffffff160217905550620007148160016200100e60201b60201c565b600f60009054906101000a900473ffffffffffffffffffffffffffffffffffffffff1673ffffffffffffffffffffffffffffffffffffffff166331e79db0600f60009054906101000a900473ffffffffffffffffffffffffffffffffffffffff166040518263ffffffff1660e01b815260040162000793919062001724565b600060405180830381600087803b158015620007ae57600080fd5b505af1158015620007c3573d6000803e3d6000fd5b50505050600f60009054906101000a900473ffffffffffffffffffffffffffffffffffffffff1673ffffffffffffffffffffffffffffffffffffffff166331e79db0306040518263ffffffff1660e01b815260040162000824919062001724565b600060405180830381600087803b1580156200083f57600080fd5b505af115801562000854573d6000803e3d6000fd5b50505050600f60009054906101000a900473ffffffffffffffffffffffffffffffffffffffff1673ffffffffffffffffffffffffffffffffffffffff166331e79db0600e60009054906101000a900473ffffffffffffffffffffffffffffffffffffffff166040518263ffffffff1660e01b8152600401620008d7919062001724565b600060405180830381600087803b158015620008f257600080fd5b505af115801562000907573d6000803e3d6000fd5b50505050600f60009054906101000a900473ffffffffffffffffffffffffffffffffffffffff1673ffffffffffffffffffffffffffffffffffffffff166331e79db0600a60009054906101000a900473ffffffffffffffffffffffffffffffffffffffff166040518263ffffffff1660e01b81526004016200098a919062001724565b600060405180830381600087803b158015620009a557600080fd5b505af1158015620009ba573d6000803e3d6000fd5b50505050600f60009054906101000a900473ffffffffffffffffffffffffffffffffffffffff1673ffffffffffffffffffffffffffffffffffffffff166331e79db0600b60009054906101000a900473ffffffffffffffffffffffffffffffffffffffff166040518263ffffffff1660e01b815260040162000a3d919062001724565b600060405180830381600087803b15801562000a5857600080fd5b505af115801562000a6d573d6000803e3d6000fd5b50505050600f60009054906101000a900473ffffffffffffffffffffffffffffffffffffffff1673ffffffffffffffffffffffffffffffffffffffff166331e79db0600960009054906101000a900473ffffffffffffffffffffffffffffffffffffffff166040518263ffffffff1660e01b815260040162000af0919062001724565b600060405180830381600087803b15801562000b0b57600080fd5b505af115801562000b20573d6000803e3d6000fd5b50505050600f60009054906101000a900473ffffffffffffffffffffffffffffffffffffffff1673ffffffffffffffffffffffffffffffffffffffff166331e79db0600c60009054906101000a900473ffffffffffffffffffffffffffffffffffffffff166040518263ffffffff1660e01b815260040162000ba3919062001724565b600060405180830381600087803b15801562000bbe57600080fd5b505af115801562000bd3573d6000803e3d6000fd5b50505050600f60009054906101000a900473ffffffffffffffffffffffffffffffffffffffff1673ffffffffffffffffffffffffffffffffffffffff166331e79db0836040518263ffffffff1660e01b815260040162000c34919062001724565b600060405180830381600087803b15801562000c4f57600080fd5b505af115801562000c64573d6000803e3d6000fd5b5050505062000c9d600960009054906101000a900473ffffffffffffffffffffffffffffffffffffffff166001620011de60201b60201c565b62000cd2600b60009054906101000a900473ffffffffffffffffffffffffffffffffffffffff166001620011de60201b60201c565b62000d07600c60009054906101000a900473ffffffffffffffffffffffffffffffffffffffff166001620011de60201b60201c565b62000d3c600a60009054906101000a900473ffffffffffffffffffffffffffffffffffffffff166001620011de60201b60201c565b62000d4f306001620011de60201b60201c565b62000d84601060009054906101000a900473ffffffffffffffffffffffffffffffffffffffff166001620011de60201b60201c565b62000dc3601060009054906101000a900473ffffffffffffffffffffffffffffffffffffffff166a115fa96fbaa663a7820000620013ae60201b60201c565b62000e02600e60009054906101000a900473ffffffffffffffffffffffffffffffffffffffff166a31a76ae7c50fc3b95c8000620013ae60201b60201c565b62000e41600960009054906101000a900473ffffffffffffffffffffffffffffffffffffffff166a1a0f7e2797f9957b430000620013ae60201b60201c565b62000e80600b60009054906101000a900473ffffffffffffffffffffffffffffffffffffffff166a115fa96fbaa663a7820000620013ae60201b60201c565b62000ebf600c60009054906101000a900473ffffffffffffffffffffffffffffffffffffffff166a115fa96fbaa663a7820000620013ae60201b60201c565b62000efe600a60009054906101000a900473ffffffffffffffffffffffffffffffffffffffff166a22bf52df754cc74f040000620013ae60201b60201c565b62000f1b306ab8e4047c92b67d9bfe8000620013ae60201b60201c565b5050505050505062001ac9565b600033905090565b6000600560019054906101000a900473ffffffffffffffffffffffffffffffffffffffff16905081600560016101000a81548173ffffffffffffffffffffffffffffffffffffffff021916908373ffffffffffffffffffffffffffffffffffffffff1602179055508173ffffffffffffffffffffffffffffffffffffffff168173ffffffffffffffffffffffffffffffffffffffff167f8be0079c531659141344cd1fd0a4f28419497f9722a3daafe3b4186f6b6457e060405160405180910390a35050565b600081836200100691906200177a565b905092915050565b801515601560008473ffffffffffffffffffffffffffffffffffffffff1673ffffffffffffffffffffffffffffffffffffffff16815260200190815260200160002060009054906101000a900460ff1615151415620010a4576040517f08c379a00000000000000000000000000000000000000000000000000000000081526004016200109b906200185e565b60405180910390fd5b80601560008473ffffffffffffffffffffffffffffffffffffffff1673ffffffffffffffffffffffffffffffffffffffff16815260200190815260200160002060006101000a81548160ff02191690831515021790555080156200119457600f60009054906101000a900473ffffffffffffffffffffffffffffffffffffffff1673ffffffffffffffffffffffffffffffffffffffff166331e79db0836040518263ffffffff1660e01b81526004016200115f919062001724565b600060405180830381600087803b1580156200117a57600080fd5b505af11580156200118f573d6000803e3d6000fd5b505050505b8015158273ffffffffffffffffffffffffffffffffffffffff167fffa9187bf1f18bf477bd0ea1bcbb64e93b6a98132473929edfce215cd9b16fab60405160405180910390a35050565b620011ee62000f2860201b60201c565b73ffffffffffffffffffffffffffffffffffffffff16620012146200155d60201b60201c565b73ffffffffffffffffffffffffffffffffffffffff16146200126d576040517f08c379a00000000000000000000000000000000000000000000000000000000081526004016200126490620018d0565b60405180910390fd5b801515601460008473ffffffffffffffffffffffffffffffffffffffff1673ffffffffffffffffffffffffffffffffffffffff16815260200190815260200160002060009054906101000a900460ff161515141562001303576040517f08c379a0000000000000000000000000000000000000000000000000000000008152600401620012fa9062001968565b60405180910390fd5b80601460008473ffffffffffffffffffffffffffffffffffffffff1673ffffffffffffffffffffffffffffffffffffffff16815260200190815260200160002060006101000a81548160ff0219169083151502179055508173ffffffffffffffffffffffffffffffffffffffff167f9d8f7706ea1113d1a167b526eca956215946dd36cc7df39eb16180222d8b5df782604051620013a29190620019a7565b60405180910390a25050565b600073ffffffffffffffffffffffffffffffffffffffff168273ffffffffffffffffffffffffffffffffffffffff16141562001421576040517f08c379a0000000000000000000000000000000000000000000000000000000008152600401620014189062001a14565b60405180910390fd5b62001435600083836200158760201b60201c565b620014518160025462000ff660201b620020d91790919060201c565b600281905550620014af816000808573ffffffffffffffffffffffffffffffffffffffff1673ffffffffffffffffffffffffffffffffffffffff1681526020019081526020016000205462000ff660201b620020d91790919060201c565b6000808473ffffffffffffffffffffffffffffffffffffffff1673ffffffffffffffffffffffffffffffffffffffff168152602001908152602001600020819055508173ffffffffffffffffffffffffffffffffffffffff16600073ffffffffffffffffffffffffffffffffffffffff167fddf252ad1be2c89b69c2b068fc378daa952ba7f163c4a11628f55a4df523b3ef8360405162001551919062001a47565b60405180910390a35050565b6000600560019054906101000a900473ffffffffffffffffffffffffffffffffffffffff16905090565b505050565b8280546200159a9062001a93565b90600052602060002090601f016020900481019282620015be57600085556200160a565b82601f10620015d957805160ff19168380011785556200160a565b828001600101855582156200160a579182015b8281111562001609578251825591602001919060010190620015ec565b5b5090506200161991906200162b565b5090565b613e93806200677583390190565b5b80821115620016465760008160009055506001016200162c565b5090565b600080fd5b600073ffffffffffffffffffffffffffffffffffffffff82169050919050565b60006200167c826200164f565b9050919050565b6200168e816200166f565b81146200169a57600080fd5b50565b600081519050620016ae8162001683565b92915050565b600060208284031215620016cd57620016cc6200164a565b5b6000620016dd848285016200169d565b91505092915050565b620016f1816200166f565b82525050565b60006040820190506200170e6000830185620016e6565b6200171d6020830184620016e6565b9392505050565b60006020820190506200173b6000830184620016e6565b92915050565b6000819050919050565b7f4e487b7100000000000000000000000000000000000000000000000000000000600052601160045260246000fd5b6000620017878262001741565b9150620017948362001741565b9250827fffffffffffffffffffffffffffffffffffffffffffffffffffffffffffffffff03821115620017cc57620017cb6200174b565b5b828201905092915050565b600082825260208201905092915050565b7f44656d6f3a204175746f6d61746564206d61726b6574206d616b65722070616960008201527f7220697320616c72656164792073657420746f20746861742076616c75650000602082015250565b600062001846603e83620017d7565b91506200185382620017e8565b604082019050919050565b60006020820190508181036000830152620018798162001837565b9050919050565b7f4f776e61626c653a2063616c6c6572206973206e6f7420746865206f776e6572600082015250565b6000620018b8602083620017d7565b9150620018c58262001880565b602082019050919050565b60006020820190508181036000830152620018eb81620018a9565b9050919050565b7f44656d6f3a204163636f756e7420697320616c7265616479207468652076616c60008201527f7565206f6620276578636c756465642700000000000000000000000000000000602082015250565b600062001950603083620017d7565b91506200195d82620018f2565b604082019050919050565b60006020820190508181036000830152620019838162001941565b9050919050565b60008115159050919050565b620019a1816200198a565b82525050565b6000602082019050620019be600083018462001996565b92915050565b7f42455032303a206d696e7420746f20746865207a65726f206164647265737300600082015250565b6000620019fc601f83620017d7565b915062001a0982620019c4565b602082019050919050565b6000602082019050818103600083015262001a2f81620019ed565b9050919050565b62001a418162001741565b82525050565b600060208201905062001a5e600083018462001a36565b92915050565b7f4e487b7100000000000000000000000000000000000000000000000000000000600052602260045260246000fd5b6000600282049050600182168062001aac57607f821691505b6020821081141562001ac35762001ac262001a64565b5b50919050565b60805160a05160c05160e051610100516101205161014051614c1962001b5c600039600061122301526000611bd00152600081816112470152612ae401526000818161198a0152612a55015260008181611696015281816126f601528181612730015261289a015260008181611cd10152612971015260008181611b86015281816126d501526128790152614c196000f3fe6080604052600436106102cd5760003560e01c806375f0a87411610175578063d01f5816116100dc578063e5dffed311610095578063e98030c71161006f578063e98030c714610b1c578063f27fd25414610b45578063f2fde38b14610b89578063fd886b4214610bb2576102d4565b8063e5dffed314610a9b578063e71dc3f514610ac6578063e7841ec014610af1576102d4565b8063d01f581614610987578063d4698016146109b2578063d85ba063146109dd578063dd62ed3e14610a08578063dd8fee1414610a45578063e2f4560514610a70576102d4565b8063a457c2d71161012e578063a457c2d714610838578063a9059cbb14610875578063ad56c13c146108b2578063adb873bd146108f6578063b62496f514610921578063c02466681461095e576102d4565b806375f0a8741461073a578063871c128d1461076557806395d89b411461078e57806398118cb4146107b95780639a7a23d6146107e45780639c1b8af51461080d576102d4565b80634fe92618116102345780636a486a8e116101ed578063700bb191116101c7578063700bb1911461069257806370a08231146106bb57806370d5ae05146106f8578063715018a614610723576102d4565b80636a486a8e146106115780636b67c4df1461063c5780636cc6cbfb14610667576102d4565b80634fe92618146104ff578063528928841461052a57806359927044146105555780635c04ac941461058057806364b0f653146105a95780636843cd84146105d4576102d4565b80632c1f5216116102865780632c1f5216146103ff57806330bb4cff1461042a578063313ce56714610455578063324a13761461048057806339509351146104ab5780634e71d92d146104e8576102d4565b806302259e9e146102d957806306fdde0314610304578063095ea7b31461032f57806318160ddd1461036c5780631fc75e411461039757806323b872dd146103c2576102d4565b366102d457005b600080fd5b3480156102e557600080fd5b506102ee610bdb565b6040516102fb9190613865565b60405180910390f35b34801561031057600080fd5b50610319610be1565b6040516103269190613919565b60405180910390f35b34801561033b57600080fd5b50610356600480360381019061035191906139ca565b610c73565b6040516103639190613a25565b60405180910390f35b34801561037857600080fd5b50610381610c91565b60405161038e9190613865565b60405180910390f35b3480156103a357600080fd5b506103ac610c9b565b6040516103b99190613a4f565b60405180910390f35b3480156103ce57600080fd5b506103e960048036038101906103e49190613a6a565b610cc1565b6040516103f69190613a25565b60405180910390f35b34801561040b57600080fd5b50610414610d9a565b6040516104219190613b1c565b60405180910390f35b34801561043657600080fd5b5061043f610dc0565b60405161044c9190613865565b60405180910390f35b34801561046157600080fd5b5061046a610e58565b6040516104779190613b53565b60405180910390f35b34801561048c57600080fd5b50610495610e6f565b6040516104a29190613a4f565b60405180910390f35b3480156104b757600080fd5b506104d260048036038101906104cd91906139ca565b610e95565b6040516104df9190613a25565b60405180910390f35b3480156104f457600080fd5b506104fd610f48565b005b34801561050b57600080fd5b50610514610fec565b6040516105219190613a4f565b60405180910390f35b34801561053657600080fd5b5061053f611012565b60405161054c9190613a4f565b60405180910390f35b34801561056157600080fd5b5061056a611038565b6040516105779190613a4f565b60405180910390f35b34801561058c57600080fd5b506105a760048036038101906105a29190613b6e565b61105e565b005b3480156105b557600080fd5b506105be6110e4565b6040516105cb9190613865565b60405180910390f35b3480156105e057600080fd5b506105fb60048036038101906105f69190613b9b565b61117c565b6040516106089190613865565b60405180910390f35b34801561061d57600080fd5b50610626611221565b6040516106339190613865565b60405180910390f35b34801561064857600080fd5b50610651611245565b60405161065e9190613865565b60405180910390f35b34801561067357600080fd5b5061067c611269565b6040516106899190613a4f565b60405180910390f35b34801561069e57600080fd5b506106b960048036038101906106b49190613b6e565b61128f565b005b3480156106c757600080fd5b506106e260048036038101906106dd9190613b9b565b611396565b6040516106ef9190613865565b60405180910390f35b34801561070457600080fd5b5061070d6113de565b60405161071a9190613a4f565b60405180910390f35b34801561072f57600080fd5b50610738611404565b005b34801561074657600080fd5b5061074f61148c565b60405161075c9190613a4f565b60405180910390f35b34801561077157600080fd5b5061078c60048036038101906107879190613b6e565b6114b2565b005b34801561079a57600080fd5b506107a3611602565b6040516107b09190613919565b60405180910390f35b3480156107c557600080fd5b506107ce611694565b6040516107db9190613865565b60405180910390f35b3480156107f057600080fd5b5061080b60048036038101906108069190613bf4565b6116b8565b005b34801561081957600080fd5b506108226117d3565b60405161082f9190613865565b60405180910390f35b34801561084457600080fd5b5061085f600480360381019061085a91906139ca565b6117d9565b60405161086c9190613a25565b60405180910390f35b34801561088157600080fd5b5061089c600480360381019061089791906139ca565b6118a6565b6040516108a99190613a25565b60405180910390f35b3480156108be57600080fd5b506108d960048036038101906108d49190613b9b565b6118c4565b6040516108ed989796959493929190613c4d565b60405180910390f35b34801561090257600080fd5b5061090b611988565b6040516109189190613865565b60405180910390f35b34801561092d57600080fd5b5061094860048036038101906109439190613b9b565b6119ac565b6040516109559190613a25565b60405180910390f35b34801561096a57600080fd5b5061098560048036038101906109809190613bf4565b6119cc565b005b34801561099357600080fd5b5061099c611b84565b6040516109a99190613865565b60405180910390f35b3480156109be57600080fd5b506109c7611ba8565b6040516109d49190613a4f565b60405180910390f35b3480156109e957600080fd5b506109f2611bce565b6040516109ff9190613865565b60405180910390f35b348015610a1457600080fd5b50610a2f6004803603810190610a2a9190613ccb565b611bf2565b604051610a3c9190613865565b60405180910390f35b348015610a5157600080fd5b50610a5a611c79565b604051610a679190613a4f565b60405180910390f35b348015610a7c57600080fd5b50610a85611ca3565b604051610a929190613865565b60405180910390f35b348015610aa757600080fd5b50610ab0611ca9565b604051610abd9190613d3e565b60405180910390f35b348015610ad257600080fd5b50610adb611ccf565b604051610ae89190613865565b60405180910390f35b348015610afd57600080fd5b50610b06611cf3565b604051610b139190613865565b60405180910390f35b348015610b2857600080fd5b50610b436004803603810190610b3e9190613b6e565b611d8b565b005b348015610b5157600080fd5b50610b6c6004803603810190610b679190613b6e565b611e97565b604051610b80989796959493929190613c4d565b60405180910390f35b348015610b9557600080fd5b50610bb06004803603810190610bab9190613b9b565b611f5b565b005b348015610bbe57600080fd5b50610bd96004803603810190610bd49190613b6e565b612053565b005b60115481565b606060038054610bf090613d88565b80601f0160208091040260200160405190810160405280929190818152602001828054610c1c90613d88565b8015610c695780601f10610c3e57610100808354040283529160200191610c69565b820191906000526020600020905b815481529060010190602001808311610c4c57829003601f168201915b5050505050905090565b6000610c87610c806120ef565b84846120f7565b6001905092915050565b6000600254905090565b600a60009054906101000a900473ffffffffffffffffffffffffffffffffffffffff1681565b6000610cce8484846122c2565b610d8f84610cda6120ef565b610d8a85604051806060016040528060288152602001614b7160289139600160008b73ffffffffffffffffffffffffffffffffffffffff1673ffffffffffffffffffffffffffffffffffffffff1681526020019081526020016000206000610d406120ef565b73ffffffffffffffffffffffffffffffffffffffff1673ffffffffffffffffffffffffffffffffffffffff16815260200190815260200160002054612dc99092919063ffffffff16565b6120f7565b600190509392505050565b600f60009054906101000a900473ffffffffffffffffffffffffffffffffffffffff1681565b6000600f60009054906101000a900473ffffffffffffffffffffffffffffffffffffffff1673ffffffffffffffffffffffffffffffffffffffff166385a6b3ae6040518163ffffffff1660e01b8152600401602060405180830381865afa158015610e2f573d6000803e3d6000fd5b505050506040513d601f19601f82011682018060405250810190610e539190613dcf565b905090565b6000600560009054906101000a900460ff16905090565b600660009054906101000a900473ffffffffffffffffffffffffffffffffffffffff1681565b6000610f3e610ea26120ef565b84610f398560016000610eb36120ef565b73ffffffffffffffffffffffffffffffffffffffff1673ffffffffffffffffffffffffffffffffffffffff16815260200190815260200160002060008973ffffffffffffffffffffffffffffffffffffffff1673ffffffffffffffffffffffffffffffffffffffff168152602001908152602001600020546120d990919063ffffffff16565b6120f7565b6001905092915050565b600f60009054906101000a900473ffffffffffffffffffffffffffffffffffffffff1673ffffffffffffffffffffffffffffffffffffffff1663bc4c4b373360006040518363ffffffff1660e01b8152600401610fa6929190613e1d565b6020604051808303816000875af1158015610fc5573d6000803e3d6000fd5b505050506040513d601f19601f82011682018060405250810190610fe99190613e5b565b50565b600c60009054906101000a900473ffffffffffffffffffffffffffffffffffffffff1681565b600860009054906101000a900473ffffffffffffffffffffffffffffffffffffffff1681565b600b60009054906101000a900473ffffffffffffffffffffffffffffffffffffffff1681565b6110666120ef565b73ffffffffffffffffffffffffffffffffffffffff16611084611c79565b73ffffffffffffffffffffffffffffffffffffffff16146110da576040517f08c379a00000000000000000000000000000000000000000000000000000000081526004016110d190613ed4565b60405180910390fd5b8060128190555050565b6000600f60009054906101000a900473ffffffffffffffffffffffffffffffffffffffff1673ffffffffffffffffffffffffffffffffffffffff166309bbedde6040518163ffffffff1660e01b8152600401602060405180830381865afa158015611153573d6000803e3d6000fd5b505050506040513d601f19601f820116820180604052508101906111779190613dcf565b905090565b6000600f60009054906101000a900473ffffffffffffffffffffffffffffffffffffffff1673ffffffffffffffffffffffffffffffffffffffff166370a08231836040518263ffffffff1660e01b81526004016111d99190613a4f565b602060405180830381865afa1580156111f6573d6000803e3d6000fd5b505050506040513d601f19601f8201168201806040525081019061121a9190613dcf565b9050919050565b7f000000000000000000000000000000000000000000000000000000000000000081565b7f000000000000000000000000000000000000000000000000000000000000000081565b600d60009054906101000a900473ffffffffffffffffffffffffffffffffffffffff1681565b6000806000600f60009054906101000a900473ffffffffffffffffffffffffffffffffffffffff1673ffffffffffffffffffffffffffffffffffffffff1663ffb2c479856040518263ffffffff1660e01b81526004016112ef9190613865565b6060604051808303816000875af115801561130e573d6000803e3d6000fd5b505050506040513d601f19601f820116820180604052508101906113329190613ef4565b9250925092503273ffffffffffffffffffffffffffffffffffffffff16600015157fc864333d6121033635ab41b29ae52f10a22cf4438c3e4f1c4c68518feb2f8a98858585896040516113889493929190613f47565b60405180910390a350505050565b60008060008373ffffffffffffffffffffffffffffffffffffffff1673ffffffffffffffffffffffffffffffffffffffff168152602001908152602001600020549050919050565b600e60009054906101000a900473ffffffffffffffffffffffffffffffffffffffff1681565b61140c6120ef565b73ffffffffffffffffffffffffffffffffffffffff1661142a611c79565b73ffffffffffffffffffffffffffffffffffffffff1614611480576040517f08c379a000000000000000000000000000000000000000000000000000000000815260040161147790613ed4565b60405180910390fd5b61148a6000612e1e565b565b600960009054906101000a900473ffffffffffffffffffffffffffffffffffffffff1681565b6114ba6120ef565b73ffffffffffffffffffffffffffffffffffffffff166114d8611c79565b73ffffffffffffffffffffffffffffffffffffffff161461152e576040517f08c379a000000000000000000000000000000000000000000000000000000000815260040161152590613ed4565b60405180910390fd5b62030d40811015801561154457506207a1208111155b611583576040517f08c379a000000000000000000000000000000000000000000000000000000000815260040161157a90613ffe565b60405180910390fd5b6013548114156115c8576040517f08c379a00000000000000000000000000000000000000000000000000000000081526004016115bf90614090565b60405180910390fd5b601354817f40d7e40e79af4e8e5a9b3c57030d8ea93f13d669c06d448c4d631d4ae7d23db760405160405180910390a38060138190555050565b60606004805461161190613d88565b80601f016020809104026020016040519081016040528092919081815260200182805461163d90613d88565b801561168a5780601f1061165f5761010080835404028352916020019161168a565b820191906000526020600020905b81548152906001019060200180831161166d57829003601f168201915b5050505050905090565b7f000000000000000000000000000000000000000000000000000000000000000081565b6116c06120ef565b73ffffffffffffffffffffffffffffffffffffffff166116de611c79565b73ffffffffffffffffffffffffffffffffffffffff1614611734576040517f08c379a000000000000000000000000000000000000000000000000000000000815260040161172b90613ed4565b60405180910390fd5b600860009054906101000a900473ffffffffffffffffffffffffffffffffffffffff1673ffffffffffffffffffffffffffffffffffffffff168273ffffffffffffffffffffffffffffffffffffffff1614156117c5576040517f08c379a00000000000000000000000000000000000000000000000000000000081526004016117bc90614148565b60405180910390fd5b6117cf8282612ee4565b5050565b60135481565b600061189c6117e66120ef565b8461189785604051806060016040528060258152602001614bbf60259139600160006118106120ef565b73ffffffffffffffffffffffffffffffffffffffff1673ffffffffffffffffffffffffffffffffffffffff16815260200190815260200160002060008a73ffffffffffffffffffffffffffffffffffffffff1673ffffffffffffffffffffffffffffffffffffffff16815260200190815260200160002054612dc99092919063ffffffff16565b6120f7565b6001905092915050565b60006118ba6118b36120ef565b84846122c2565b6001905092915050565b600080600080600080600080600f60009054906101000a900473ffffffffffffffffffffffffffffffffffffffff1673ffffffffffffffffffffffffffffffffffffffff1663fbcbc0f18a6040518263ffffffff1660e01b815260040161192b9190613a4f565b61010060405180830381865afa158015611949573d6000803e3d6000fd5b505050506040513d601f19601f8201168201806040525081019061196d91906141a9565b97509750975097509750975097509750919395975091939597565b7f000000000000000000000000000000000000000000000000000000000000000081565b60156020528060005260406000206000915054906101000a900460ff1681565b6119d46120ef565b73ffffffffffffffffffffffffffffffffffffffff166119f2611c79565b73ffffffffffffffffffffffffffffffffffffffff1614611a48576040517f08c379a0000000000000000000000000000000000000000000000000000000008152600401611a3f90613ed4565b60405180910390fd5b801515601460008473ffffffffffffffffffffffffffffffffffffffff1673ffffffffffffffffffffffffffffffffffffffff16815260200190815260200160002060009054906101000a900460ff1615151415611adb576040517f08c379a0000000000000000000000000000000000000000000000000000000008152600401611ad2906142d1565b60405180910390fd5b80601460008473ffffffffffffffffffffffffffffffffffffffff1673ffffffffffffffffffffffffffffffffffffffff16815260200190815260200160002060006101000a81548160ff0219169083151502179055508173ffffffffffffffffffffffffffffffffffffffff167f9d8f7706ea1113d1a167b526eca956215946dd36cc7df39eb16180222d8b5df782604051611b789190613a25565b60405180910390a25050565b7f000000000000000000000000000000000000000000000000000000000000000081565b601060009054906101000a900473ffffffffffffffffffffffffffffffffffffffff1681565b7f000000000000000000000000000000000000000000000000000000000000000081565b6000600160008473ffffffffffffffffffffffffffffffffffffffff1673ffffffffffffffffffffffffffffffffffffffff16815260200190815260200160002060008373ffffffffffffffffffffffffffffffffffffffff1673ffffffffffffffffffffffffffffffffffffffff16815260200190815260200160002054905092915050565b6000600560019054906101000a900473ffffffffffffffffffffffffffffffffffffffff16905090565b60125481565b600760009054906101000a900473ffffffffffffffffffffffffffffffffffffffff1681565b7f000000000000000000000000000000000000000000000000000000000000000081565b6000600f60009054906101000a900473ffffffffffffffffffffffffffffffffffffffff1673ffffffffffffffffffffffffffffffffffffffff1663e7841ec06040518163ffffffff1660e01b8152600401602060405180830381865afa158015611d62573d6000803e3d6000fd5b505050506040513d601f19601f82011682018060405250810190611d869190613dcf565b905090565b611d936120ef565b73ffffffffffffffffffffffffffffffffffffffff16611db1611c79565b73ffffffffffffffffffffffffffffffffffffffff1614611e07576040517f08c379a0000000000000000000000000000000000000000000000000000000008152600401611dfe90613ed4565b60405180910390fd5b600f60009054906101000a900473ffffffffffffffffffffffffffffffffffffffff1673ffffffffffffffffffffffffffffffffffffffff1663e98030c7826040518263ffffffff1660e01b8152600401611e629190613865565b600060405180830381600087803b158015611e7c57600080fd5b505af1158015611e90573d6000803e3d6000fd5b5050505050565b600080600080600080600080600f60009054906101000a900473ffffffffffffffffffffffffffffffffffffffff1673ffffffffffffffffffffffffffffffffffffffff16635183d6fd8a6040518263ffffffff1660e01b8152600401611efe9190613865565b61010060405180830381865afa158015611f1c573d6000803e3d6000fd5b505050506040513d601f19601f82011682018060405250810190611f4091906141a9565b97509750975097509750975097509750919395975091939597565b611f636120ef565b73ffffffffffffffffffffffffffffffffffffffff16611f81611c79565b73ffffffffffffffffffffffffffffffffffffffff1614611fd7576040517f08c379a0000000000000000000000000000000000000000000000000000000008152600401611fce90613ed4565b60405180910390fd5b600073ffffffffffffffffffffffffffffffffffffffff168173ffffffffffffffffffffffffffffffffffffffff161415612047576040517f08c379a000000000000000000000000000000000000000000000000000000000815260040161203e90614363565b60405180910390fd5b61205081612e1e565b50565b61205b6120ef565b73ffffffffffffffffffffffffffffffffffffffff16612079611c79565b73ffffffffffffffffffffffffffffffffffffffff16146120cf576040517f08c379a00000000000000000000000000000000000000000000000000000000081526004016120c690613ed4565b60405180910390fd5b8060118190555050565b600081836120e791906143b2565b905092915050565b600033905090565b600073ffffffffffffffffffffffffffffffffffffffff168373ffffffffffffffffffffffffffffffffffffffff161415612167576040517f08c379a000000000000000000000000000000000000000000000000000000000815260040161215e9061447a565b60405180910390fd5b600073ffffffffffffffffffffffffffffffffffffffff168273ffffffffffffffffffffffffffffffffffffffff1614156121d7576040517f08c379a00000000000000000000000000000000000000000000000000000000081526004016121ce9061450c565b60405180910390fd5b80600160008573ffffffffffffffffffffffffffffffffffffffff1673ffffffffffffffffffffffffffffffffffffffff16815260200190815260200160002060008473ffffffffffffffffffffffffffffffffffffffff1673ffffffffffffffffffffffffffffffffffffffff168152602001908152602001600020819055508173ffffffffffffffffffffffffffffffffffffffff168373ffffffffffffffffffffffffffffffffffffffff167f8c5be1e5ebec7d5bd14f71427d1e84f3dd0314c0f7b2291e5b200ac8c7c3b925836040516122b59190613865565b60405180910390a3505050565b600073ffffffffffffffffffffffffffffffffffffffff168373ffffffffffffffffffffffffffffffffffffffff161415612332576040517f08c379a00000000000000000000000000000000000000000000000000000000081526004016123299061459e565b60405180910390fd5b600073ffffffffffffffffffffffffffffffffffffffff168273ffffffffffffffffffffffffffffffffffffffff1614156123a2576040517f08c379a000000000000000000000000000000000000000000000000000000000815260040161239990614630565b60405180910390fd5b60008114156123bc576123b7838360006130ac565b612dc4565b600e60149054906101000a900460ff161580156124225750601560008373ffffffffffffffffffffffffffffffffffffffff1673ffffffffffffffffffffffffffffffffffffffff16815260200190815260200160002060009054906101000a900460ff165b801561247c5750600760009054906101000a900473ffffffffffffffffffffffffffffffffffffffff1673ffffffffffffffffffffffffffffffffffffffff168373ffffffffffffffffffffffffffffffffffffffff1614155b80156124d25750601460008373ffffffffffffffffffffffffffffffffffffffff1673ffffffffffffffffffffffffffffffffffffffff16815260200190815260200160002060009054906101000a900460ff16155b80156125285750601460008473ffffffffffffffffffffffffffffffffffffffff1673ffffffffffffffffffffffffffffffffffffffff16815260200190815260200160002060009054906101000a900460ff16155b1561257357601154811115612572576040517f08c379a0000000000000000000000000000000000000000000000000000000008152600401612569906146c2565b60405180910390fd5b5b600061257e30611396565b9050600060125482101590508080156125a45750600e60149054906101000a900460ff16155b80156125fa5750601560008673ffffffffffffffffffffffffffffffffffffffff1673ffffffffffffffffffffffffffffffffffffffff16815260200190815260200160002060009054906101000a900460ff16155b80156126545750601060009054906101000a900473ffffffffffffffffffffffffffffffffffffffff1673ffffffffffffffffffffffffffffffffffffffff168573ffffffffffffffffffffffffffffffffffffffff1614155b80156126ae5750601060009054906101000a900473ffffffffffffffffffffffffffffffffffffffff1673ffffffffffffffffffffffffffffffffffffffff168473ffffffffffffffffffffffffffffffffffffffff1614155b156127ac576001600e60146101000a81548160ff02191690831515021790555060006127237f00000000000000000000000000000000000000000000000000000000000000007f00000000000000000000000000000000000000000000000000000000000000006120d990919063ffffffff16565b9050600061276c8261275e7f00000000000000000000000000000000000000000000000000000000000000008761334190919063ffffffff16565b61335790919063ffffffff16565b90506127778161336d565b600061278230611396565b905061278d8161340d565b6000600e60146101000a81548160ff0219169083151502179055505050505b6000600e60149054906101000a900460ff16159050601460008773ffffffffffffffffffffffffffffffffffffffff1673ffffffffffffffffffffffffffffffffffffffff16815260200190815260200160002060009054906101000a900460ff16806128625750601460008673ffffffffffffffffffffffffffffffffffffffff1673ffffffffffffffffffffffffffffffffffffffff16815260200190815260200160002060009054906101000a900460ff165b1561286c57600090505b8015612b685760006128c77f00000000000000000000000000000000000000000000000000000000000000007f00000000000000000000000000000000000000000000000000000000000000006120d990919063ffffffff16565b905060006128f160646128e3848961334190919063ffffffff16565b61335790919063ffffffff16565b905061290681876134ee90919063ffffffff16565b95506129138830836130ac565b601560008973ffffffffffffffffffffffffffffffffffffffff1673ffffffffffffffffffffffffffffffffffffffff16815260200190815260200160002060009054906101000a900460ff16156129f75760006129ad606461299f7f00000000000000000000000000000000000000000000000000000000000000008a61334190919063ffffffff16565b61335790919063ffffffff16565b90506129dc89600e60009054906101000a900473ffffffffffffffffffffffffffffffffffffffff16836130ac565b6129ef81886134ee90919063ffffffff16565b965050612ad8565b601560008873ffffffffffffffffffffffffffffffffffffffff1673ffffffffffffffffffffffffffffffffffffffff16815260200190815260200160002060009054906101000a900460ff1615612ad7576000612a916064612a837f00000000000000000000000000000000000000000000000000000000000000008a61334190919063ffffffff16565b61335790919063ffffffff16565b9050612ac089600e60009054906101000a900473ffffffffffffffffffffffffffffffffffffffff16836130ac565b612ad381886134ee90919063ffffffff16565b9650505b5b6000612b206064612b127f00000000000000000000000000000000000000000000000000000000000000008a61334190919063ffffffff16565b61335790919063ffffffff16565b9050612b4f89600960009054906101000a900473ffffffffffffffffffffffffffffffffffffffff16836130ac565b612b6281886134ee90919063ffffffff16565b96505050505b612b738686866130ac565b600f60009054906101000a900473ffffffffffffffffffffffffffffffffffffffff1673ffffffffffffffffffffffffffffffffffffffff1663e30443bc87612bbb89611396565b6040518363ffffffff1660e01b8152600401612bd89291906146e2565b600060405180830381600087803b158015612bf257600080fd5b505af1925050508015612c03575060015b612c0c57612c0d565b5b600f60009054906101000a900473ffffffffffffffffffffffffffffffffffffffff1673ffffffffffffffffffffffffffffffffffffffff1663e30443bc86612c5588611396565b6040518363ffffffff1660e01b8152600401612c729291906146e2565b600060405180830381600087803b158015612c8c57600080fd5b505af1925050508015612c9d575060015b612ca657612ca7565b5b600e60149054906101000a900460ff16612dc05760006013549050600f60009054906101000a900473ffffffffffffffffffffffffffffffffffffffff1673ffffffffffffffffffffffffffffffffffffffff1663ffb2c479826040518263ffffffff1660e01b8152600401612d1d9190613865565b6060604051808303816000875af1925050508015612d5957506040513d601f19601f82011682018060405250810190612d569190613ef4565b60015b612d6257612dbe565b3273ffffffffffffffffffffffffffffffffffffffff16600115157fc864333d6121033635ab41b29ae52f10a22cf4438c3e4f1c4c68518feb2f8a9885858589604051612db29493929190613f47565b60405180910390a35050505b505b5050505b505050565b6000838311158290612e11576040517f08c379a0000000000000000000000000000000000000000000000000000000008152600401612e089190613919565b60405180910390fd5b5082840390509392505050565b6000600560019054906101000a900473ffffffffffffffffffffffffffffffffffffffff16905081600560016101000a81548173ffffffffffffffffffffffffffffffffffffffff021916908373ffffffffffffffffffffffffffffffffffffffff1602179055508173ffffffffffffffffffffffffffffffffffffffff168173ffffffffffffffffffffffffffffffffffffffff167f8be0079c531659141344cd1fd0a4f28419497f9722a3daafe3b4186f6b6457e060405160405180910390a35050565b801515601560008473ffffffffffffffffffffffffffffffffffffffff1673ffffffffffffffffffffffffffffffffffffffff16815260200190815260200160002060009054906101000a900460ff1615151415612f77576040517f08c379a0000000000000000000000000000000000000000000000000000000008152600401612f6e9061477d565b60405180910390fd5b80601560008473ffffffffffffffffffffffffffffffffffffffff1673ffffffffffffffffffffffffffffffffffffffff16815260200190815260200160002060006101000a81548160ff021916908315150217905550801561306257600f60009054906101000a900473ffffffffffffffffffffffffffffffffffffffff1673ffffffffffffffffffffffffffffffffffffffff166331e79db0836040518263ffffffff1660e01b815260040161302f9190613a4f565b600060405180830381600087803b15801561304957600080fd5b505af115801561305d573d6000803e3d6000fd5b505050505b8015158273ffffffffffffffffffffffffffffffffffffffff167fffa9187bf1f18bf477bd0ea1bcbb64e93b6a98132473929edfce215cd9b16fab60405160405180910390a35050565b600073ffffffffffffffffffffffffffffffffffffffff168373ffffffffffffffffffffffffffffffffffffffff16141561311c576040517f08c379a00000000000000000000000000000000000000000000000000000000081526004016131139061459e565b60405180910390fd5b600073ffffffffffffffffffffffffffffffffffffffff168273ffffffffffffffffffffffffffffffffffffffff16141561318c576040517f08c379a000000000000000000000000000000000000000000000000000000000815260040161318390614630565b60405180910390fd5b613197838383613504565b61320281604051806060016040528060268152602001614b99602691396000808773ffffffffffffffffffffffffffffffffffffffff1673ffffffffffffffffffffffffffffffffffffffff16815260200190815260200160002054612dc99092919063ffffffff16565b6000808573ffffffffffffffffffffffffffffffffffffffff1673ffffffffffffffffffffffffffffffffffffffff16815260200190815260200160002081905550613295816000808573ffffffffffffffffffffffffffffffffffffffff1673ffffffffffffffffffffffffffffffffffffffff168152602001908152602001600020546120d990919063ffffffff16565b6000808473ffffffffffffffffffffffffffffffffffffffff1673ffffffffffffffffffffffffffffffffffffffff168152602001908152602001600020819055508173ffffffffffffffffffffffffffffffffffffffff168373ffffffffffffffffffffffffffffffffffffffff167fddf252ad1be2c89b69c2b068fc378daa952ba7f163c4a11628f55a4df523b3ef836040516133349190613865565b60405180910390a3505050565b6000818361334f919061479d565b905092915050565b600081836133659190614826565b905092915050565b600061338360028361335790919063ffffffff16565b9050600061339a82846134ee90919063ffffffff16565b905060004790506133aa83613509565b60006133bf82476134ee90919063ffffffff16565b90506133cb838261374c565b7f17bbfb9a6069321b6ded73bd96327c9e6b7212a5cd51ff219cd61370acafb5618482856040516133fe93929190614857565b60405180910390a15050505050565b61341681613509565b60004790506000600f60009054906101000a900473ffffffffffffffffffffffffffffffffffffffff1673ffffffffffffffffffffffffffffffffffffffff1682604051613463906148bf565b60006040518083038185875af1925050503d80600081146134a0576040519150601f19603f3d011682016040523d82523d6000602084013e6134a5565b606091505b5050905080156134e9577f80195cc573b02cc48460cbca6e6e4cc85ddb91959d946e1c3025ea3d87942dc383836040516134e09291906148d4565b60405180910390a15b505050565b600081836134fc91906148fd565b905092915050565b505050565b6000600267ffffffffffffffff81111561352657613525614931565b5b6040519080825280602002602001820160405280156135545781602001602082028036833780820191505090505b509050308160008151811061356c5761356b614960565b5b602002602001019073ffffffffffffffffffffffffffffffffffffffff16908173ffffffffffffffffffffffffffffffffffffffff1681525050600760009054906101000a900473ffffffffffffffffffffffffffffffffffffffff1673ffffffffffffffffffffffffffffffffffffffff1663ad5c46486040518163ffffffff1660e01b8152600401602060405180830381865afa158015613613573d6000803e3d6000fd5b505050506040513d601f19601f82011682018060405250810190613637919061498f565b8160018151811061364b5761364a614960565b5b602002602001019073ffffffffffffffffffffffffffffffffffffffff16908173ffffffffffffffffffffffffffffffffffffffff16815250506136b230600760009054906101000a900473ffffffffffffffffffffffffffffffffffffffff16846120f7565b600760009054906101000a900473ffffffffffffffffffffffffffffffffffffffff1673ffffffffffffffffffffffffffffffffffffffff1663791ac9478360008430426040518663ffffffff1660e01b8152600401613716959493929190614ab5565b600060405180830381600087803b15801561373057600080fd5b505af1158015613744573d6000803e3d6000fd5b505050505050565b61377930600760009054906101000a900473ffffffffffffffffffffffffffffffffffffffff16846120f7565b600760009054906101000a900473ffffffffffffffffffffffffffffffffffffffff1673ffffffffffffffffffffffffffffffffffffffff1663f305d719823085600080601060009054906101000a900473ffffffffffffffffffffffffffffffffffffffff16426040518863ffffffff1660e01b815260040161380296959493929190614b0f565b60606040518083038185885af1158015613820573d6000803e3d6000fd5b50505050506040513d601f19601f820116820180604052508101906138459190613ef4565b5050505050565b6000819050919050565b61385f8161384c565b82525050565b600060208201905061387a6000830184613856565b92915050565b600081519050919050565b600082825260208201905092915050565b60005b838110156138ba57808201518184015260208101905061389f565b838111156138c9576000848401525b50505050565b6000601f19601f8301169050919050565b60006138eb82613880565b6138f5818561388b565b935061390581856020860161389c565b61390e816138cf565b840191505092915050565b6000602082019050818103600083015261393381846138e0565b905092915050565b600080fd5b600073ffffffffffffffffffffffffffffffffffffffff82169050919050565b600061396b82613940565b9050919050565b61397b81613960565b811461398657600080fd5b50565b60008135905061399881613972565b92915050565b6139a78161384c565b81146139b257600080fd5b50565b6000813590506139c48161399e565b92915050565b600080604083850312156139e1576139e061393b565b5b60006139ef85828601613989565b9250506020613a00858286016139b5565b9150509250929050565b60008115159050919050565b613a1f81613a0a565b82525050565b6000602082019050613a3a6000830184613a16565b92915050565b613a4981613960565b82525050565b6000602082019050613a646000830184613a40565b92915050565b600080600060608486031215613a8357613a8261393b565b5b6000613a9186828701613989565b9350506020613aa286828701613989565b9250506040613ab3868287016139b5565b9150509250925092565b6000819050919050565b6000613ae2613add613ad884613940565b613abd565b613940565b9050919050565b6000613af482613ac7565b9050919050565b6000613b0682613ae9565b9050919050565b613b1681613afb565b82525050565b6000602082019050613b316000830184613b0d565b92915050565b600060ff82169050919050565b613b4d81613b37565b82525050565b6000602082019050613b686000830184613b44565b92915050565b600060208284031215613b8457613b8361393b565b5b6000613b92848285016139b5565b91505092915050565b600060208284031215613bb157613bb061393b565b5b6000613bbf84828501613989565b91505092915050565b613bd181613a0a565b8114613bdc57600080fd5b50565b600081359050613bee81613bc8565b92915050565b60008060408385031215613c0b57613c0a61393b565b5b6000613c1985828601613989565b9250506020613c2a85828601613bdf565b9150509250929050565b6000819050919050565b613c4781613c34565b82525050565b600061010082019050613c63600083018b613a40565b613c70602083018a613c3e565b613c7d6040830189613c3e565b613c8a6060830188613856565b613c976080830187613856565b613ca460a0830186613856565b613cb160c0830185613856565b613cbe60e0830184613856565b9998505050505050505050565b60008060408385031215613ce257613ce161393b565b5b6000613cf085828601613989565b9250506020613d0185828601613989565b9150509250929050565b6000613d1682613ac7565b9050919050565b6000613d2882613d0b565b9050919050565b613d3881613d1d565b82525050565b6000602082019050613d536000830184613d2f565b92915050565b7f4e487b7100000000000000000000000000000000000000000000000000000000600052602260045260246000fd5b60006002820490506001821680613da057607f821691505b60208210811415613db457613db3613d59565b5b50919050565b600081519050613dc98161399e565b92915050565b600060208284031215613de557613de461393b565b5b6000613df384828501613dba565b91505092915050565b6000613e0782613940565b9050919050565b613e1781613dfc565b82525050565b6000604082019050613e326000830185613e0e565b613e3f6020830184613a16565b9392505050565b600081519050613e5581613bc8565b92915050565b600060208284031215613e7157613e7061393b565b5b6000613e7f84828501613e46565b91505092915050565b7f4f776e61626c653a2063616c6c6572206973206e6f7420746865206f776e6572600082015250565b6000613ebe60208361388b565b9150613ec982613e88565b602082019050919050565b60006020820190508181036000830152613eed81613eb1565b9050919050565b600080600060608486031215613f0d57613f0c61393b565b5b6000613f1b86828701613dba565b9350506020613f2c86828701613dba565b9250506040613f3d86828701613dba565b9150509250925092565b6000608082019050613f5c6000830187613856565b613f696020830186613856565b613f766040830185613856565b613f836060830184613856565b95945050505050565b7f44656d6f3a20676173466f7250726f63657373696e67206d757374206265206260008201527f65747765656e203230302c30303020616e64203530302c303030000000000000602082015250565b6000613fe8603a8361388b565b9150613ff382613f8c565b604082019050919050565b6000602082019050818103600083015261401781613fdb565b9050919050565b7f44656d6f3a2043616e6e6f742075706461746520676173466f7250726f63657360008201527f73696e6720746f2073616d652076616c75650000000000000000000000000000602082015250565b600061407a60328361388b565b91506140858261401e565b604082019050919050565b600060208201905081810360008301526140a98161406d565b9050919050565b7f44656d6f3a205468652050616e63616b655377617020706169722063616e6e6f60008201527f742062652072656d6f7665642066726f6d206175746f6d617465644d61726b6560208201527f744d616b65725061697273000000000000000000000000000000000000000000604082015250565b6000614132604b8361388b565b915061413d826140b0565b606082019050919050565b6000602082019050818103600083015261416181614125565b9050919050565b60008151905061417781613972565b92915050565b61418681613c34565b811461419157600080fd5b50565b6000815190506141a38161417d565b92915050565b600080600080600080600080610100898b0312156141ca576141c961393b565b5b60006141d88b828c01614168565b98505060206141e98b828c01614194565b97505060406141fa8b828c01614194565b965050606061420b8b828c01613dba565b955050608061421c8b828c01613dba565b94505060a061422d8b828c01613dba565b93505060c061423e8b828c01613dba565b92505060e061424f8b828c01613dba565b9150509295985092959890939650565b7f44656d6f3a204163636f756e7420697320616c7265616479207468652076616c60008201527f7565206f6620276578636c756465642700000000000000000000000000000000602082015250565b60006142bb60308361388b565b91506142c68261425f565b604082019050919050565b600060208201905081810360008301526142ea816142ae565b9050919050565b7f4f776e61626c653a206e6577206f776e657220697320746865207a65726f206160008201527f6464726573730000000000000000000000000000000000000000000000000000602082015250565b600061434d60268361388b565b9150614358826142f1565b604082019050919050565b6000602082019050818103600083015261437c81614340565b9050919050565b7f4e487b7100000000000000000000000000000000000000000000000000000000600052601160045260246000fd5b60006143bd8261384c565b91506143c88361384c565b9250827fffffffffffffffffffffffffffffffffffffffffffffffffffffffffffffffff038211156143fd576143fc614383565b5b828201905092915050565b7f42455032303a20617070726f76652066726f6d20746865207a65726f2061646460008201527f7265737300000000000000000000000000000000000000000000000000000000602082015250565b600061446460248361388b565b915061446f82614408565b604082019050919050565b6000602082019050818103600083015261449381614457565b9050919050565b7f42455032303a20617070726f766520746f20746865207a65726f20616464726560008201527f7373000000000000000000000000000000000000000000000000000000000000602082015250565b60006144f660228361388b565b91506145018261449a565b604082019050919050565b60006020820190508181036000830152614525816144e9565b9050919050565b7f42455032303a207472616e736665722066726f6d20746865207a65726f20616460008201527f6472657373000000000000000000000000000000000000000000000000000000602082015250565b600061458860258361388b565b91506145938261452c565b604082019050919050565b600060208201905081810360008301526145b78161457b565b9050919050565b7f42455032303a207472616e7366657220746f20746865207a65726f206164647260008201527f6573730000000000000000000000000000000000000000000000000000000000602082015250565b600061461a60238361388b565b9150614625826145be565b604082019050919050565b600060208201905081810360008301526146498161460d565b9050919050565b7f53656c6c207472616e7366657220616d6f756e7420657863656564732074686560008201527f206d617853656c6c5472616e73616374696f6e416d6f756e742e000000000000602082015250565b60006146ac603a8361388b565b91506146b782614650565b604082019050919050565b600060208201905081810360008301526146db8161469f565b9050919050565b60006040820190506146f76000830185613e0e565b6147046020830184613856565b9392505050565b7f44656d6f3a204175746f6d61746564206d61726b6574206d616b65722070616960008201527f7220697320616c72656164792073657420746f20746861742076616c75650000602082015250565b6000614767603e8361388b565b91506147728261470b565b604082019050919050565b600060208201905081810360008301526147968161475a565b9050919050565b60006147a88261384c565b91506147b38361384c565b9250817fffffffffffffffffffffffffffffffffffffffffffffffffffffffffffffffff04831182151516156147ec576147eb614383565b5b828202905092915050565b7f4e487b7100000000000000000000000000000000000000000000000000000000600052601260045260246000fd5b60006148318261384c565b915061483c8361384c565b92508261484c5761484b6147f7565b5b828204905092915050565b600060608201905061486c6000830186613856565b6148796020830185613856565b6148866040830184613856565b949350505050565b600081905092915050565b50565b60006148a960008361488e565b91506148b482614899565b600082019050919050565b60006148ca8261489c565b9150819050919050565b60006040820190506148e96000830185613856565b6148f66020830184613856565b9392505050565b60006149088261384c565b91506149138361384c565b92508282101561492657614925614383565b5b828203905092915050565b7f4e487b7100000000000000000000000000000000000000000000000000000000600052604160045260246000fd5b7f4e487b7100000000000000000000000000000000000000000000000000000000600052603260045260246000fd5b6000602082840312156149a5576149a461393b565b5b60006149b384828501614168565b91505092915050565b6000819050919050565b60006149e16149dc6149d7846149bc565b613abd565b61384c565b9050919050565b6149f1816149c6565b82525050565b600081519050919050565b600082825260208201905092915050565b6000819050602082019050919050565b614a2c81613960565b82525050565b6000614a3e8383614a23565b60208301905092915050565b6000602082019050919050565b6000614a62826149f7565b614a6c8185614a02565b9350614a7783614a13565b8060005b83811015614aa8578151614a8f8882614a32565b9750614a9a83614a4a565b925050600181019050614a7b565b5085935050505092915050565b600060a082019050614aca6000830188613856565b614ad760208301876149e8565b8181036040830152614ae98186614a57565b9050614af86060830185613a40565b614b056080830184613856565b9695505050505050565b600060c082019050614b246000830189613a40565b614b316020830188613856565b614b3e60408301876149e8565b614b4b60608301866149e8565b614b586080830185613a40565b614b6560a0830184613856565b97965050505050505056fe42455032303a207472616e7366657220616d6f756e74206578636565647320616c6c6f77616e636542455032303a207472616e7366657220616d6f756e7420657863656564732062616c616e636542455032303a2064656372656173656420616c6c6f77616e63652062656c6f77207a65726fa2646970667358221220986f5d3d0f3b2fb14797fca39edd222c194cfcf5920423ae617378957ea9decf64736f6c634300080b003360a06040523480156200001157600080fd5b506040518060400160405280601581526020017f44656d6f5f4469766964656e645f547261636b657200000000000000000000008152506040518060400160405280601581526020017f44656d6f5f4469766964656e645f547261636b65720000000000000000000000815250600982828282600390805190602001906200009b92919062000232565b508160049080519060200190620000b492919062000232565b5080600560006101000a81548160ff021916908360ff160217905550505050505050620000f6620000ea6200016460201b60201c565b6200016c60201b60201c565b620001066200016460201b60201c565b600b60006101000a81548173ffffffffffffffffffffffffffffffffffffffff021916908373ffffffffffffffffffffffffffffffffffffffff16021790555061025860138190555066038d7ea4c680006080818152505062000347565b600033905090565b6000600a60009054906101000a900473ffffffffffffffffffffffffffffffffffffffff16905081600a60006101000a81548173ffffffffffffffffffffffffffffffffffffffff021916908373ffffffffffffffffffffffffffffffffffffffff1602179055508173ffffffffffffffffffffffffffffffffffffffff168173ffffffffffffffffffffffffffffffffffffffff167f8be0079c531659141344cd1fd0a4f28419497f9722a3daafe3b4186f6b6457e060405160405180910390a35050565b828054620002409062000311565b90600052602060002090601f016020900481019282620002645760008555620002b0565b82601f106200027f57805160ff1916838001178555620002b0565b82800160010185558215620002b0579182015b82811115620002af57825182559160200191906001019062000292565b5b509050620002bf9190620002c3565b5090565b5b80821115620002de576000816000905550600101620002c4565b5090565b7f4e487b7100000000000000000000000000000000000000000000000000000000600052602260045260246000fd5b600060028204905060018216806200032a57607f821691505b60208210811415620003415762000340620002e2565b5b50919050565b608051613b296200036a6000396000818161156901526117110152613b296000f3fe6080604052600436106102135760003560e01c8063715018a611610118578063be10b614116100a0578063e7841ec01161006f578063e7841ec014610824578063e98030c71461084f578063f2fde38b14610878578063fbcbc0f1146108a1578063ffb2c479146108e557610222565b8063be10b61414610768578063dd62ed3e14610793578063dd8fee14146107d0578063e30443bc146107fb57610222565b8063a457c2d7116100e7578063a457c2d714610637578063a8b9d24014610674578063a9059cbb146106b1578063aafd847a146106ee578063bc4c4b371461072b57610222565b8063715018a61461058d57806385a6b3ae146105a457806391b89fba146105cf57806395d89b411461060c57610222565b8063313ce5671161019b5780634e7b827f1161016a5780634e7b827f1461048d5780635183d6fd146104ca5780636a4740021461050e5780636f2789ec1461052557806370a082311461055057610222565b8063313ce567146103d157806331e79db0146103fc578063324a137614610425578063395093511461045057610222565b806318160ddd116101e257806318160ddd146102c4578063226cfa3d146102ef57806323b872dd1461032c57806327ce0147146103695780633009a609146103a657610222565b806303c833021461022757806306fdde0314610231578063095ea7b31461025c57806309bbedde1461029957610222565b3661022257610220610924565b005b600080fd5b61022f610924565b005b34801561023d57600080fd5b506102466109fd565b6040516102539190612a61565b60405180910390f35b34801561026857600080fd5b50610283600480360381019061027e9190612b1c565b610a8f565b6040516102909190612b77565b60405180910390f35b3480156102a557600080fd5b506102ae610aad565b6040516102bb9190612ba1565b60405180910390f35b3480156102d057600080fd5b506102d9610abd565b6040516102e69190612ba1565b60405180910390f35b3480156102fb57600080fd5b5061031660048036038101906103119190612bbc565b610ac7565b6040516103239190612ba1565b60405180910390f35b34801561033857600080fd5b50610353600480360381019061034e9190612be9565b610adf565b6040516103609190612b77565b60405180910390f35b34801561037557600080fd5b50610390600480360381019061038b9190612bbc565b610bb8565b60405161039d9190612ba1565b60405180910390f35b3480156103b257600080fd5b506103bb610c5b565b6040516103c89190612ba1565b60405180910390f35b3480156103dd57600080fd5b506103e6610c61565b6040516103f39190612c58565b60405180910390f35b34801561040857600080fd5b50610423600480360381019061041e9190612bbc565b610c78565b005b34801561043157600080fd5b5061043a610e60565b6040516104479190612c82565b60405180910390f35b34801561045c57600080fd5b5061047760048036038101906104729190612b1c565b610e86565b6040516104849190612b77565b60405180910390f35b34801561049957600080fd5b506104b460048036038101906104af9190612bbc565b610f39565b6040516104c19190612b77565b60405180910390f35b3480156104d657600080fd5b506104f160048036038101906104ec9190612c9d565b610f59565b604051610505989796959493929190612ce3565b60405180910390f35b34801561051a57600080fd5b506105236110ce565b005b34801561053157600080fd5b5061053a611111565b6040516105479190612ba1565b60405180910390f35b34801561055c57600080fd5b5061057760048036038101906105729190612bbc565b611117565b6040516105849190612ba1565b60405180910390f35b34801561059957600080fd5b506105a261115f565b005b3480156105b057600080fd5b506105b96111e7565b6040516105c69190612ba1565b60405180910390f35b3480156105db57600080fd5b506105f660048036038101906105f19190612bbc565b6111ed565b6040516106039190612ba1565b60405180910390f35b34801561061857600080fd5b506106216111ff565b60405161062e9190612a61565b60405180910390f35b34801561064357600080fd5b5061065e60048036038101906106599190612b1c565b611291565b60405161066b9190612b77565b60405180910390f35b34801561068057600080fd5b5061069b60048036038101906106969190612bbc565b61135e565b6040516106a89190612ba1565b60405180910390f35b3480156106bd57600080fd5b506106d860048036038101906106d39190612b1c565b6113c1565b6040516106e59190612b77565b60405180910390f35b3480156106fa57600080fd5b5061071560048036038101906107109190612bbc565b6113df565b6040516107229190612ba1565b60405180910390f35b34801561073757600080fd5b50610752600480360381019061074d9190612dcb565b611428565b60405161075f9190612b77565b60405180910390f35b34801561077457600080fd5b5061077d611567565b60405161078a9190612ba1565b60405180910390f35b34801561079f57600080fd5b506107ba60048036038101906107b59190612e0b565b61158b565b6040516107c79190612ba1565b60405180910390f35b3480156107dc57600080fd5b506107e5611612565b6040516107f29190612c82565b60405180910390f35b34801561080757600080fd5b50610822600480360381019061081d9190612e4b565b61163c565b005b34801561083057600080fd5b5061083961183c565b6040516108469190612ba1565b60405180910390f35b34801561085b57600080fd5b5061087660048036038101906108719190612c9d565b611846565b005b34801561088457600080fd5b5061089f600480360381019061089a9190612bbc565b611995565b005b3480156108ad57600080fd5b506108c860048036038101906108c39190612bbc565b611a8d565b6040516108dc989796959493929190612ce3565b60405180910390f35b3480156108f157600080fd5b5061090c60048036038101906109079190612c9d565b611c6c565b60405161091b93929190612e8b565b60405180910390f35b600061092e610abd565b1161093857600080fd5b60003411156109fb5761098b61094c610abd565b61097070010000000000000000000000000000000034611dfe90919063ffffffff16565b61097a9190612f20565b600654611e1490919063ffffffff16565b6006819055503373ffffffffffffffffffffffffffffffffffffffff167fa493a9229478c3fcd73f66d2cdeb7f94fd0f341da924d1054236d78454116511346040516109d79190612ba1565b60405180910390a26109f434600954611e1490919063ffffffff16565b6009819055505b565b606060038054610a0c90612f80565b80601f0160208091040260200160405190810160405280929190818152602001828054610a3890612f80565b8015610a855780601f10610a5a57610100808354040283529160200191610a85565b820191906000526020600020905b815481529060010190602001808311610a6857829003601f168201915b5050505050905090565b6000610aa3610a9c611e2a565b8484611e32565b6001905092915050565b6000600c60000180549050905090565b6000600254905090565b60126020528060005260406000206000915090505481565b6000610aec848484611ffd565b610bad84610af8611e2a565b610ba885604051806060016040528060288152602001613a8560289139600160008b73ffffffffffffffffffffffffffffffffffffffff1673ffffffffffffffffffffffffffffffffffffffff1681526020019081526020016000206000610b5e611e2a565b73ffffffffffffffffffffffffffffffffffffffff1673ffffffffffffffffffffffffffffffffffffffff168152602001908152602001600020546120439092919063ffffffff16565b611e32565b600190509392505050565b6000700100000000000000000000000000000000610c4a610c45600760008673ffffffffffffffffffffffffffffffffffffffff1673ffffffffffffffffffffffffffffffffffffffff16815260200190815260200160002054610c37610c32610c2188611117565b600654611dfe90919063ffffffff16565b612098565b6120b590919063ffffffff16565b612100565b610c549190612f20565b9050919050565b60105481565b6000600560009054906101000a900460ff16905090565b610c80611e2a565b73ffffffffffffffffffffffffffffffffffffffff16610c9e611612565b73ffffffffffffffffffffffffffffffffffffffff1614610cf4576040517f08c379a0000000000000000000000000000000000000000000000000000000008152600401610ceb90612ffe565b60405180910390fd5b601160008273ffffffffffffffffffffffffffffffffffffffff1673ffffffffffffffffffffffffffffffffffffffff16815260200190815260200160002060009054906101000a900460ff1615610d4b57600080fd5b6001601160008373ffffffffffffffffffffffffffffffffffffffff1673ffffffffffffffffffffffffffffffffffffffff16815260200190815260200160002060006101000a81548160ff021916908315150217905550610dae816000612117565b600c73__IterableMapping_______________________634c60db9c9091836040518363ffffffff1660e01b8152600401610dea929190613034565b60006040518083038186803b158015610e0257600080fd5b505af4158015610e16573d6000803e3d6000fd5b505050508073ffffffffffffffffffffffffffffffffffffffff167fa878b31040b2e6d0a9a3d3361209db3908ba62014b0dca52adbaee451d128b2560405160405180910390a250565b600b60009054906101000a900473ffffffffffffffffffffffffffffffffffffffff1681565b6000610f2f610e93611e2a565b84610f2a8560016000610ea4611e2a565b73ffffffffffffffffffffffffffffffffffffffff1673ffffffffffffffffffffffffffffffffffffffff16815260200190815260200160002060008973ffffffffffffffffffffffffffffffffffffffff1673ffffffffffffffffffffffffffffffffffffffff16815260200190815260200160002054611e1490919063ffffffff16565b611e32565b6001905092915050565b60116020528060005260406000206000915054906101000a900460ff1681565b600080600080600080600080600c73__IterableMapping_______________________63deb3d89690916040518263ffffffff1660e01b8152600401610f9f919061305d565b602060405180830381865af4158015610fbc573d6000803e3d6000fd5b505050506040513d601f19601f82011682018060405250810190610fe0919061308d565b89106110275760007fffffffffffffffffffffffffffffffffffffffffffffffffffffffffffffffff806000806000806000975097509750975097509750975097506110c3565b6000600c73__IterableMapping_______________________63d1aa9e7e90918c6040518363ffffffff1660e01b81526004016110659291906130c9565b602060405180830381865af4158015611082573d6000803e3d6000fd5b505050506040513d601f19601f820116820180604052508101906110a69190613107565b90506110b181611a8d565b98509850985098509850985098509850505b919395975091939597565b600061110f576040517f08c379a0000000000000000000000000000000000000000000000000000000008152600401611106906131f2565b60405180910390fd5b565b60135481565b60008060008373ffffffffffffffffffffffffffffffffffffffff1673ffffffffffffffffffffffffffffffffffffffff168152602001908152602001600020549050919050565b611167611e2a565b73ffffffffffffffffffffffffffffffffffffffff16611185611612565b73ffffffffffffffffffffffffffffffffffffffff16146111db576040517f08c379a00000000000000000000000000000000000000000000000000000000081526004016111d290612ffe565b60405180910390fd5b6111e56000612184565b565b60095481565b60006111f88261135e565b9050919050565b60606004805461120e90612f80565b80601f016020809104026020016040519081016040528092919081815260200182805461123a90612f80565b80156112875780601f1061125c57610100808354040283529160200191611287565b820191906000526020600020905b81548152906001019060200180831161126a57829003601f168201915b5050505050905090565b600061135461129e611e2a565b8461134f85604051806060016040528060258152602001613aad60259139600160006112c8611e2a565b73ffffffffffffffffffffffffffffffffffffffff1673ffffffffffffffffffffffffffffffffffffffff16815260200190815260200160002060008a73ffffffffffffffffffffffffffffffffffffffff1673ffffffffffffffffffffffffffffffffffffffff168152602001908152602001600020546120439092919063ffffffff16565b611e32565b6001905092915050565b60006113ba600860008473ffffffffffffffffffffffffffffffffffffffff1673ffffffffffffffffffffffffffffffffffffffff168152602001908152602001600020546113ac84610bb8565b61224a90919063ffffffff16565b9050919050565b60006113d56113ce611e2a565b8484611ffd565b6001905092915050565b6000600860008373ffffffffffffffffffffffffffffffffffffffff1673ffffffffffffffffffffffffffffffffffffffff168152602001908152602001600020549050919050565b6000611432611e2a565b73ffffffffffffffffffffffffffffffffffffffff16611450611612565b73ffffffffffffffffffffffffffffffffffffffff16146114a6576040517f08c379a000000000000000000000000000000000000000000000000000000000815260040161149d90612ffe565b60405180910390fd5b60006114b184612260565b9050600081111561155b5742601260008673ffffffffffffffffffffffffffffffffffffffff1673ffffffffffffffffffffffffffffffffffffffff168152602001908152602001600020819055508215158473ffffffffffffffffffffffffffffffffffffffff167fa2c38e2d2fb7e3e1912d937fd1ca11ed6d51864dee4cfa7a7bf02becd7acf092836040516115499190612ba1565b60405180910390a36001915050611561565b60009150505b92915050565b7f000000000000000000000000000000000000000000000000000000000000000081565b6000600160008473ffffffffffffffffffffffffffffffffffffffff1673ffffffffffffffffffffffffffffffffffffffff16815260200190815260200160002060008373ffffffffffffffffffffffffffffffffffffffff1673ffffffffffffffffffffffffffffffffffffffff16815260200190815260200160002054905092915050565b6000600a60009054906101000a900473ffffffffffffffffffffffffffffffffffffffff16905090565b611644611e2a565b73ffffffffffffffffffffffffffffffffffffffff16611662611612565b73ffffffffffffffffffffffffffffffffffffffff16146116b8576040517f08c379a00000000000000000000000000000000000000000000000000000000081526004016116af90612ffe565b60405180910390fd5b601160008373ffffffffffffffffffffffffffffffffffffffff1673ffffffffffffffffffffffffffffffffffffffff16815260200190815260200160002060009054906101000a900460ff161561170f57611838565b7f000000000000000000000000000000000000000000000000000000000000000081106117b3576117408282612117565b600c73__IterableMapping_______________________63bc2b405c909184846040518463ffffffff1660e01b815260040161177e93929190613271565b60006040518083038186803b15801561179657600080fd5b505af41580156117aa573d6000803e3d6000fd5b5050505061182b565b6117be826000612117565b600c73__IterableMapping_______________________634c60db9c9091846040518363ffffffff1660e01b81526004016117fa9291906132a8565b60006040518083038186803b15801561181257600080fd5b505af4158015611826573d6000803e3d6000fd5b505050505b611836826001611428565b505b5050565b6000601054905090565b61184e611e2a565b73ffffffffffffffffffffffffffffffffffffffff1661186c611612565b73ffffffffffffffffffffffffffffffffffffffff16146118c2576040517f08c379a00000000000000000000000000000000000000000000000000000000081526004016118b990612ffe565b60405180910390fd5b610e1081101580156118d75750620151808111155b611916576040517f08c379a000000000000000000000000000000000000000000000000000000000815260040161190d90613369565b60405180910390fd5b60135481141561195b576040517f08c379a0000000000000000000000000000000000000000000000000000000008152600401611952906133fb565b60405180910390fd5b601354817f474ea64804364a1e29a4487ddb63c3342a2dd826ccd8acf48825e680a0e6f20f60405160405180910390a38060138190555050565b61199d611e2a565b73ffffffffffffffffffffffffffffffffffffffff166119bb611612565b73ffffffffffffffffffffffffffffffffffffffff1614611a11576040517f08c379a0000000000000000000000000000000000000000000000000000000008152600401611a0890612ffe565b60405180910390fd5b600073ffffffffffffffffffffffffffffffffffffffff168173ffffffffffffffffffffffffffffffffffffffff161415611a81576040517f08c379a0000000000000000000000000000000000000000000000000000000008152600401611a789061348d565b60405180910390fd5b611a8a81612184565b50565b600080600080600080600080889750600c73__IterableMapping_______________________6317e142d190918a6040518363ffffffff1660e01b8152600401611ad8929190613034565b602060405180830381865af4158015611af5573d6000803e3d6000fd5b505050506040513d601f19601f82011682018060405250810190611b1991906134d9565b96507fffffffffffffffffffffffffffffffffffffffffffffffffffffffffffffffff955060008712611bbe57601054871115611b6c57611b656010548861248590919063ffffffff16565b9550611bbd565b6000601054600c6000018054905011611b86576000611ba4565b611ba3601054600c6000018054905061224a90919063ffffffff16565b5b9050611bb981896120b590919063ffffffff16565b9650505b5b611bc78861135e565b9450611bd288610bb8565b9350601260008973ffffffffffffffffffffffffffffffffffffffff1673ffffffffffffffffffffffffffffffffffffffff16815260200190815260200160002054925060008311611c25576000611c3b565b611c3a60135484611e1490919063ffffffff16565b5b9150428211611c4b576000611c5f565b611c5e428361224a90919063ffffffff16565b5b9050919395975091939597565b600080600080600c6000018054905090506000811415611c985760008060105493509350935050611df7565b600060105490506000805a90506000805b8984108015611cb757508582105b15611dde578480611cc790613506565b955050600c600001805490508510611cde57600094505b6000600c6000018681548110611cf757611cf661354f565b5b9060005260206000200160009054906101000a900473ffffffffffffffffffffffffffffffffffffffff169050611d6c601260008373ffffffffffffffffffffffffffffffffffffffff1673ffffffffffffffffffffffffffffffffffffffff168152602001908152602001600020546124d0565b15611d9157611d7c816001611428565b15611d90578180611d8c90613506565b9250505b5b8280611d9c90613506565b93505060005a905080851115611dd457611dd1611dc2828761224a90919063ffffffff16565b87611e1490919063ffffffff16565b95505b8094505050611ca9565b8460108190555081816010549850985098505050505050505b9193909250565b60008183611e0c919061357e565b905092915050565b60008183611e2291906135d8565b905092915050565b600033905090565b600073ffffffffffffffffffffffffffffffffffffffff168373ffffffffffffffffffffffffffffffffffffffff161415611ea2576040517f08c379a0000000000000000000000000000000000000000000000000000000008152600401611e99906136a0565b60405180910390fd5b600073ffffffffffffffffffffffffffffffffffffffff168273ffffffffffffffffffffffffffffffffffffffff161415611f12576040517f08c379a0000000000000000000000000000000000000000000000000000000008152600401611f0990613732565b60405180910390fd5b80600160008573ffffffffffffffffffffffffffffffffffffffff1673ffffffffffffffffffffffffffffffffffffffff16815260200190815260200160002060008473ffffffffffffffffffffffffffffffffffffffff1673ffffffffffffffffffffffffffffffffffffffff168152602001908152602001600020819055508173ffffffffffffffffffffffffffffffffffffffff168373ffffffffffffffffffffffffffffffffffffffff167f8c5be1e5ebec7d5bd14f71427d1e84f3dd0314c0f7b2291e5b200ac8c7c3b92583604051611ff09190612ba1565b60405180910390a3505050565b600061203e576040517f08c379a0000000000000000000000000000000000000000000000000000000008152600401612035906137c4565b60405180910390fd5b505050565b600083831115829061208b576040517f08c379a00000000000000000000000000000000000000000000000000000000081526004016120829190612a61565b60405180910390fd5b5082840390509392505050565b60008082905060008112156120ac57600080fd5b80915050919050565b60008082846120c491906137e4565b9050600083121580156120d75750838112155b806120ed57506000831280156120ec57508381125b5b6120f657600080fd5b8091505092915050565b60008082121561210f57600080fd5b819050919050565b600061212283611117565b905080821115612153576000612141828461224a90919063ffffffff16565b905061214d8482612503565b5061217f565b8082101561217e576000612170838361224a90919063ffffffff16565b905061217c84826125c2565b505b5b505050565b6000600a60009054906101000a900473ffffffffffffffffffffffffffffffffffffffff16905081600a60006101000a81548173ffffffffffffffffffffffffffffffffffffffff021916908373ffffffffffffffffffffffffffffffffffffffff1602179055508173ffffffffffffffffffffffffffffffffffffffff168173ffffffffffffffffffffffffffffffffffffffff167f8be0079c531659141344cd1fd0a4f28419497f9722a3daafe3b4186f6b6457e060405160405180910390a35050565b600081836122589190613878565b905092915050565b60008061226c8361135e565b9050600081111561247a576122c981600860008673ffffffffffffffffffffffffffffffffffffffff1673ffffffffffffffffffffffffffffffffffffffff16815260200190815260200160002054611e1490919063ffffffff16565b600860008573ffffffffffffffffffffffffffffffffffffffff1673ffffffffffffffffffffffffffffffffffffffff168152602001908152602001600020819055508273ffffffffffffffffffffffffffffffffffffffff167fee503bee2bb6a87e57bc57db795f98137327401a0e7b7ce42e37926cc1a9ca4d826040516123529190612ba1565b60405180910390a260008373ffffffffffffffffffffffffffffffffffffffff1682610bb890604051612384906138dd565b600060405180830381858888f193505050503d80600081146123c2576040519150601f19603f3d011682016040523d82523d6000602084013e6123c7565b606091505b50509050806124705761242282600860008773ffffffffffffffffffffffffffffffffffffffff1673ffffffffffffffffffffffffffffffffffffffff1681526020019081526020016000205461224a90919063ffffffff16565b600860008673ffffffffffffffffffffffffffffffffffffffff1673ffffffffffffffffffffffffffffffffffffffff16815260200190815260200160002081905550600092505050612480565b8192505050612480565b60009150505b919050565b600080828461249491906138f2565b9050600083121580156124a75750838113155b806124bd57506000831280156124bc57508381135b5b6124c657600080fd5b8091505092915050565b6000428211156124e357600090506124fe565b6013546124f9834261224a90919063ffffffff16565b101590505b919050565b61250d8282612681565b61257b61252d61252883600654611dfe90919063ffffffff16565b612098565b600760008573ffffffffffffffffffffffffffffffffffffffff1673ffffffffffffffffffffffffffffffffffffffff1681526020019081526020016000205461248590919063ffffffff16565b600760008473ffffffffffffffffffffffffffffffffffffffff1673ffffffffffffffffffffffffffffffffffffffff168152602001908152602001600020819055505050565b6125cc8282612815565b61263a6125ec6125e783600654611dfe90919063ffffffff16565b612098565b600760008573ffffffffffffffffffffffffffffffffffffffff1673ffffffffffffffffffffffffffffffffffffffff168152602001908152602001600020546120b590919063ffffffff16565b600760008473ffffffffffffffffffffffffffffffffffffffff1673ffffffffffffffffffffffffffffffffffffffff168152602001908152602001600020819055505050565b600073ffffffffffffffffffffffffffffffffffffffff168273ffffffffffffffffffffffffffffffffffffffff1614156126f1576040517f08c379a00000000000000000000000000000000000000000000000000000000081526004016126e8906139d2565b60405180910390fd5b6126fd600083836129c3565b61271281600254611e1490919063ffffffff16565b600281905550612769816000808573ffffffffffffffffffffffffffffffffffffffff1673ffffffffffffffffffffffffffffffffffffffff16815260200190815260200160002054611e1490919063ffffffff16565b6000808473ffffffffffffffffffffffffffffffffffffffff1673ffffffffffffffffffffffffffffffffffffffff168152602001908152602001600020819055508173ffffffffffffffffffffffffffffffffffffffff16600073ffffffffffffffffffffffffffffffffffffffff167fddf252ad1be2c89b69c2b068fc378daa952ba7f163c4a11628f55a4df523b3ef836040516128099190612ba1565b60405180910390a35050565b600073ffffffffffffffffffffffffffffffffffffffff168273ffffffffffffffffffffffffffffffffffffffff161415612885576040517f08c379a000000000000000000000000000000000000000000000000000000000815260040161287c90613a64565b60405180910390fd5b612891826000836129c3565b6128fc81604051806060016040528060228152602001613ad2602291396000808673ffffffffffffffffffffffffffffffffffffffff1673ffffffffffffffffffffffffffffffffffffffff168152602001908152602001600020546120439092919063ffffffff16565b6000808473ffffffffffffffffffffffffffffffffffffffff1673ffffffffffffffffffffffffffffffffffffffff168152602001908152602001600020819055506129538160025461224a90919063ffffffff16565b600281905550600073ffffffffffffffffffffffffffffffffffffffff168273ffffffffffffffffffffffffffffffffffffffff167fddf252ad1be2c89b69c2b068fc378daa952ba7f163c4a11628f55a4df523b3ef836040516129b79190612ba1565b60405180910390a35050565b505050565b600081519050919050565b600082825260208201905092915050565b60005b83811015612a025780820151818401526020810190506129e7565b83811115612a11576000848401525b50505050565b6000601f19601f8301169050919050565b6000612a33826129c8565b612a3d81856129d3565b9350612a4d8185602086016129e4565b612a5681612a17565b840191505092915050565b60006020820190508181036000830152612a7b8184612a28565b905092915050565b600080fd5b600073ffffffffffffffffffffffffffffffffffffffff82169050919050565b6000612ab382612a88565b9050919050565b612ac381612aa8565b8114612ace57600080fd5b50565b600081359050612ae081612aba565b92915050565b6000819050919050565b612af981612ae6565b8114612b0457600080fd5b50565b600081359050612b1681612af0565b92915050565b60008060408385031215612b3357612b32612a83565b5b6000612b4185828601612ad1565b9250506020612b5285828601612b07565b9150509250929050565b60008115159050919050565b612b7181612b5c565b82525050565b6000602082019050612b8c6000830184612b68565b92915050565b612b9b81612ae6565b82525050565b6000602082019050612bb66000830184612b92565b92915050565b600060208284031215612bd257612bd1612a83565b5b6000612be084828501612ad1565b91505092915050565b600080600060608486031215612c0257612c01612a83565b5b6000612c1086828701612ad1565b9350506020612c2186828701612ad1565b9250506040612c3286828701612b07565b9150509250925092565b600060ff82169050919050565b612c5281612c3c565b82525050565b6000602082019050612c6d6000830184612c49565b92915050565b612c7c81612aa8565b82525050565b6000602082019050612c976000830184612c73565b92915050565b600060208284031215612cb357612cb2612a83565b5b6000612cc184828501612b07565b91505092915050565b6000819050919050565b612cdd81612cca565b82525050565b600061010082019050612cf9600083018b612c73565b612d06602083018a612cd4565b612d136040830189612cd4565b612d206060830188612b92565b612d2d6080830187612b92565b612d3a60a0830186612b92565b612d4760c0830185612b92565b612d5460e0830184612b92565b9998505050505050505050565b6000612d6c82612a88565b9050919050565b612d7c81612d61565b8114612d8757600080fd5b50565b600081359050612d9981612d73565b92915050565b612da881612b5c565b8114612db357600080fd5b50565b600081359050612dc581612d9f565b92915050565b60008060408385031215612de257612de1612a83565b5b6000612df085828601612d8a565b9250506020612e0185828601612db6565b9150509250929050565b60008060408385031215612e2257612e21612a83565b5b6000612e3085828601612ad1565b9250506020612e4185828601612ad1565b9150509250929050565b60008060408385031215612e6257612e61612a83565b5b6000612e7085828601612d8a565b9250506020612e8185828601612b07565b9150509250929050565b6000606082019050612ea06000830186612b92565b612ead6020830185612b92565b612eba6040830184612b92565b949350505050565b7f4e487b7100000000000000000000000000000000000000000000000000000000600052601260045260246000fd5b7f4e487b7100000000000000000000000000000000000000000000000000000000600052601160045260246000fd5b6000612f2b82612ae6565b9150612f3683612ae6565b925082612f4657612f45612ec2565b5b828204905092915050565b7f4e487b7100000000000000000000000000000000000000000000000000000000600052602260045260246000fd5b60006002820490506001821680612f9857607f821691505b60208210811415612fac57612fab612f51565b5b50919050565b7f4f776e61626c653a2063616c6c6572206973206e6f7420746865206f776e6572600082015250565b6000612fe86020836129d3565b9150612ff382612fb2565b602082019050919050565b6000602082019050818103600083015261301781612fdb565b9050919050565b8082525050565b61302e81612aa8565b82525050565b6000604082019050613049600083018561301e565b6130566020830184613025565b9392505050565b6000602082019050613072600083018461301e565b92915050565b60008151905061308781612af0565b92915050565b6000602082840312156130a3576130a2612a83565b5b60006130b184828501613078565b91505092915050565b6130c381612ae6565b82525050565b60006040820190506130de600083018561301e565b6130eb60208301846130ba565b9392505050565b60008151905061310181612aba565b92915050565b60006020828403121561311d5761311c612a83565b5b600061312b848285016130f2565b91505092915050565b7f44656d6f5f4469766964656e645f547261636b65723a2077697468647261774460008201527f69766964656e642064697361626c65642e20557365207468652027636c61696d60208201527f272066756e6374696f6e206f6e20746865206d61696e2044656d6f20636f6e7460408201527f726163742e000000000000000000000000000000000000000000000000000000606082015250565b60006131dc6065836129d3565b91506131e782613134565b608082019050919050565b6000602082019050818103600083015261320b816131cf565b9050919050565b6000819050919050565b600061323761323261322d84612a88565b613212565b612a88565b9050919050565b60006132498261321c565b9050919050565b600061325b8261323e565b9050919050565b61326b81613250565b82525050565b6000606082019050613286600083018661301e565b6132936020830185613262565b6132a060408301846130ba565b949350505050565b60006040820190506132bd600083018561301e565b6132ca6020830184613262565b9392505050565b7f44656d6f5f4469766964656e645f547261636b65723a20636c61696d5761697460008201527f206d757374206265207570646174656420746f206265747765656e203120616e60208201527f6420323420686f75727300000000000000000000000000000000000000000000604082015250565b6000613353604a836129d3565b915061335e826132d1565b606082019050919050565b6000602082019050818103600083015261338281613346565b9050919050565b7f44656d6f5f4469766964656e645f547261636b65723a2043616e6e6f7420757060008201527f6461746520636c61696d5761697420746f2073616d652076616c756500000000602082015250565b60006133e5603c836129d3565b91506133f082613389565b604082019050919050565b60006020820190508181036000830152613414816133d8565b9050919050565b7f4f776e61626c653a206e6577206f776e657220697320746865207a65726f206160008201527f6464726573730000000000000000000000000000000000000000000000000000602082015250565b60006134776026836129d3565b91506134828261341b565b604082019050919050565b600060208201905081810360008301526134a68161346a565b9050919050565b6134b681612cca565b81146134c157600080fd5b50565b6000815190506134d3816134ad565b92915050565b6000602082840312156134ef576134ee612a83565b5b60006134fd848285016134c4565b91505092915050565b600061351182612ae6565b91507fffffffffffffffffffffffffffffffffffffffffffffffffffffffffffffffff82141561354457613543612ef1565b5b600182019050919050565b7f4e487b7100000000000000000000000000000000000000000000000000000000600052603260045260246000fd5b600061358982612ae6565b915061359483612ae6565b9250817fffffffffffffffffffffffffffffffffffffffffffffffffffffffffffffffff04831182151516156135cd576135cc612ef1565b5b828202905092915050565b60006135e382612ae6565b91506135ee83612ae6565b9250827fffffffffffffffffffffffffffffffffffffffffffffffffffffffffffffffff0382111561362357613622612ef1565b5b828201905092915050565b7f42455032303a20617070726f76652066726f6d20746865207a65726f2061646460008201527f7265737300000000000000000000000000000000000000000000000000000000602082015250565b600061368a6024836129d3565b91506136958261362e565b604082019050919050565b600060208201905081810360008301526136b98161367d565b9050919050565b7f42455032303a20617070726f766520746f20746865207a65726f20616464726560008201527f7373000000000000000000000000000000000000000000000000000000000000602082015250565b600061371c6022836129d3565b9150613727826136c0565b604082019050919050565b6000602082019050818103600083015261374b8161370f565b9050919050565b7f44656d6f5f4469766964656e645f547261636b65723a204e6f207472616e736660008201527f65727320616c6c6f776564000000000000000000000000000000000000000000602082015250565b60006137ae602b836129d3565b91506137b982613752565b604082019050919050565b600060208201905081810360008301526137dd816137a1565b9050919050565b60006137ef82612cca565b91506137fa83612cca565b9250817f7fffffffffffffffffffffffffffffffffffffffffffffffffffffffffffffff0383136000831215161561383557613834612ef1565b5b817f800000000000000000000000000000000000000000000000000000000000000003831260008312161561386d5761386c612ef1565b5b828201905092915050565b600061388382612ae6565b915061388e83612ae6565b9250828210156138a1576138a0612ef1565b5b828203905092915050565b600081905092915050565b50565b60006138c76000836138ac565b91506138d2826138b7565b600082019050919050565b60006138e8826138ba565b9150819050919050565b60006138fd82612cca565b915061390883612cca565b9250827f80000000000000000000000000000000000000000000000000000000000000000182126000841215161561394357613942612ef1565b5b827f7fffffffffffffffffffffffffffffffffffffffffffffffffffffffffffffff01821360008412161561397b5761397a612ef1565b5b828203905092915050565b7f42455032303a206d696e7420746f20746865207a65726f206164647265737300600082015250565b60006139bc601f836129d3565b91506139c782613986565b602082019050919050565b600060208201905081810360008301526139eb816139af565b9050919050565b7f42455032303a206275726e2066726f6d20746865207a65726f2061646472657360008201527f7300000000000000000000000000000000000000000000000000000000000000602082015250565b6000613a4e6021836129d3565b9150613a59826139f2565b604082019050919050565b60006020820190508181036000830152613a7d81613a41565b905091905056fe42455032303a207472616e7366657220616d6f756e74206578636565647320616c6c6f77616e636542455032303a2064656372656173656420616c6c6f77616e63652062656c6f77207a65726f42455032303a206275726e20616d6f756e7420657863656564732062616c616e6365a264697066735822122016e3eab5accb92dc94bc706ff7837391e6b4c25bd8592746d93cbeaab7a9d94664736f6c634300080b0033",
  "immutableReferences": {
    "376": [
      {
        "length": 32,
        "start": 7046
      },
      {
        "length": 32,
        "start": 9941
      },
      {
        "length": 32,
        "start": 10361
      }
    ],
    "378": [
      {
        "length": 32,
        "start": 7377
      },
      {
        "length": 32,
        "start": 10609
      }
    ],
    "380": [
      {
        "length": 32,
        "start": 5782
      },
      {
        "length": 32,
        "start": 9974
      },
      {
        "length": 32,
        "start": 10032
      },
      {
        "length": 32,
        "start": 10394
      }
    ],
    "382": [
      {
        "length": 32,
        "start": 6538
      },
      {
        "length": 32,
        "start": 10837
      }
    ],
    "384": [
      {
        "length": 32,
        "start": 4679
      },
      {
        "length": 32,
        "start": 10980
      }
    ],
    "386": [
      {
        "length": 32,
        "start": 7120
      }
    ],
    "388": [
      {
        "length": 32,
        "start": 4643
      }
    ]
  },
  "source": "//SPDX-License-Identifier: MIT\n\npragma solidity ^0.8.0;\n\nimport \"./DemoToken.sol\";\n\ncontract Democracy is DemoToken{\n    \n\n}",
  "sourcePath": "/Users/nolannbiron/Documents/PROJETS/solidity/democracy/contracts/Democracy.sol",
  "compiler": {
    "name": "solc",
    "version": "0.8.11+commit.d7f03943.Emscripten.clang"
  },
  "schemaVersion": "3.4.4",
  "updatedAt": "2022-01-03T11:03:37.667Z",
  "devdoc": {
    "kind": "dev",
    "methods": {
      "allowance(address,address)": {
        "details": "See {IBEP20-allowance}."
      },
      "approve(address,uint256)": {
        "details": "See {IBEP20-approve}. Requirements: - `spender` cannot be the zero address."
      },
      "balanceOf(address)": {
        "details": "See {IBEP20-balanceOf}."
      },
      "decimals()": {
        "details": "Returns the number of decimals used to get its user representation. For example, if `decimals` equals `2`, a balance of `505` tokens should be displayed to a user as `5,05` (`505 / 10 ** 2`). Tokens usually opt for a value of 18, imitating the relationship between Ether and Wei. This is the value {BEP20} uses, unless this function is overridden; NOTE: This information is only used for _display_ purposes: it in no way affects any of the arithmetic of the contract, including {IBEP20-balanceOf} and {IBEP20-transfer}."
      },
      "decreaseAllowance(address,uint256)": {
        "details": "Atomically decreases the allowance granted to `spender` by the caller. This is an alternative to {approve} that can be used as a mitigation for problems described in {IBEP20-approve}. Emits an {Approval} event indicating the updated allowance. Requirements: - `spender` cannot be the zero address. - `spender` must have allowance for the caller of at least `subtractedValue`."
      },
      "increaseAllowance(address,uint256)": {
        "details": "Atomically increases the allowance granted to `spender` by the caller. This is an alternative to {approve} that can be used as a mitigation for problems described in {IBEP20-approve}. Emits an {Approval} event indicating the updated allowance. Requirements: - `spender` cannot be the zero address."
      },
      "name()": {
        "details": "Returns the name of the token."
      },
      "regulator()": {
        "details": "Returns the address of the current owner."
      },
      "renounceOwnership()": {
        "details": "Leaves the contract without owner. It will not be possible to call `onlyOwner` functions anymore. Can only be called by the current owner. NOTE: Renouncing ownership will leave the contract without an owner, thereby removing any functionality that is only available to the owner."
      },
      "symbol()": {
        "details": "Returns the symbol of the token, usually a shorter version of the name."
      },
      "totalSupply()": {
        "details": "See {IBEP20-totalSupply}."
      },
      "transfer(address,uint256)": {
        "details": "See {IBEP20-transfer}. Requirements: - `recipient` cannot be the zero address. - the caller must have a balance of at least `amount`."
      },
      "transferFrom(address,address,uint256)": {
        "details": "See {IBEP20-transferFrom}. Emits an {Approval} event indicating the updated allowance. This is not required by the EIP. See the note at the beginning of {BEP20}. Requirements: - `sender` and `recipient` cannot be the zero address. - `sender` must have a balance of at least `amount`. - the caller must have allowance for ``sender``'s tokens of at least `amount`."
      },
      "transferOwnership(address)": {
        "details": "Transfers ownership of the contract to a new account (`newOwner`). Can only be called by the current owner."
      }
    },
    "version": 1
  },
  "userdoc": {
    "kind": "user",
    "methods": {},
    "version": 1
  }
}