{
  "contractName": "DemoTokenDividendTracker",
  "abi": [
    {
      "inputs": [],
      "stateMutability": "nonpayable",
      "type": "constructor"
    },
    {
      "anonymous": false,
      "inputs": [
        {
          "indexed": true,
          "internalType": "address",
          "name": "owner",
          "type": "address"
        },
        {
          "indexed": true,
          "internalType": "address",
          "name": "spender",
          "type": "address"
        },
        {
          "indexed": false,
          "internalType": "uint256",
          "name": "value",
          "type": "uint256"
        }
      ],
      "name": "Approval",
      "type": "event"
    },
    {
      "anonymous": false,
      "inputs": [
        {
          "indexed": true,
          "internalType": "address",
          "name": "account",
          "type": "address"
        },
        {
          "indexed": false,
          "internalType": "uint256",
          "name": "amount",
          "type": "uint256"
        },
        {
          "indexed": true,
          "internalType": "bool",
          "name": "automatic",
          "type": "bool"
        }
      ],
      "name": "Claim",
      "type": "event"
    },
    {
      "anonymous": false,
      "inputs": [
        {
          "indexed": true,
          "internalType": "uint256",
          "name": "newValue",
          "type": "uint256"
        },
        {
          "indexed": true,
          "internalType": "uint256",
          "name": "oldValue",
          "type": "uint256"
        }
      ],
      "name": "ClaimWaitUpdated",
      "type": "event"
    },
    {
      "anonymous": false,
      "inputs": [
        {
          "indexed": true,
          "internalType": "address",
          "name": "to",
          "type": "address"
        },
        {
          "indexed": false,
          "internalType": "uint256",
          "name": "weiAmount",
          "type": "uint256"
        }
      ],
      "name": "DividendWithdrawn",
      "type": "event"
    },
    {
      "anonymous": false,
      "inputs": [
        {
          "indexed": true,
          "internalType": "address",
          "name": "from",
          "type": "address"
        },
        {
          "indexed": false,
          "internalType": "uint256",
          "name": "weiAmount",
          "type": "uint256"
        }
      ],
      "name": "DividendsDistributed",
      "type": "event"
    },
    {
      "anonymous": false,
      "inputs": [
        {
          "indexed": true,
          "internalType": "address",
          "name": "account",
          "type": "address"
        }
      ],
      "name": "ExcludeFromDividends",
      "type": "event"
    },
    {
      "anonymous": false,
      "inputs": [
        {
          "indexed": true,
          "internalType": "address",
          "name": "previousOwner",
          "type": "address"
        },
        {
          "indexed": true,
          "internalType": "address",
          "name": "newOwner",
          "type": "address"
        }
      ],
      "name": "OwnershipTransferred",
      "type": "event"
    },
    {
      "anonymous": false,
      "inputs": [
        {
          "indexed": true,
          "internalType": "address",
          "name": "from",
          "type": "address"
        },
        {
          "indexed": true,
          "internalType": "address",
          "name": "to",
          "type": "address"
        },
        {
          "indexed": false,
          "internalType": "uint256",
          "name": "value",
          "type": "uint256"
        }
      ],
      "name": "Transfer",
      "type": "event"
    },
    {
      "inputs": [
        {
          "internalType": "address",
          "name": "_owner",
          "type": "address"
        }
      ],
      "name": "accumulativeDividendOf",
      "outputs": [
        {
          "internalType": "uint256",
          "name": "",
          "type": "uint256"
        }
      ],
      "stateMutability": "view",
      "type": "function"
    },
    {
      "inputs": [
        {
          "internalType": "address",
          "name": "owner",
          "type": "address"
        },
        {
          "internalType": "address",
          "name": "spender",
          "type": "address"
        }
      ],
      "name": "allowance",
      "outputs": [
        {
          "internalType": "uint256",
          "name": "",
          "type": "uint256"
        }
      ],
      "stateMutability": "view",
      "type": "function"
    },
    {
      "inputs": [
        {
          "internalType": "address",
          "name": "spender",
          "type": "address"
        },
        {
          "internalType": "uint256",
          "name": "amount",
          "type": "uint256"
        }
      ],
      "name": "approve",
      "outputs": [
        {
          "internalType": "bool",
          "name": "",
          "type": "bool"
        }
      ],
      "stateMutability": "nonpayable",
      "type": "function"
    },
    {
      "inputs": [
        {
          "internalType": "address",
          "name": "account",
          "type": "address"
        }
      ],
      "name": "balanceOf",
      "outputs": [
        {
          "internalType": "uint256",
          "name": "",
          "type": "uint256"
        }
      ],
      "stateMutability": "view",
      "type": "function"
    },
    {
      "inputs": [],
      "name": "claimWait",
      "outputs": [
        {
          "internalType": "uint256",
          "name": "",
          "type": "uint256"
        }
      ],
      "stateMutability": "view",
      "type": "function"
    },
    {
      "inputs": [],
      "name": "decimals",
      "outputs": [
        {
          "internalType": "uint8",
          "name": "",
          "type": "uint8"
        }
      ],
      "stateMutability": "view",
      "type": "function"
    },
    {
      "inputs": [
        {
          "internalType": "address",
          "name": "spender",
          "type": "address"
        },
        {
          "internalType": "uint256",
          "name": "subtractedValue",
          "type": "uint256"
        }
      ],
      "name": "decreaseAllowance",
      "outputs": [
        {
          "internalType": "bool",
          "name": "",
          "type": "bool"
        }
      ],
      "stateMutability": "nonpayable",
      "type": "function"
    },
    {
      "inputs": [],
      "name": "distributeDividends",
      "outputs": [],
      "stateMutability": "payable",
      "type": "function"
    },
    {
      "inputs": [
        {
          "internalType": "address",
          "name": "_owner",
          "type": "address"
        }
      ],
      "name": "dividendOf",
      "outputs": [
        {
          "internalType": "uint256",
          "name": "",
          "type": "uint256"
        }
      ],
      "stateMutability": "view",
      "type": "function"
    },
    {
      "inputs": [
        {
          "internalType": "address",
          "name": "",
          "type": "address"
        }
      ],
      "name": "excludedFromDividends",
      "outputs": [
        {
          "internalType": "bool",
          "name": "",
          "type": "bool"
        }
      ],
      "stateMutability": "view",
      "type": "function"
    },
    {
      "inputs": [
        {
          "internalType": "address",
          "name": "spender",
          "type": "address"
        },
        {
          "internalType": "uint256",
          "name": "addedValue",
          "type": "uint256"
        }
      ],
      "name": "increaseAllowance",
      "outputs": [
        {
          "internalType": "bool",
          "name": "",
          "type": "bool"
        }
      ],
      "stateMutability": "nonpayable",
      "type": "function"
    },
    {
      "inputs": [
        {
          "internalType": "address",
          "name": "",
          "type": "address"
        }
      ],
      "name": "lastClaimTimes",
      "outputs": [
        {
          "internalType": "uint256",
          "name": "",
          "type": "uint256"
        }
      ],
      "stateMutability": "view",
      "type": "function"
    },
    {
      "inputs": [],
      "name": "lastProcessedIndex",
      "outputs": [
        {
          "internalType": "uint256",
          "name": "",
          "type": "uint256"
        }
      ],
      "stateMutability": "view",
      "type": "function"
    },
    {
      "inputs": [],
      "name": "minimumTokenBalanceForDividends",
      "outputs": [
        {
          "internalType": "uint256",
          "name": "",
          "type": "uint256"
        }
      ],
      "stateMutability": "view",
      "type": "function"
    },
    {
      "inputs": [],
      "name": "name",
      "outputs": [
        {
          "internalType": "string",
          "name": "",
          "type": "string"
        }
      ],
      "stateMutability": "view",
      "type": "function"
    },
    {
      "inputs": [],
      "name": "president",
      "outputs": [
        {
          "internalType": "address",
          "name": "",
          "type": "address"
        }
      ],
      "stateMutability": "view",
      "type": "function"
    },
    {
      "inputs": [],
      "name": "regulator",
      "outputs": [
        {
          "internalType": "address",
          "name": "",
          "type": "address"
        }
      ],
      "stateMutability": "view",
      "type": "function"
    },
    {
      "inputs": [],
      "name": "renounceOwnership",
      "outputs": [],
      "stateMutability": "nonpayable",
      "type": "function"
    },
    {
      "inputs": [],
      "name": "symbol",
      "outputs": [
        {
          "internalType": "string",
          "name": "",
          "type": "string"
        }
      ],
      "stateMutability": "view",
      "type": "function"
    },
    {
      "inputs": [],
      "name": "totalDividendsDistributed",
      "outputs": [
        {
          "internalType": "uint256",
          "name": "",
          "type": "uint256"
        }
      ],
      "stateMutability": "view",
      "type": "function"
    },
    {
      "inputs": [],
      "name": "totalSupply",
      "outputs": [
        {
          "internalType": "uint256",
          "name": "",
          "type": "uint256"
        }
      ],
      "stateMutability": "view",
      "type": "function"
    },
    {
      "inputs": [
        {
          "internalType": "address",
          "name": "recipient",
          "type": "address"
        },
        {
          "internalType": "uint256",
          "name": "amount",
          "type": "uint256"
        }
      ],
      "name": "transfer",
      "outputs": [
        {
          "internalType": "bool",
          "name": "",
          "type": "bool"
        }
      ],
      "stateMutability": "nonpayable",
      "type": "function"
    },
    {
      "inputs": [
        {
          "internalType": "address",
          "name": "sender",
          "type": "address"
        },
        {
          "internalType": "address",
          "name": "recipient",
          "type": "address"
        },
        {
          "internalType": "uint256",
          "name": "amount",
          "type": "uint256"
        }
      ],
      "name": "transferFrom",
      "outputs": [
        {
          "internalType": "bool",
          "name": "",
          "type": "bool"
        }
      ],
      "stateMutability": "nonpayable",
      "type": "function"
    },
    {
      "inputs": [
        {
          "internalType": "address",
          "name": "newRegulator",
          "type": "address"
        }
      ],
      "name": "transferOwnership",
      "outputs": [],
      "stateMutability": "nonpayable",
      "type": "function"
    },
    {
      "inputs": [
        {
          "internalType": "address",
          "name": "_owner",
          "type": "address"
        }
      ],
      "name": "withdrawableDividendOf",
      "outputs": [
        {
          "internalType": "uint256",
          "name": "",
          "type": "uint256"
        }
      ],
      "stateMutability": "view",
      "type": "function"
    },
    {
      "inputs": [
        {
          "internalType": "address",
          "name": "_owner",
          "type": "address"
        }
      ],
      "name": "withdrawnDividendOf",
      "outputs": [
        {
          "internalType": "uint256",
          "name": "",
          "type": "uint256"
        }
      ],
      "stateMutability": "view",
      "type": "function"
    },
    {
      "stateMutability": "payable",
      "type": "receive"
    },
    {
      "inputs": [],
      "name": "withdrawDividend",
      "outputs": [],
      "stateMutability": "pure",
      "type": "function"
    },
    {
      "inputs": [
        {
          "internalType": "address",
          "name": "account",
          "type": "address"
        }
      ],
      "name": "excludeFromDividends",
      "outputs": [],
      "stateMutability": "nonpayable",
      "type": "function"
    },
    {
      "inputs": [
        {
          "internalType": "uint256",
          "name": "newClaimWait",
          "type": "uint256"
        }
      ],
      "name": "updateClaimWait",
      "outputs": [],
      "stateMutability": "nonpayable",
      "type": "function"
    },
    {
      "inputs": [],
      "name": "getLastProcessedIndex",
      "outputs": [
        {
          "internalType": "uint256",
          "name": "",
          "type": "uint256"
        }
      ],
      "stateMutability": "view",
      "type": "function"
    },
    {
      "inputs": [],
      "name": "getNumberOfTokenHolders",
      "outputs": [
        {
          "internalType": "uint256",
          "name": "",
          "type": "uint256"
        }
      ],
      "stateMutability": "view",
      "type": "function"
    },
    {
      "inputs": [
        {
          "internalType": "address",
          "name": "_account",
          "type": "address"
        }
      ],
      "name": "getAccount",
      "outputs": [
        {
          "internalType": "address",
          "name": "account",
          "type": "address"
        },
        {
          "internalType": "int256",
          "name": "index",
          "type": "int256"
        },
        {
          "internalType": "int256",
          "name": "iterationsUntilProcessed",
          "type": "int256"
        },
        {
          "internalType": "uint256",
          "name": "withdrawableDividends",
          "type": "uint256"
        },
        {
          "internalType": "uint256",
          "name": "totalDividends",
          "type": "uint256"
        },
        {
          "internalType": "uint256",
          "name": "lastClaimTime",
          "type": "uint256"
        },
        {
          "internalType": "uint256",
          "name": "nextClaimTime",
          "type": "uint256"
        },
        {
          "internalType": "uint256",
          "name": "secondsUntilAutoClaimAvailable",
          "type": "uint256"
        }
      ],
      "stateMutability": "view",
      "type": "function"
    },
    {
      "inputs": [
        {
          "internalType": "uint256",
          "name": "index",
          "type": "uint256"
        }
      ],
      "name": "getAccountAtIndex",
      "outputs": [
        {
          "internalType": "address",
          "name": "",
          "type": "address"
        },
        {
          "internalType": "int256",
          "name": "",
          "type": "int256"
        },
        {
          "internalType": "int256",
          "name": "",
          "type": "int256"
        },
        {
          "internalType": "uint256",
          "name": "",
          "type": "uint256"
        },
        {
          "internalType": "uint256",
          "name": "",
          "type": "uint256"
        },
        {
          "internalType": "uint256",
          "name": "",
          "type": "uint256"
        },
        {
          "internalType": "uint256",
          "name": "",
          "type": "uint256"
        },
        {
          "internalType": "uint256",
          "name": "",
          "type": "uint256"
        }
      ],
      "stateMutability": "view",
      "type": "function"
    },
    {
      "inputs": [
        {
          "internalType": "address payable",
          "name": "account",
          "type": "address"
        },
        {
          "internalType": "uint256",
          "name": "newBalance",
          "type": "uint256"
        }
      ],
      "name": "setBalance",
      "outputs": [],
      "stateMutability": "nonpayable",
      "type": "function"
    },
    {
      "inputs": [
        {
          "internalType": "uint256",
          "name": "gas",
          "type": "uint256"
        }
      ],
      "name": "process",
      "outputs": [
        {
          "internalType": "uint256",
          "name": "",
          "type": "uint256"
        },
        {
          "internalType": "uint256",
          "name": "",
          "type": "uint256"
        },
        {
          "internalType": "uint256",
          "name": "",
          "type": "uint256"
        }
      ],
      "stateMutability": "nonpayable",
      "type": "function"
    },
    {
      "inputs": [
        {
          "internalType": "address payable",
          "name": "account",
          "type": "address"
        },
        {
          "internalType": "bool",
          "name": "automatic",
          "type": "bool"
        }
      ],
      "name": "processAccount",
      "outputs": [
        {
          "internalType": "bool",
          "name": "",
          "type": "bool"
        }
      ],
      "stateMutability": "nonpayable",
      "type": "function"
    }
  ],
  "bytecode": "0x60a06040523480156200001157600080fd5b506040518060400160405280601581526020017f44656d6f5f4469766964656e645f547261636b657200000000000000000000008152506040518060400160405280601581526020017f44656d6f5f4469766964656e645f547261636b65720000000000000000000000815250600982828282600390805190602001906200009b92919062000232565b508160049080519060200190620000b492919062000232565b5080600560006101000a81548160ff021916908360ff160217905550505050505050620000f6620000ea6200016460201b60201c565b6200016c60201b60201c565b620001066200016460201b60201c565b600b60006101000a81548173ffffffffffffffffffffffffffffffffffffffff021916908373ffffffffffffffffffffffffffffffffffffffff16021790555061025860138190555066038d7ea4c680006080818152505062000347565b600033905090565b6000600a60009054906101000a900473ffffffffffffffffffffffffffffffffffffffff16905081600a60006101000a81548173ffffffffffffffffffffffffffffffffffffffff021916908373ffffffffffffffffffffffffffffffffffffffff1602179055508173ffffffffffffffffffffffffffffffffffffffff168173ffffffffffffffffffffffffffffffffffffffff167f8be0079c531659141344cd1fd0a4f28419497f9722a3daafe3b4186f6b6457e060405160405180910390a35050565b828054620002409062000311565b90600052602060002090601f016020900481019282620002645760008555620002b0565b82601f106200027f57805160ff1916838001178555620002b0565b82800160010185558215620002b0579182015b82811115620002af57825182559160200191906001019062000292565b5b509050620002bf9190620002c3565b5090565b5b80821115620002de576000816000905550600101620002c4565b5090565b7f4e487b7100000000000000000000000000000000000000000000000000000000600052602260045260246000fd5b600060028204905060018216806200032a57607f821691505b60208210811415620003415762000340620002e2565b5b50919050565b608051613b296200036a6000396000818161156901526117110152613b296000f3fe6080604052600436106102135760003560e01c8063715018a611610118578063be10b614116100a0578063e7841ec01161006f578063e7841ec014610824578063e98030c71461084f578063f2fde38b14610878578063fbcbc0f1146108a1578063ffb2c479146108e557610222565b8063be10b61414610768578063dd62ed3e14610793578063dd8fee14146107d0578063e30443bc146107fb57610222565b8063a457c2d7116100e7578063a457c2d714610637578063a8b9d24014610674578063a9059cbb146106b1578063aafd847a146106ee578063bc4c4b371461072b57610222565b8063715018a61461058d57806385a6b3ae146105a457806391b89fba146105cf57806395d89b411461060c57610222565b8063313ce5671161019b5780634e7b827f1161016a5780634e7b827f1461048d5780635183d6fd146104ca5780636a4740021461050e5780636f2789ec1461052557806370a082311461055057610222565b8063313ce567146103d157806331e79db0146103fc578063324a137614610425578063395093511461045057610222565b806318160ddd116101e257806318160ddd146102c4578063226cfa3d146102ef57806323b872dd1461032c57806327ce0147146103695780633009a609146103a657610222565b806303c833021461022757806306fdde0314610231578063095ea7b31461025c57806309bbedde1461029957610222565b3661022257610220610924565b005b600080fd5b61022f610924565b005b34801561023d57600080fd5b506102466109fd565b6040516102539190612a61565b60405180910390f35b34801561026857600080fd5b50610283600480360381019061027e9190612b1c565b610a8f565b6040516102909190612b77565b60405180910390f35b3480156102a557600080fd5b506102ae610aad565b6040516102bb9190612ba1565b60405180910390f35b3480156102d057600080fd5b506102d9610abd565b6040516102e69190612ba1565b60405180910390f35b3480156102fb57600080fd5b5061031660048036038101906103119190612bbc565b610ac7565b6040516103239190612ba1565b60405180910390f35b34801561033857600080fd5b50610353600480360381019061034e9190612be9565b610adf565b6040516103609190612b77565b60405180910390f35b34801561037557600080fd5b50610390600480360381019061038b9190612bbc565b610bb8565b60405161039d9190612ba1565b60405180910390f35b3480156103b257600080fd5b506103bb610c5b565b6040516103c89190612ba1565b60405180910390f35b3480156103dd57600080fd5b506103e6610c61565b6040516103f39190612c58565b60405180910390f35b34801561040857600080fd5b50610423600480360381019061041e9190612bbc565b610c78565b005b34801561043157600080fd5b5061043a610e60565b6040516104479190612c82565b60405180910390f35b34801561045c57600080fd5b5061047760048036038101906104729190612b1c565b610e86565b6040516104849190612b77565b60405180910390f35b34801561049957600080fd5b506104b460048036038101906104af9190612bbc565b610f39565b6040516104c19190612b77565b60405180910390f35b3480156104d657600080fd5b506104f160048036038101906104ec9190612c9d565b610f59565b604051610505989796959493929190612ce3565b60405180910390f35b34801561051a57600080fd5b506105236110ce565b005b34801561053157600080fd5b5061053a611111565b6040516105479190612ba1565b60405180910390f35b34801561055c57600080fd5b5061057760048036038101906105729190612bbc565b611117565b6040516105849190612ba1565b60405180910390f35b34801561059957600080fd5b506105a261115f565b005b3480156105b057600080fd5b506105b96111e7565b6040516105c69190612ba1565b60405180910390f35b3480156105db57600080fd5b506105f660048036038101906105f19190612bbc565b6111ed565b6040516106039190612ba1565b60405180910390f35b34801561061857600080fd5b506106216111ff565b60405161062e9190612a61565b60405180910390f35b34801561064357600080fd5b5061065e60048036038101906106599190612b1c565b611291565b60405161066b9190612b77565b60405180910390f35b34801561068057600080fd5b5061069b60048036038101906106969190612bbc565b61135e565b6040516106a89190612ba1565b60405180910390f35b3480156106bd57600080fd5b506106d860048036038101906106d39190612b1c565b6113c1565b6040516106e59190612b77565b60405180910390f35b3480156106fa57600080fd5b5061071560048036038101906107109190612bbc565b6113df565b6040516107229190612ba1565b60405180910390f35b34801561073757600080fd5b50610752600480360381019061074d9190612dcb565b611428565b60405161075f9190612b77565b60405180910390f35b34801561077457600080fd5b5061077d611567565b60405161078a9190612ba1565b60405180910390f35b34801561079f57600080fd5b506107ba60048036038101906107b59190612e0b565b61158b565b6040516107c79190612ba1565b60405180910390f35b3480156107dc57600080fd5b506107e5611612565b6040516107f29190612c82565b60405180910390f35b34801561080757600080fd5b50610822600480360381019061081d9190612e4b565b61163c565b005b34801561083057600080fd5b5061083961183c565b6040516108469190612ba1565b60405180910390f35b34801561085b57600080fd5b5061087660048036038101906108719190612c9d565b611846565b005b34801561088457600080fd5b5061089f600480360381019061089a9190612bbc565b611995565b005b3480156108ad57600080fd5b506108c860048036038101906108c39190612bbc565b611a8d565b6040516108dc989796959493929190612ce3565b60405180910390f35b3480156108f157600080fd5b5061090c60048036038101906109079190612c9d565b611c6c565b60405161091b93929190612e8b565b60405180910390f35b600061092e610abd565b1161093857600080fd5b60003411156109fb5761098b61094c610abd565b61097070010000000000000000000000000000000034611dfe90919063ffffffff16565b61097a9190612f20565b600654611e1490919063ffffffff16565b6006819055503373ffffffffffffffffffffffffffffffffffffffff167fa493a9229478c3fcd73f66d2cdeb7f94fd0f341da924d1054236d78454116511346040516109d79190612ba1565b60405180910390a26109f434600954611e1490919063ffffffff16565b6009819055505b565b606060038054610a0c90612f80565b80601f0160208091040260200160405190810160405280929190818152602001828054610a3890612f80565b8015610a855780601f10610a5a57610100808354040283529160200191610a85565b820191906000526020600020905b815481529060010190602001808311610a6857829003601f168201915b5050505050905090565b6000610aa3610a9c611e2a565b8484611e32565b6001905092915050565b6000600c60000180549050905090565b6000600254905090565b60126020528060005260406000206000915090505481565b6000610aec848484611ffd565b610bad84610af8611e2a565b610ba885604051806060016040528060288152602001613a8560289139600160008b73ffffffffffffffffffffffffffffffffffffffff1673ffffffffffffffffffffffffffffffffffffffff1681526020019081526020016000206000610b5e611e2a565b73ffffffffffffffffffffffffffffffffffffffff1673ffffffffffffffffffffffffffffffffffffffff168152602001908152602001600020546120439092919063ffffffff16565b611e32565b600190509392505050565b6000700100000000000000000000000000000000610c4a610c45600760008673ffffffffffffffffffffffffffffffffffffffff1673ffffffffffffffffffffffffffffffffffffffff16815260200190815260200160002054610c37610c32610c2188611117565b600654611dfe90919063ffffffff16565b612098565b6120b590919063ffffffff16565b612100565b610c549190612f20565b9050919050565b60105481565b6000600560009054906101000a900460ff16905090565b610c80611e2a565b73ffffffffffffffffffffffffffffffffffffffff16610c9e611612565b73ffffffffffffffffffffffffffffffffffffffff1614610cf4576040517f08c379a0000000000000000000000000000000000000000000000000000000008152600401610ceb90612ffe565b60405180910390fd5b601160008273ffffffffffffffffffffffffffffffffffffffff1673ffffffffffffffffffffffffffffffffffffffff16815260200190815260200160002060009054906101000a900460ff1615610d4b57600080fd5b6001601160008373ffffffffffffffffffffffffffffffffffffffff1673ffffffffffffffffffffffffffffffffffffffff16815260200190815260200160002060006101000a81548160ff021916908315150217905550610dae816000612117565b600c73__IterableMapping_______________________634c60db9c9091836040518363ffffffff1660e01b8152600401610dea929190613034565b60006040518083038186803b158015610e0257600080fd5b505af4158015610e16573d6000803e3d6000fd5b505050508073ffffffffffffffffffffffffffffffffffffffff167fa878b31040b2e6d0a9a3d3361209db3908ba62014b0dca52adbaee451d128b2560405160405180910390a250565b600b60009054906101000a900473ffffffffffffffffffffffffffffffffffffffff1681565b6000610f2f610e93611e2a565b84610f2a8560016000610ea4611e2a565b73ffffffffffffffffffffffffffffffffffffffff1673ffffffffffffffffffffffffffffffffffffffff16815260200190815260200160002060008973ffffffffffffffffffffffffffffffffffffffff1673ffffffffffffffffffffffffffffffffffffffff16815260200190815260200160002054611e1490919063ffffffff16565b611e32565b6001905092915050565b60116020528060005260406000206000915054906101000a900460ff1681565b600080600080600080600080600c73__IterableMapping_______________________63deb3d89690916040518263ffffffff1660e01b8152600401610f9f919061305d565b602060405180830381865af4158015610fbc573d6000803e3d6000fd5b505050506040513d601f19601f82011682018060405250810190610fe0919061308d565b89106110275760007fffffffffffffffffffffffffffffffffffffffffffffffffffffffffffffffff806000806000806000975097509750975097509750975097506110c3565b6000600c73__IterableMapping_______________________63d1aa9e7e90918c6040518363ffffffff1660e01b81526004016110659291906130c9565b602060405180830381865af4158015611082573d6000803e3d6000fd5b505050506040513d601f19601f820116820180604052508101906110a69190613107565b90506110b181611a8d565b98509850985098509850985098509850505b919395975091939597565b600061110f576040517f08c379a0000000000000000000000000000000000000000000000000000000008152600401611106906131f2565b60405180910390fd5b565b60135481565b60008060008373ffffffffffffffffffffffffffffffffffffffff1673ffffffffffffffffffffffffffffffffffffffff168152602001908152602001600020549050919050565b611167611e2a565b73ffffffffffffffffffffffffffffffffffffffff16611185611612565b73ffffffffffffffffffffffffffffffffffffffff16146111db576040517f08c379a00000000000000000000000000000000000000000000000000000000081526004016111d290612ffe565b60405180910390fd5b6111e56000612184565b565b60095481565b60006111f88261135e565b9050919050565b60606004805461120e90612f80565b80601f016020809104026020016040519081016040528092919081815260200182805461123a90612f80565b80156112875780601f1061125c57610100808354040283529160200191611287565b820191906000526020600020905b81548152906001019060200180831161126a57829003601f168201915b5050505050905090565b600061135461129e611e2a565b8461134f85604051806060016040528060258152602001613aad60259139600160006112c8611e2a565b73ffffffffffffffffffffffffffffffffffffffff1673ffffffffffffffffffffffffffffffffffffffff16815260200190815260200160002060008a73ffffffffffffffffffffffffffffffffffffffff1673ffffffffffffffffffffffffffffffffffffffff168152602001908152602001600020546120439092919063ffffffff16565b611e32565b6001905092915050565b60006113ba600860008473ffffffffffffffffffffffffffffffffffffffff1673ffffffffffffffffffffffffffffffffffffffff168152602001908152602001600020546113ac84610bb8565b61224a90919063ffffffff16565b9050919050565b60006113d56113ce611e2a565b8484611ffd565b6001905092915050565b6000600860008373ffffffffffffffffffffffffffffffffffffffff1673ffffffffffffffffffffffffffffffffffffffff168152602001908152602001600020549050919050565b6000611432611e2a565b73ffffffffffffffffffffffffffffffffffffffff16611450611612565b73ffffffffffffffffffffffffffffffffffffffff16146114a6576040517f08c379a000000000000000000000000000000000000000000000000000000000815260040161149d90612ffe565b60405180910390fd5b60006114b184612260565b9050600081111561155b5742601260008673ffffffffffffffffffffffffffffffffffffffff1673ffffffffffffffffffffffffffffffffffffffff168152602001908152602001600020819055508215158473ffffffffffffffffffffffffffffffffffffffff167fa2c38e2d2fb7e3e1912d937fd1ca11ed6d51864dee4cfa7a7bf02becd7acf092836040516115499190612ba1565b60405180910390a36001915050611561565b60009150505b92915050565b7f000000000000000000000000000000000000000000000000000000000000000081565b6000600160008473ffffffffffffffffffffffffffffffffffffffff1673ffffffffffffffffffffffffffffffffffffffff16815260200190815260200160002060008373ffffffffffffffffffffffffffffffffffffffff1673ffffffffffffffffffffffffffffffffffffffff16815260200190815260200160002054905092915050565b6000600a60009054906101000a900473ffffffffffffffffffffffffffffffffffffffff16905090565b611644611e2a565b73ffffffffffffffffffffffffffffffffffffffff16611662611612565b73ffffffffffffffffffffffffffffffffffffffff16146116b8576040517f08c379a00000000000000000000000000000000000000000000000000000000081526004016116af90612ffe565b60405180910390fd5b601160008373ffffffffffffffffffffffffffffffffffffffff1673ffffffffffffffffffffffffffffffffffffffff16815260200190815260200160002060009054906101000a900460ff161561170f57611838565b7f000000000000000000000000000000000000000000000000000000000000000081106117b3576117408282612117565b600c73__IterableMapping_______________________63bc2b405c909184846040518463ffffffff1660e01b815260040161177e93929190613271565b60006040518083038186803b15801561179657600080fd5b505af41580156117aa573d6000803e3d6000fd5b5050505061182b565b6117be826000612117565b600c73__IterableMapping_______________________634c60db9c9091846040518363ffffffff1660e01b81526004016117fa9291906132a8565b60006040518083038186803b15801561181257600080fd5b505af4158015611826573d6000803e3d6000fd5b505050505b611836826001611428565b505b5050565b6000601054905090565b61184e611e2a565b73ffffffffffffffffffffffffffffffffffffffff1661186c611612565b73ffffffffffffffffffffffffffffffffffffffff16146118c2576040517f08c379a00000000000000000000000000000000000000000000000000000000081526004016118b990612ffe565b60405180910390fd5b610e1081101580156118d75750620151808111155b611916576040517f08c379a000000000000000000000000000000000000000000000000000000000815260040161190d90613369565b60405180910390fd5b60135481141561195b576040517f08c379a0000000000000000000000000000000000000000000000000000000008152600401611952906133fb565b60405180910390fd5b601354817f474ea64804364a1e29a4487ddb63c3342a2dd826ccd8acf48825e680a0e6f20f60405160405180910390a38060138190555050565b61199d611e2a565b73ffffffffffffffffffffffffffffffffffffffff166119bb611612565b73ffffffffffffffffffffffffffffffffffffffff1614611a11576040517f08c379a0000000000000000000000000000000000000000000000000000000008152600401611a0890612ffe565b60405180910390fd5b600073ffffffffffffffffffffffffffffffffffffffff168173ffffffffffffffffffffffffffffffffffffffff161415611a81576040517f08c379a0000000000000000000000000000000000000000000000000000000008152600401611a789061348d565b60405180910390fd5b611a8a81612184565b50565b600080600080600080600080889750600c73__IterableMapping_______________________6317e142d190918a6040518363ffffffff1660e01b8152600401611ad8929190613034565b602060405180830381865af4158015611af5573d6000803e3d6000fd5b505050506040513d601f19601f82011682018060405250810190611b1991906134d9565b96507fffffffffffffffffffffffffffffffffffffffffffffffffffffffffffffffff955060008712611bbe57601054871115611b6c57611b656010548861248590919063ffffffff16565b9550611bbd565b6000601054600c6000018054905011611b86576000611ba4565b611ba3601054600c6000018054905061224a90919063ffffffff16565b5b9050611bb981896120b590919063ffffffff16565b9650505b5b611bc78861135e565b9450611bd288610bb8565b9350601260008973ffffffffffffffffffffffffffffffffffffffff1673ffffffffffffffffffffffffffffffffffffffff16815260200190815260200160002054925060008311611c25576000611c3b565b611c3a60135484611e1490919063ffffffff16565b5b9150428211611c4b576000611c5f565b611c5e428361224a90919063ffffffff16565b5b9050919395975091939597565b600080600080600c6000018054905090506000811415611c985760008060105493509350935050611df7565b600060105490506000805a90506000805b8984108015611cb757508582105b15611dde578480611cc790613506565b955050600c600001805490508510611cde57600094505b6000600c6000018681548110611cf757611cf661354f565b5b9060005260206000200160009054906101000a900473ffffffffffffffffffffffffffffffffffffffff169050611d6c601260008373ffffffffffffffffffffffffffffffffffffffff1673ffffffffffffffffffffffffffffffffffffffff168152602001908152602001600020546124d0565b15611d9157611d7c816001611428565b15611d90578180611d8c90613506565b9250505b5b8280611d9c90613506565b93505060005a905080851115611dd457611dd1611dc2828761224a90919063ffffffff16565b87611e1490919063ffffffff16565b95505b8094505050611ca9565b8460108190555081816010549850985098505050505050505b9193909250565b60008183611e0c919061357e565b905092915050565b60008183611e2291906135d8565b905092915050565b600033905090565b600073ffffffffffffffffffffffffffffffffffffffff168373ffffffffffffffffffffffffffffffffffffffff161415611ea2576040517f08c379a0000000000000000000000000000000000000000000000000000000008152600401611e99906136a0565b60405180910390fd5b600073ffffffffffffffffffffffffffffffffffffffff168273ffffffffffffffffffffffffffffffffffffffff161415611f12576040517f08c379a0000000000000000000000000000000000000000000000000000000008152600401611f0990613732565b60405180910390fd5b80600160008573ffffffffffffffffffffffffffffffffffffffff1673ffffffffffffffffffffffffffffffffffffffff16815260200190815260200160002060008473ffffffffffffffffffffffffffffffffffffffff1673ffffffffffffffffffffffffffffffffffffffff168152602001908152602001600020819055508173ffffffffffffffffffffffffffffffffffffffff168373ffffffffffffffffffffffffffffffffffffffff167f8c5be1e5ebec7d5bd14f71427d1e84f3dd0314c0f7b2291e5b200ac8c7c3b92583604051611ff09190612ba1565b60405180910390a3505050565b600061203e576040517f08c379a0000000000000000000000000000000000000000000000000000000008152600401612035906137c4565b60405180910390fd5b505050565b600083831115829061208b576040517f08c379a00000000000000000000000000000000000000000000000000000000081526004016120829190612a61565b60405180910390fd5b5082840390509392505050565b60008082905060008112156120ac57600080fd5b80915050919050565b60008082846120c491906137e4565b9050600083121580156120d75750838112155b806120ed57506000831280156120ec57508381125b5b6120f657600080fd5b8091505092915050565b60008082121561210f57600080fd5b819050919050565b600061212283611117565b905080821115612153576000612141828461224a90919063ffffffff16565b905061214d8482612503565b5061217f565b8082101561217e576000612170838361224a90919063ffffffff16565b905061217c84826125c2565b505b5b505050565b6000600a60009054906101000a900473ffffffffffffffffffffffffffffffffffffffff16905081600a60006101000a81548173ffffffffffffffffffffffffffffffffffffffff021916908373ffffffffffffffffffffffffffffffffffffffff1602179055508173ffffffffffffffffffffffffffffffffffffffff168173ffffffffffffffffffffffffffffffffffffffff167f8be0079c531659141344cd1fd0a4f28419497f9722a3daafe3b4186f6b6457e060405160405180910390a35050565b600081836122589190613878565b905092915050565b60008061226c8361135e565b9050600081111561247a576122c981600860008673ffffffffffffffffffffffffffffffffffffffff1673ffffffffffffffffffffffffffffffffffffffff16815260200190815260200160002054611e1490919063ffffffff16565b600860008573ffffffffffffffffffffffffffffffffffffffff1673ffffffffffffffffffffffffffffffffffffffff168152602001908152602001600020819055508273ffffffffffffffffffffffffffffffffffffffff167fee503bee2bb6a87e57bc57db795f98137327401a0e7b7ce42e37926cc1a9ca4d826040516123529190612ba1565b60405180910390a260008373ffffffffffffffffffffffffffffffffffffffff1682610bb890604051612384906138dd565b600060405180830381858888f193505050503d80600081146123c2576040519150601f19603f3d011682016040523d82523d6000602084013e6123c7565b606091505b50509050806124705761242282600860008773ffffffffffffffffffffffffffffffffffffffff1673ffffffffffffffffffffffffffffffffffffffff1681526020019081526020016000205461224a90919063ffffffff16565b600860008673ffffffffffffffffffffffffffffffffffffffff1673ffffffffffffffffffffffffffffffffffffffff16815260200190815260200160002081905550600092505050612480565b8192505050612480565b60009150505b919050565b600080828461249491906138f2565b9050600083121580156124a75750838113155b806124bd57506000831280156124bc57508381135b5b6124c657600080fd5b8091505092915050565b6000428211156124e357600090506124fe565b6013546124f9834261224a90919063ffffffff16565b101590505b919050565b61250d8282612681565b61257b61252d61252883600654611dfe90919063ffffffff16565b612098565b600760008573ffffffffffffffffffffffffffffffffffffffff1673ffffffffffffffffffffffffffffffffffffffff1681526020019081526020016000205461248590919063ffffffff16565b600760008473ffffffffffffffffffffffffffffffffffffffff1673ffffffffffffffffffffffffffffffffffffffff168152602001908152602001600020819055505050565b6125cc8282612815565b61263a6125ec6125e783600654611dfe90919063ffffffff16565b612098565b600760008573ffffffffffffffffffffffffffffffffffffffff1673ffffffffffffffffffffffffffffffffffffffff168152602001908152602001600020546120b590919063ffffffff16565b600760008473ffffffffffffffffffffffffffffffffffffffff1673ffffffffffffffffffffffffffffffffffffffff168152602001908152602001600020819055505050565b600073ffffffffffffffffffffffffffffffffffffffff168273ffffffffffffffffffffffffffffffffffffffff1614156126f1576040517f08c379a00000000000000000000000000000000000000000000000000000000081526004016126e8906139d2565b60405180910390fd5b6126fd600083836129c3565b61271281600254611e1490919063ffffffff16565b600281905550612769816000808573ffffffffffffffffffffffffffffffffffffffff1673ffffffffffffffffffffffffffffffffffffffff16815260200190815260200160002054611e1490919063ffffffff16565b6000808473ffffffffffffffffffffffffffffffffffffffff1673ffffffffffffffffffffffffffffffffffffffff168152602001908152602001600020819055508173ffffffffffffffffffffffffffffffffffffffff16600073ffffffffffffffffffffffffffffffffffffffff167fddf252ad1be2c89b69c2b068fc378daa952ba7f163c4a11628f55a4df523b3ef836040516128099190612ba1565b60405180910390a35050565b600073ffffffffffffffffffffffffffffffffffffffff168273ffffffffffffffffffffffffffffffffffffffff161415612885576040517f08c379a000000000000000000000000000000000000000000000000000000000815260040161287c90613a64565b60405180910390fd5b612891826000836129c3565b6128fc81604051806060016040528060228152602001613ad2602291396000808673ffffffffffffffffffffffffffffffffffffffff1673ffffffffffffffffffffffffffffffffffffffff168152602001908152602001600020546120439092919063ffffffff16565b6000808473ffffffffffffffffffffffffffffffffffffffff1673ffffffffffffffffffffffffffffffffffffffff168152602001908152602001600020819055506129538160025461224a90919063ffffffff16565b600281905550600073ffffffffffffffffffffffffffffffffffffffff168273ffffffffffffffffffffffffffffffffffffffff167fddf252ad1be2c89b69c2b068fc378daa952ba7f163c4a11628f55a4df523b3ef836040516129b79190612ba1565b60405180910390a35050565b505050565b600081519050919050565b600082825260208201905092915050565b60005b83811015612a025780820151818401526020810190506129e7565b83811115612a11576000848401525b50505050565b6000601f19601f8301169050919050565b6000612a33826129c8565b612a3d81856129d3565b9350612a4d8185602086016129e4565b612a5681612a17565b840191505092915050565b60006020820190508181036000830152612a7b8184612a28565b905092915050565b600080fd5b600073ffffffffffffffffffffffffffffffffffffffff82169050919050565b6000612ab382612a88565b9050919050565b612ac381612aa8565b8114612ace57600080fd5b50565b600081359050612ae081612aba565b92915050565b6000819050919050565b612af981612ae6565b8114612b0457600080fd5b50565b600081359050612b1681612af0565b92915050565b60008060408385031215612b3357612b32612a83565b5b6000612b4185828601612ad1565b9250506020612b5285828601612b07565b9150509250929050565b60008115159050919050565b612b7181612b5c565b82525050565b6000602082019050612b8c6000830184612b68565b92915050565b612b9b81612ae6565b82525050565b6000602082019050612bb66000830184612b92565b92915050565b600060208284031215612bd257612bd1612a83565b5b6000612be084828501612ad1565b91505092915050565b600080600060608486031215612c0257612c01612a83565b5b6000612c1086828701612ad1565b9350506020612c2186828701612ad1565b9250506040612c3286828701612b07565b9150509250925092565b600060ff82169050919050565b612c5281612c3c565b82525050565b6000602082019050612c6d6000830184612c49565b92915050565b612c7c81612aa8565b82525050565b6000602082019050612c976000830184612c73565b92915050565b600060208284031215612cb357612cb2612a83565b5b6000612cc184828501612b07565b91505092915050565b6000819050919050565b612cdd81612cca565b82525050565b600061010082019050612cf9600083018b612c73565b612d06602083018a612cd4565b612d136040830189612cd4565b612d206060830188612b92565b612d2d6080830187612b92565b612d3a60a0830186612b92565b612d4760c0830185612b92565b612d5460e0830184612b92565b9998505050505050505050565b6000612d6c82612a88565b9050919050565b612d7c81612d61565b8114612d8757600080fd5b50565b600081359050612d9981612d73565b92915050565b612da881612b5c565b8114612db357600080fd5b50565b600081359050612dc581612d9f565b92915050565b60008060408385031215612de257612de1612a83565b5b6000612df085828601612d8a565b9250506020612e0185828601612db6565b9150509250929050565b60008060408385031215612e2257612e21612a83565b5b6000612e3085828601612ad1565b9250506020612e4185828601612ad1565b9150509250929050565b60008060408385031215612e6257612e61612a83565b5b6000612e7085828601612d8a565b9250506020612e8185828601612b07565b9150509250929050565b6000606082019050612ea06000830186612b92565b612ead6020830185612b92565b612eba6040830184612b92565b949350505050565b7f4e487b7100000000000000000000000000000000000000000000000000000000600052601260045260246000fd5b7f4e487b7100000000000000000000000000000000000000000000000000000000600052601160045260246000fd5b6000612f2b82612ae6565b9150612f3683612ae6565b925082612f4657612f45612ec2565b5b828204905092915050565b7f4e487b7100000000000000000000000000000000000000000000000000000000600052602260045260246000fd5b60006002820490506001821680612f9857607f821691505b60208210811415612fac57612fab612f51565b5b50919050565b7f4f776e61626c653a2063616c6c6572206973206e6f7420746865206f776e6572600082015250565b6000612fe86020836129d3565b9150612ff382612fb2565b602082019050919050565b6000602082019050818103600083015261301781612fdb565b9050919050565b8082525050565b61302e81612aa8565b82525050565b6000604082019050613049600083018561301e565b6130566020830184613025565b9392505050565b6000602082019050613072600083018461301e565b92915050565b60008151905061308781612af0565b92915050565b6000602082840312156130a3576130a2612a83565b5b60006130b184828501613078565b91505092915050565b6130c381612ae6565b82525050565b60006040820190506130de600083018561301e565b6130eb60208301846130ba565b9392505050565b60008151905061310181612aba565b92915050565b60006020828403121561311d5761311c612a83565b5b600061312b848285016130f2565b91505092915050565b7f44656d6f5f4469766964656e645f547261636b65723a2077697468647261774460008201527f69766964656e642064697361626c65642e20557365207468652027636c61696d60208201527f272066756e6374696f6e206f6e20746865206d61696e2044656d6f20636f6e7460408201527f726163742e000000000000000000000000000000000000000000000000000000606082015250565b60006131dc6065836129d3565b91506131e782613134565b608082019050919050565b6000602082019050818103600083015261320b816131cf565b9050919050565b6000819050919050565b600061323761323261322d84612a88565b613212565b612a88565b9050919050565b60006132498261321c565b9050919050565b600061325b8261323e565b9050919050565b61326b81613250565b82525050565b6000606082019050613286600083018661301e565b6132936020830185613262565b6132a060408301846130ba565b949350505050565b60006040820190506132bd600083018561301e565b6132ca6020830184613262565b9392505050565b7f44656d6f5f4469766964656e645f547261636b65723a20636c61696d5761697460008201527f206d757374206265207570646174656420746f206265747765656e203120616e60208201527f6420323420686f75727300000000000000000000000000000000000000000000604082015250565b6000613353604a836129d3565b915061335e826132d1565b606082019050919050565b6000602082019050818103600083015261338281613346565b9050919050565b7f44656d6f5f4469766964656e645f547261636b65723a2043616e6e6f7420757060008201527f6461746520636c61696d5761697420746f2073616d652076616c756500000000602082015250565b60006133e5603c836129d3565b91506133f082613389565b604082019050919050565b60006020820190508181036000830152613414816133d8565b9050919050565b7f4f776e61626c653a206e6577206f776e657220697320746865207a65726f206160008201527f6464726573730000000000000000000000000000000000000000000000000000602082015250565b60006134776026836129d3565b91506134828261341b565b604082019050919050565b600060208201905081810360008301526134a68161346a565b9050919050565b6134b681612cca565b81146134c157600080fd5b50565b6000815190506134d3816134ad565b92915050565b6000602082840312156134ef576134ee612a83565b5b60006134fd848285016134c4565b91505092915050565b600061351182612ae6565b91507fffffffffffffffffffffffffffffffffffffffffffffffffffffffffffffffff82141561354457613543612ef1565b5b600182019050919050565b7f4e487b7100000000000000000000000000000000000000000000000000000000600052603260045260246000fd5b600061358982612ae6565b915061359483612ae6565b9250817fffffffffffffffffffffffffffffffffffffffffffffffffffffffffffffffff04831182151516156135cd576135cc612ef1565b5b828202905092915050565b60006135e382612ae6565b91506135ee83612ae6565b9250827fffffffffffffffffffffffffffffffffffffffffffffffffffffffffffffffff0382111561362357613622612ef1565b5b828201905092915050565b7f42455032303a20617070726f76652066726f6d20746865207a65726f2061646460008201527f7265737300000000000000000000000000000000000000000000000000000000602082015250565b600061368a6024836129d3565b91506136958261362e565b604082019050919050565b600060208201905081810360008301526136b98161367d565b9050919050565b7f42455032303a20617070726f766520746f20746865207a65726f20616464726560008201527f7373000000000000000000000000000000000000000000000000000000000000602082015250565b600061371c6022836129d3565b9150613727826136c0565b604082019050919050565b6000602082019050818103600083015261374b8161370f565b9050919050565b7f44656d6f5f4469766964656e645f547261636b65723a204e6f207472616e736660008201527f65727320616c6c6f776564000000000000000000000000000000000000000000602082015250565b60006137ae602b836129d3565b91506137b982613752565b604082019050919050565b600060208201905081810360008301526137dd816137a1565b9050919050565b60006137ef82612cca565b91506137fa83612cca565b9250817f7fffffffffffffffffffffffffffffffffffffffffffffffffffffffffffffff0383136000831215161561383557613834612ef1565b5b817f800000000000000000000000000000000000000000000000000000000000000003831260008312161561386d5761386c612ef1565b5b828201905092915050565b600061388382612ae6565b915061388e83612ae6565b9250828210156138a1576138a0612ef1565b5b828203905092915050565b600081905092915050565b50565b60006138c76000836138ac565b91506138d2826138b7565b600082019050919050565b60006138e8826138ba565b9150819050919050565b60006138fd82612cca565b915061390883612cca565b9250827f80000000000000000000000000000000000000000000000000000000000000000182126000841215161561394357613942612ef1565b5b827f7fffffffffffffffffffffffffffffffffffffffffffffffffffffffffffffff01821360008412161561397b5761397a612ef1565b5b828203905092915050565b7f42455032303a206d696e7420746f20746865207a65726f206164647265737300600082015250565b60006139bc601f836129d3565b91506139c782613986565b602082019050919050565b600060208201905081810360008301526139eb816139af565b9050919050565b7f42455032303a206275726e2066726f6d20746865207a65726f2061646472657360008201527f7300000000000000000000000000000000000000000000000000000000000000602082015250565b6000613a4e6021836129d3565b9150613a59826139f2565b604082019050919050565b60006020820190508181036000830152613a7d81613a41565b905091905056fe42455032303a207472616e7366657220616d6f756e74206578636565647320616c6c6f77616e636542455032303a2064656372656173656420616c6c6f77616e63652062656c6f77207a65726f42455032303a206275726e20616d6f756e7420657863656564732062616c616e6365a26469706673582212200698c64fd696b1e06e7dbc60802de11e4454634aecad6a4c9b8c16533e6cd3e364736f6c634300080b0033",
  "immutableReferences": {
    "347": [
      {
        "length": 32,
        "start": 5481
      },
      {
        "length": 32,
        "start": 5905
      }
    ]
  },
  "source": "// SPDX-License-Identifier: MIT\n\npragma solidity ^0.8.0;\nimport './interfaces/DividendPayingToken.sol';\nimport './library/IterableMapping.sol';\nimport './Government.sol';\n\ncontract DemoTokenDividendTracker is DividendPayingToken, Government {\n    using SafeMath for uint256;\n    using SafeMathInt for int256;\n    using IterableMapping for IterableMapping.Map;\n\n    IterableMapping.Map private tokenHoldersMap;\n    uint256 public lastProcessedIndex;\n\n    mapping (address => bool) public excludedFromDividends;\n\n    mapping (address => uint256) public lastClaimTimes;\n\n    uint256 public claimWait;\n    uint256 public immutable minimumTokenBalanceForDividends;\n\n    event ExcludeFromDividends(address indexed account);\n    event ClaimWaitUpdated(uint256 indexed newValue, uint256 indexed oldValue);\n\n    event Claim(address indexed account, uint256 amount, bool indexed automatic);\n\n    constructor() DividendPayingToken(\"Demo_Dividend_Tracker\", \"Demo_Dividend_Tracker\", 9) {\n    \t// claimWait = 14400;\n    \tclaimWait = 600;\n        minimumTokenBalanceForDividends = 1000000 * (10**9); //must hold 10000000+ tokens\n    }\n\n    function _transfer(address, address, uint256) internal pure override {\n        require(false, \"Demo_Dividend_Tracker: No transfers allowed\");\n    }\n\n    function withdrawDividend() public pure override {\n        require(false, \"Demo_Dividend_Tracker: withdrawDividend disabled. Use the 'claim' function on the main Demo contract.\");\n    }\n\n    function excludeFromDividends(address account) external onlyRegulator {\n    \trequire(!excludedFromDividends[account]);\n    \texcludedFromDividends[account] = true;\n\n    \t_setBalance(account, 0);\n    \ttokenHoldersMap.remove(account);\n\n    \temit ExcludeFromDividends(account);\n    }\n\n    function updateClaimWait(uint256 newClaimWait) external onlyRegulator {\n        require(newClaimWait >= 3600 && newClaimWait <= 86400, \"Demo_Dividend_Tracker: claimWait must be updated to between 1 and 24 hours\");\n        require(newClaimWait != claimWait, \"Demo_Dividend_Tracker: Cannot update claimWait to same value\");\n        emit ClaimWaitUpdated(newClaimWait, claimWait);\n        claimWait = newClaimWait;\n    }\n\n    function getLastProcessedIndex() external view returns(uint256) {\n    \treturn lastProcessedIndex;\n    }\n\n    function getNumberOfTokenHolders() external view returns(uint256) {\n        return tokenHoldersMap.keys.length;\n    }\n\n\n\n    function getAccount(address _account)\n        public view returns (\n            address account,\n            int256 index,\n            int256 iterationsUntilProcessed,\n            uint256 withdrawableDividends,\n            uint256 totalDividends,\n            uint256 lastClaimTime,\n            uint256 nextClaimTime,\n            uint256 secondsUntilAutoClaimAvailable) {\n        account = _account;\n\n        index = tokenHoldersMap.getIndexOfKey(account);\n\n        iterationsUntilProcessed = -1;\n\n        if(index >= 0) {\n            if(uint256(index) > lastProcessedIndex) {\n                iterationsUntilProcessed = index.sub(int256(lastProcessedIndex));\n            }\n            else {\n                uint256 processesUntilEndOfArray = tokenHoldersMap.keys.length > lastProcessedIndex ?\n                                                        tokenHoldersMap.keys.length.sub(lastProcessedIndex) :\n                                                        0;\n\n\n                iterationsUntilProcessed = index.add(int256(processesUntilEndOfArray));\n            }\n        }\n\n\n        withdrawableDividends = withdrawableDividendOf(account);\n        totalDividends = accumulativeDividendOf(account);\n\n        lastClaimTime = lastClaimTimes[account];\n\n        nextClaimTime = lastClaimTime > 0 ? lastClaimTime.add(claimWait) : 0;\n\n        secondsUntilAutoClaimAvailable = nextClaimTime > block.timestamp ? nextClaimTime.sub(block.timestamp) : 0;\n    }\n\n    function getAccountAtIndex(uint256 index)\n        public view returns (\n            address,\n            int256,\n            int256,\n            uint256,\n            uint256,\n            uint256,\n            uint256,\n            uint256) {\n    \tif(index >= tokenHoldersMap.size()) {\n            return (0x0000000000000000000000000000000000000000, -1, -1, 0, 0, 0, 0, 0);\n        }\n\n        address account = tokenHoldersMap.getKeyAtIndex(index);\n\n        return getAccount(account);\n    }\n\n    function canAutoClaim(uint256 lastClaimTime) private view returns (bool) {\n    \tif(lastClaimTime > block.timestamp)  {\n    \t\treturn false;\n    \t}\n\n    \treturn block.timestamp.sub(lastClaimTime) >= claimWait;\n    }\n\n    function setBalance(address payable account, uint256 newBalance) external onlyRegulator {\n    \tif(excludedFromDividends[account]) {\n    \t\treturn;\n    \t}\n\n    \tif(newBalance >= minimumTokenBalanceForDividends) {\n            _setBalance(account, newBalance);\n    \t\ttokenHoldersMap.set(account, newBalance);\n    \t}\n    \telse {\n            _setBalance(account, 0);\n    \t\ttokenHoldersMap.remove(account);\n    \t}\n\n    \tprocessAccount(account, true);\n    }\n\n    function process(uint256 gas) public returns (uint256, uint256, uint256) {\n    \tuint256 numberOfTokenHolders = tokenHoldersMap.keys.length;\n\n    \tif(numberOfTokenHolders == 0) {\n    \t\treturn (0, 0, lastProcessedIndex);\n    \t}\n\n    \tuint256 _lastProcessedIndex = lastProcessedIndex;\n\n    \tuint256 gasUsed = 0;\n\n    \tuint256 gasLeft = gasleft();\n\n    \tuint256 iterations = 0;\n    \tuint256 claims = 0;\n\n    \twhile(gasUsed < gas && iterations < numberOfTokenHolders) {\n    \t\t_lastProcessedIndex++;\n\n    \t\tif(_lastProcessedIndex >= tokenHoldersMap.keys.length) {\n    \t\t\t_lastProcessedIndex = 0;\n    \t\t}\n\n    \t\taddress account = tokenHoldersMap.keys[_lastProcessedIndex];\n\n    \t\tif(canAutoClaim(lastClaimTimes[account])) {\n    \t\t\tif(processAccount(payable(account), true)) {\n    \t\t\t\tclaims++;\n    \t\t\t}\n    \t\t}\n\n    \t\titerations++;\n\n    \t\tuint256 newGasLeft = gasleft();\n\n    \t\tif(gasLeft > newGasLeft) {\n    \t\t\tgasUsed = gasUsed.add(gasLeft.sub(newGasLeft));\n    \t\t}\n\n    \t\tgasLeft = newGasLeft;\n    \t}\n\n    \tlastProcessedIndex = _lastProcessedIndex;\n\n    \treturn (iterations, claims, lastProcessedIndex);\n    }\n\n    function processAccount(address payable account, bool automatic) public onlyRegulator returns (bool) {\n        uint256 amount = _withdrawDividendOfUser(account);\n\n    \tif(amount > 0) {\n    \t\tlastClaimTimes[account] = block.timestamp;\n            emit Claim(account, amount, automatic);\n    \t\treturn true;\n    \t}\n\n    \treturn false;\n    }\n}",
  "sourcePath": "/Users/nolannbiron/Documents/PROJETS/solidity/democracy/contracts/DemoTokenDividendTracker.sol",
  "compiler": {
    "name": "solc",
    "version": "0.8.11+commit.d7f03943.Emscripten.clang"
  },
  "schemaVersion": "3.4.4",
  "updatedAt": "2022-01-03T11:04:09.031Z",
  "devdoc": {
    "kind": "dev",
    "methods": {
      "accumulativeDividendOf(address)": {
        "details": "accumulativeDividendOf(_owner) = withdrawableDividendOf(_owner) + withdrawnDividendOf(_owner) = (magnifiedDividendPerShare * balanceOf(_owner) + magnifiedDividendCorrections[_owner]) / magnitude",
        "params": {
          "_owner": "The address of a token holder."
        },
        "returns": {
          "_0": "The amount of dividend in wei that `_owner` has earned in total."
        }
      },
      "allowance(address,address)": {
        "details": "See {IBEP20-allowance}."
      },
      "approve(address,uint256)": {
        "details": "See {IBEP20-approve}. Requirements: - `spender` cannot be the zero address."
      },
      "balanceOf(address)": {
        "details": "See {IBEP20-balanceOf}."
      },
      "decimals()": {
        "details": "Returns the number of decimals used to get its user representation. For example, if `decimals` equals `2`, a balance of `505` tokens should be displayed to a user as `5,05` (`505 / 10 ** 2`). Tokens usually opt for a value of 18, imitating the relationship between Ether and Wei. This is the value {BEP20} uses, unless this function is overridden; NOTE: This information is only used for _display_ purposes: it in no way affects any of the arithmetic of the contract, including {IBEP20-balanceOf} and {IBEP20-transfer}."
      },
      "decreaseAllowance(address,uint256)": {
        "details": "Atomically decreases the allowance granted to `spender` by the caller. This is an alternative to {approve} that can be used as a mitigation for problems described in {IBEP20-approve}. Emits an {Approval} event indicating the updated allowance. Requirements: - `spender` cannot be the zero address. - `spender` must have allowance for the caller of at least `subtractedValue`."
      },
      "distributeDividends()": {
        "details": "It reverts if the total supply of tokens is 0. It emits the `DividendsDistributed` event if the amount of received ether is greater than 0. About undistributed ether:   In each distribution, there is a small amount of ether not distributed,     the magnified amount of which is     `(msg.value * magnitude) % totalSupply()`.   With a well-chosen `magnitude`, the amount of undistributed ether     (de-magnified) in a distribution can be less than 1 wei.   We can actually keep track of the undistributed ether in a distribution     and try to distribute it in the next distribution,     but keeping track of such data on-chain costs much more than     the saved ether, so we don't do that."
      },
      "dividendOf(address)": {
        "params": {
          "_owner": "The address of a token holder."
        },
        "returns": {
          "_0": "The amount of dividend in wei that `_owner` can withdraw."
        }
      },
      "increaseAllowance(address,uint256)": {
        "details": "Atomically increases the allowance granted to `spender` by the caller. This is an alternative to {approve} that can be used as a mitigation for problems described in {IBEP20-approve}. Emits an {Approval} event indicating the updated allowance. Requirements: - `spender` cannot be the zero address."
      },
      "name()": {
        "details": "Returns the name of the token."
      },
      "regulator()": {
        "details": "Returns the address of the current owner."
      },
      "renounceOwnership()": {
        "details": "Leaves the contract without owner. It will not be possible to call `onlyOwner` functions anymore. Can only be called by the current owner. NOTE: Renouncing ownership will leave the contract without an owner, thereby removing any functionality that is only available to the owner."
      },
      "symbol()": {
        "details": "Returns the symbol of the token, usually a shorter version of the name."
      },
      "totalSupply()": {
        "details": "See {IBEP20-totalSupply}."
      },
      "transfer(address,uint256)": {
        "details": "See {IBEP20-transfer}. Requirements: - `recipient` cannot be the zero address. - the caller must have a balance of at least `amount`."
      },
      "transferFrom(address,address,uint256)": {
        "details": "See {IBEP20-transferFrom}. Emits an {Approval} event indicating the updated allowance. This is not required by the EIP. See the note at the beginning of {BEP20}. Requirements: - `sender` and `recipient` cannot be the zero address. - `sender` must have a balance of at least `amount`. - the caller must have allowance for ``sender``'s tokens of at least `amount`."
      },
      "transferOwnership(address)": {
        "details": "Transfers ownership of the contract to a new account (`newOwner`). Can only be called by the current owner."
      },
      "withdrawDividend()": {
        "details": "It emits a `DividendWithdrawn` event if the amount of withdrawn ether is greater than 0."
      },
      "withdrawableDividendOf(address)": {
        "params": {
          "_owner": "The address of a token holder."
        },
        "returns": {
          "_0": "The amount of dividend in wei that `_owner` can withdraw."
        }
      },
      "withdrawnDividendOf(address)": {
        "params": {
          "_owner": "The address of a token holder."
        },
        "returns": {
          "_0": "The amount of dividend in wei that `_owner` has withdrawn."
        }
      }
    },
    "version": 1
  },
  "userdoc": {
    "kind": "user",
    "methods": {
      "accumulativeDividendOf(address)": {
        "notice": "View the amount of dividend in wei that an address has earned in total."
      },
      "distributeDividends()": {
        "notice": "Distributes ether to token holders as dividends."
      },
      "dividendOf(address)": {
        "notice": "View the amount of dividend in wei that an address can withdraw."
      },
      "withdrawDividend()": {
        "notice": "Withdraws the ether distributed to the sender."
      },
      "withdrawableDividendOf(address)": {
        "notice": "View the amount of dividend in wei that an address can withdraw."
      },
      "withdrawnDividendOf(address)": {
        "notice": "View the amount of dividend in wei that an address has withdrawn."
      }
    },
    "version": 1
  }
}