{
  "contractName": "DividendPayingToken",
  "abi": [
    {
      "inputs": [
        {
          "internalType": "string",
          "name": "_name",
          "type": "string"
        },
        {
          "internalType": "string",
          "name": "_symbol",
          "type": "string"
        },
        {
          "internalType": "uint8",
          "name": "_decimals",
          "type": "uint8"
        }
      ],
      "stateMutability": "nonpayable",
      "type": "constructor"
    },
    {
      "anonymous": false,
      "inputs": [
        {
          "indexed": true,
          "internalType": "address",
          "name": "owner",
          "type": "address"
        },
        {
          "indexed": true,
          "internalType": "address",
          "name": "spender",
          "type": "address"
        },
        {
          "indexed": false,
          "internalType": "uint256",
          "name": "value",
          "type": "uint256"
        }
      ],
      "name": "Approval",
      "type": "event"
    },
    {
      "anonymous": false,
      "inputs": [
        {
          "indexed": true,
          "internalType": "address",
          "name": "to",
          "type": "address"
        },
        {
          "indexed": false,
          "internalType": "uint256",
          "name": "weiAmount",
          "type": "uint256"
        }
      ],
      "name": "DividendWithdrawn",
      "type": "event"
    },
    {
      "anonymous": false,
      "inputs": [
        {
          "indexed": true,
          "internalType": "address",
          "name": "from",
          "type": "address"
        },
        {
          "indexed": false,
          "internalType": "uint256",
          "name": "weiAmount",
          "type": "uint256"
        }
      ],
      "name": "DividendsDistributed",
      "type": "event"
    },
    {
      "anonymous": false,
      "inputs": [
        {
          "indexed": true,
          "internalType": "address",
          "name": "from",
          "type": "address"
        },
        {
          "indexed": true,
          "internalType": "address",
          "name": "to",
          "type": "address"
        },
        {
          "indexed": false,
          "internalType": "uint256",
          "name": "value",
          "type": "uint256"
        }
      ],
      "name": "Transfer",
      "type": "event"
    },
    {
      "inputs": [
        {
          "internalType": "address",
          "name": "owner",
          "type": "address"
        },
        {
          "internalType": "address",
          "name": "spender",
          "type": "address"
        }
      ],
      "name": "allowance",
      "outputs": [
        {
          "internalType": "uint256",
          "name": "",
          "type": "uint256"
        }
      ],
      "stateMutability": "view",
      "type": "function"
    },
    {
      "inputs": [
        {
          "internalType": "address",
          "name": "spender",
          "type": "address"
        },
        {
          "internalType": "uint256",
          "name": "amount",
          "type": "uint256"
        }
      ],
      "name": "approve",
      "outputs": [
        {
          "internalType": "bool",
          "name": "",
          "type": "bool"
        }
      ],
      "stateMutability": "nonpayable",
      "type": "function"
    },
    {
      "inputs": [
        {
          "internalType": "address",
          "name": "account",
          "type": "address"
        }
      ],
      "name": "balanceOf",
      "outputs": [
        {
          "internalType": "uint256",
          "name": "",
          "type": "uint256"
        }
      ],
      "stateMutability": "view",
      "type": "function"
    },
    {
      "inputs": [],
      "name": "decimals",
      "outputs": [
        {
          "internalType": "uint8",
          "name": "",
          "type": "uint8"
        }
      ],
      "stateMutability": "view",
      "type": "function"
    },
    {
      "inputs": [
        {
          "internalType": "address",
          "name": "spender",
          "type": "address"
        },
        {
          "internalType": "uint256",
          "name": "subtractedValue",
          "type": "uint256"
        }
      ],
      "name": "decreaseAllowance",
      "outputs": [
        {
          "internalType": "bool",
          "name": "",
          "type": "bool"
        }
      ],
      "stateMutability": "nonpayable",
      "type": "function"
    },
    {
      "inputs": [
        {
          "internalType": "address",
          "name": "spender",
          "type": "address"
        },
        {
          "internalType": "uint256",
          "name": "addedValue",
          "type": "uint256"
        }
      ],
      "name": "increaseAllowance",
      "outputs": [
        {
          "internalType": "bool",
          "name": "",
          "type": "bool"
        }
      ],
      "stateMutability": "nonpayable",
      "type": "function"
    },
    {
      "inputs": [],
      "name": "name",
      "outputs": [
        {
          "internalType": "string",
          "name": "",
          "type": "string"
        }
      ],
      "stateMutability": "view",
      "type": "function"
    },
    {
      "inputs": [],
      "name": "symbol",
      "outputs": [
        {
          "internalType": "string",
          "name": "",
          "type": "string"
        }
      ],
      "stateMutability": "view",
      "type": "function"
    },
    {
      "inputs": [],
      "name": "totalDividendsDistributed",
      "outputs": [
        {
          "internalType": "uint256",
          "name": "",
          "type": "uint256"
        }
      ],
      "stateMutability": "view",
      "type": "function"
    },
    {
      "inputs": [],
      "name": "totalSupply",
      "outputs": [
        {
          "internalType": "uint256",
          "name": "",
          "type": "uint256"
        }
      ],
      "stateMutability": "view",
      "type": "function"
    },
    {
      "inputs": [
        {
          "internalType": "address",
          "name": "recipient",
          "type": "address"
        },
        {
          "internalType": "uint256",
          "name": "amount",
          "type": "uint256"
        }
      ],
      "name": "transfer",
      "outputs": [
        {
          "internalType": "bool",
          "name": "",
          "type": "bool"
        }
      ],
      "stateMutability": "nonpayable",
      "type": "function"
    },
    {
      "inputs": [
        {
          "internalType": "address",
          "name": "sender",
          "type": "address"
        },
        {
          "internalType": "address",
          "name": "recipient",
          "type": "address"
        },
        {
          "internalType": "uint256",
          "name": "amount",
          "type": "uint256"
        }
      ],
      "name": "transferFrom",
      "outputs": [
        {
          "internalType": "bool",
          "name": "",
          "type": "bool"
        }
      ],
      "stateMutability": "nonpayable",
      "type": "function"
    },
    {
      "stateMutability": "payable",
      "type": "receive"
    },
    {
      "inputs": [],
      "name": "distributeDividends",
      "outputs": [],
      "stateMutability": "payable",
      "type": "function"
    },
    {
      "inputs": [],
      "name": "withdrawDividend",
      "outputs": [],
      "stateMutability": "nonpayable",
      "type": "function"
    },
    {
      "inputs": [
        {
          "internalType": "address",
          "name": "_owner",
          "type": "address"
        }
      ],
      "name": "dividendOf",
      "outputs": [
        {
          "internalType": "uint256",
          "name": "",
          "type": "uint256"
        }
      ],
      "stateMutability": "view",
      "type": "function"
    },
    {
      "inputs": [
        {
          "internalType": "address",
          "name": "_owner",
          "type": "address"
        }
      ],
      "name": "withdrawableDividendOf",
      "outputs": [
        {
          "internalType": "uint256",
          "name": "",
          "type": "uint256"
        }
      ],
      "stateMutability": "view",
      "type": "function"
    },
    {
      "inputs": [
        {
          "internalType": "address",
          "name": "_owner",
          "type": "address"
        }
      ],
      "name": "withdrawnDividendOf",
      "outputs": [
        {
          "internalType": "uint256",
          "name": "",
          "type": "uint256"
        }
      ],
      "stateMutability": "view",
      "type": "function"
    },
    {
      "inputs": [
        {
          "internalType": "address",
          "name": "_owner",
          "type": "address"
        }
      ],
      "name": "accumulativeDividendOf",
      "outputs": [
        {
          "internalType": "uint256",
          "name": "",
          "type": "uint256"
        }
      ],
      "stateMutability": "view",
      "type": "function"
    }
  ],
  "bytecode": "0x60806040523480156200001157600080fd5b5060405162001e6d38038062001e6d83398181016040528101906200003791906200031e565b82828282600390805190602001906200005292919062000093565b5081600490805190602001906200006b92919062000093565b5080600560006101000a81548160ff021916908360ff1602179055505050505050506200041d565b828054620000a190620003e7565b90600052602060002090601f016020900481019282620000c5576000855562000111565b82601f10620000e057805160ff191683800117855562000111565b8280016001018555821562000111579182015b8281111562000110578251825591602001919060010190620000f3565b5b50905062000120919062000124565b5090565b5b808211156200013f57600081600090555060010162000125565b5090565b6000604051905090565b600080fd5b600080fd5b600080fd5b600080fd5b6000601f19601f8301169050919050565b7f4e487b7100000000000000000000000000000000000000000000000000000000600052604160045260246000fd5b620001ac8262000161565b810181811067ffffffffffffffff82111715620001ce57620001cd62000172565b5b80604052505050565b6000620001e362000143565b9050620001f18282620001a1565b919050565b600067ffffffffffffffff82111562000214576200021362000172565b5b6200021f8262000161565b9050602081019050919050565b60005b838110156200024c5780820151818401526020810190506200022f565b838111156200025c576000848401525b50505050565b6000620002796200027384620001f6565b620001d7565b9050828152602081018484840111156200029857620002976200015c565b5b620002a58482856200022c565b509392505050565b600082601f830112620002c557620002c462000157565b5b8151620002d784826020860162000262565b91505092915050565b600060ff82169050919050565b620002f881620002e0565b81146200030457600080fd5b50565b6000815190506200031881620002ed565b92915050565b6000806000606084860312156200033a57620003396200014d565b5b600084015167ffffffffffffffff8111156200035b576200035a62000152565b5b6200036986828701620002ad565b935050602084015167ffffffffffffffff8111156200038d576200038c62000152565b5b6200039b86828701620002ad565b9250506040620003ae8682870162000307565b9150509250925092565b7f4e487b7100000000000000000000000000000000000000000000000000000000600052602260045260246000fd5b600060028204905060018216806200040057607f821691505b60208210811415620004175762000416620003b8565b5b50919050565b611a40806200042d6000396000f3fe60806040526004361061010d5760003560e01c806370a0823111610095578063a457c2d711610064578063a457c2d714610387578063a8b9d240146103c4578063a9059cbb14610401578063aafd847a1461043e578063dd62ed3e1461047b5761011c565b806370a08231146102b757806385a6b3ae146102f457806391b89fba1461031f57806395d89b411461035c5761011c565b806323b872dd116100dc57806323b872dd146101be57806327ce0147146101fb578063313ce5671461023857806339509351146102635780636a474002146102a05761011c565b806303c833021461012157806306fdde031461012b578063095ea7b31461015657806318160ddd146101935761011c565b3661011c5761011a6104b8565b005b600080fd5b6101296104b8565b005b34801561013757600080fd5b50610140610591565b60405161014d91906112fb565b60405180910390f35b34801561016257600080fd5b5061017d600480360381019061017891906113b6565b610623565b60405161018a9190611411565b60405180910390f35b34801561019f57600080fd5b506101a8610641565b6040516101b5919061143b565b60405180910390f35b3480156101ca57600080fd5b506101e560048036038101906101e09190611456565b61064b565b6040516101f29190611411565b60405180910390f35b34801561020757600080fd5b50610222600480360381019061021d91906114a9565b610724565b60405161022f919061143b565b60405180910390f35b34801561024457600080fd5b5061024d6107c7565b60405161025a91906114f2565b60405180910390f35b34801561026f57600080fd5b5061028a600480360381019061028591906113b6565b6107de565b6040516102979190611411565b60405180910390f35b3480156102ac57600080fd5b506102b5610891565b005b3480156102c357600080fd5b506102de60048036038101906102d991906114a9565b61089d565b6040516102eb919061143b565b60405180910390f35b34801561030057600080fd5b506103096108e5565b604051610316919061143b565b60405180910390f35b34801561032b57600080fd5b50610346600480360381019061034191906114a9565b6108eb565b604051610353919061143b565b60405180910390f35b34801561036857600080fd5b506103716108fd565b60405161037e91906112fb565b60405180910390f35b34801561039357600080fd5b506103ae60048036038101906103a991906113b6565b61098f565b6040516103bb9190611411565b60405180910390f35b3480156103d057600080fd5b506103eb60048036038101906103e691906114a9565b610a5c565b6040516103f8919061143b565b60405180910390f35b34801561040d57600080fd5b50610428600480360381019061042391906113b6565b610abf565b6040516104359190611411565b60405180910390f35b34801561044a57600080fd5b50610465600480360381019061046091906114a9565b610add565b604051610472919061143b565b60405180910390f35b34801561048757600080fd5b506104a2600480360381019061049d919061150d565b610b26565b6040516104af919061143b565b60405180910390f35b60006104c2610641565b116104cc57600080fd5b600034111561058f5761051f6104e0610641565b61050470010000000000000000000000000000000034610bad90919063ffffffff16565b61050e91906115ab565b600654610bc390919063ffffffff16565b6006819055503373ffffffffffffffffffffffffffffffffffffffff167fa493a9229478c3fcd73f66d2cdeb7f94fd0f341da924d1054236d784541165113460405161056b919061143b565b60405180910390a261058834600954610bc390919063ffffffff16565b6009819055505b565b6060600380546105a09061160b565b80601f01602080910402602001604051908101604052809291908181526020018280546105cc9061160b565b80156106195780601f106105ee57610100808354040283529160200191610619565b820191906000526020600020905b8154815290600101906020018083116105fc57829003601f168201915b5050505050905090565b6000610637610630610bd9565b8484610be1565b6001905092915050565b6000600254905090565b6000610658848484610dac565b61071984610664610bd9565b610714856040518060600160405280602881526020016119be60289139600160008b73ffffffffffffffffffffffffffffffffffffffff1673ffffffffffffffffffffffffffffffffffffffff16815260200190815260200160002060006106ca610bd9565b73ffffffffffffffffffffffffffffffffffffffff1673ffffffffffffffffffffffffffffffffffffffff16815260200190815260200160002054610f089092919063ffffffff16565b610be1565b600190509392505050565b60007001000000000000000000000000000000006107b66107b1600760008673ffffffffffffffffffffffffffffffffffffffff1673ffffffffffffffffffffffffffffffffffffffff168152602001908152602001600020546107a361079e61078d8861089d565b600654610bad90919063ffffffff16565b610f5d565b610f7a90919063ffffffff16565b610fc5565b6107c091906115ab565b9050919050565b6000600560009054906101000a900460ff16905090565b60006108876107eb610bd9565b8461088285600160006107fc610bd9565b73ffffffffffffffffffffffffffffffffffffffff1673ffffffffffffffffffffffffffffffffffffffff16815260200190815260200160002060008973ffffffffffffffffffffffffffffffffffffffff1673ffffffffffffffffffffffffffffffffffffffff16815260200190815260200160002054610bc390919063ffffffff16565b610be1565b6001905092915050565b61089a33610fdc565b50565b60008060008373ffffffffffffffffffffffffffffffffffffffff1673ffffffffffffffffffffffffffffffffffffffff168152602001908152602001600020549050919050565b60095481565b60006108f682610a5c565b9050919050565b60606004805461090c9061160b565b80601f01602080910402602001604051908101604052809291908181526020018280546109389061160b565b80156109855780601f1061095a57610100808354040283529160200191610985565b820191906000526020600020905b81548152906001019060200180831161096857829003601f168201915b5050505050905090565b6000610a5261099c610bd9565b84610a4d856040518060600160405280602581526020016119e660259139600160006109c6610bd9565b73ffffffffffffffffffffffffffffffffffffffff1673ffffffffffffffffffffffffffffffffffffffff16815260200190815260200160002060008a73ffffffffffffffffffffffffffffffffffffffff1673ffffffffffffffffffffffffffffffffffffffff16815260200190815260200160002054610f089092919063ffffffff16565b610be1565b6001905092915050565b6000610ab8600860008473ffffffffffffffffffffffffffffffffffffffff1673ffffffffffffffffffffffffffffffffffffffff16815260200190815260200160002054610aaa84610724565b61120190919063ffffffff16565b9050919050565b6000610ad3610acc610bd9565b8484610dac565b6001905092915050565b6000600860008373ffffffffffffffffffffffffffffffffffffffff1673ffffffffffffffffffffffffffffffffffffffff168152602001908152602001600020549050919050565b6000600160008473ffffffffffffffffffffffffffffffffffffffff1673ffffffffffffffffffffffffffffffffffffffff16815260200190815260200160002060008373ffffffffffffffffffffffffffffffffffffffff1673ffffffffffffffffffffffffffffffffffffffff16815260200190815260200160002054905092915050565b60008183610bbb919061163d565b905092915050565b60008183610bd19190611697565b905092915050565b600033905090565b600073ffffffffffffffffffffffffffffffffffffffff168373ffffffffffffffffffffffffffffffffffffffff161415610c51576040517f08c379a0000000000000000000000000000000000000000000000000000000008152600401610c489061175f565b60405180910390fd5b600073ffffffffffffffffffffffffffffffffffffffff168273ffffffffffffffffffffffffffffffffffffffff161415610cc1576040517f08c379a0000000000000000000000000000000000000000000000000000000008152600401610cb8906117f1565b60405180910390fd5b80600160008573ffffffffffffffffffffffffffffffffffffffff1673ffffffffffffffffffffffffffffffffffffffff16815260200190815260200160002060008473ffffffffffffffffffffffffffffffffffffffff1673ffffffffffffffffffffffffffffffffffffffff168152602001908152602001600020819055508173ffffffffffffffffffffffffffffffffffffffff168373ffffffffffffffffffffffffffffffffffffffff167f8c5be1e5ebec7d5bd14f71427d1e84f3dd0314c0f7b2291e5b200ac8c7c3b92583604051610d9f919061143b565b60405180910390a3505050565b6000610db757600080fd5b6000610dd6610dd183600654610bad90919063ffffffff16565b610f5d565b9050610e2a81600760008773ffffffffffffffffffffffffffffffffffffffff1673ffffffffffffffffffffffffffffffffffffffff16815260200190815260200160002054610f7a90919063ffffffff16565b600760008673ffffffffffffffffffffffffffffffffffffffff1673ffffffffffffffffffffffffffffffffffffffff16815260200190815260200160002081905550610ebf81600760008673ffffffffffffffffffffffffffffffffffffffff1673ffffffffffffffffffffffffffffffffffffffff1681526020019081526020016000205461121790919063ffffffff16565b600760008573ffffffffffffffffffffffffffffffffffffffff1673ffffffffffffffffffffffffffffffffffffffff1681526020019081526020016000208190555050505050565b6000838311158290610f50576040517f08c379a0000000000000000000000000000000000000000000000000000000008152600401610f4791906112fb565b60405180910390fd5b5082840390509392505050565b6000808290506000811215610f7157600080fd5b80915050919050565b6000808284610f89919061181b565b905060008312158015610f9c5750838112155b80610fb25750600083128015610fb157508381125b5b610fbb57600080fd5b8091505092915050565b600080821215610fd457600080fd5b819050919050565b600080610fe883610a5c565b905060008111156111f65761104581600860008673ffffffffffffffffffffffffffffffffffffffff1673ffffffffffffffffffffffffffffffffffffffff16815260200190815260200160002054610bc390919063ffffffff16565b600860008573ffffffffffffffffffffffffffffffffffffffff1673ffffffffffffffffffffffffffffffffffffffff168152602001908152602001600020819055508273ffffffffffffffffffffffffffffffffffffffff167fee503bee2bb6a87e57bc57db795f98137327401a0e7b7ce42e37926cc1a9ca4d826040516110ce919061143b565b60405180910390a260008373ffffffffffffffffffffffffffffffffffffffff1682610bb890604051611100906118e0565b600060405180830381858888f193505050503d806000811461113e576040519150601f19603f3d011682016040523d82523d6000602084013e611143565b606091505b50509050806111ec5761119e82600860008773ffffffffffffffffffffffffffffffffffffffff1673ffffffffffffffffffffffffffffffffffffffff1681526020019081526020016000205461120190919063ffffffff16565b600860008673ffffffffffffffffffffffffffffffffffffffff1673ffffffffffffffffffffffffffffffffffffffff168152602001908152602001600020819055506000925050506111fc565b81925050506111fc565b60009150505b919050565b6000818361120f91906118f5565b905092915050565b60008082846112269190611929565b9050600083121580156112395750838113155b8061124f575060008312801561124e57508381135b5b61125857600080fd5b8091505092915050565b600081519050919050565b600082825260208201905092915050565b60005b8381101561129c578082015181840152602081019050611281565b838111156112ab576000848401525b50505050565b6000601f19601f8301169050919050565b60006112cd82611262565b6112d7818561126d565b93506112e781856020860161127e565b6112f0816112b1565b840191505092915050565b6000602082019050818103600083015261131581846112c2565b905092915050565b600080fd5b600073ffffffffffffffffffffffffffffffffffffffff82169050919050565b600061134d82611322565b9050919050565b61135d81611342565b811461136857600080fd5b50565b60008135905061137a81611354565b92915050565b6000819050919050565b61139381611380565b811461139e57600080fd5b50565b6000813590506113b08161138a565b92915050565b600080604083850312156113cd576113cc61131d565b5b60006113db8582860161136b565b92505060206113ec858286016113a1565b9150509250929050565b60008115159050919050565b61140b816113f6565b82525050565b60006020820190506114266000830184611402565b92915050565b61143581611380565b82525050565b6000602082019050611450600083018461142c565b92915050565b60008060006060848603121561146f5761146e61131d565b5b600061147d8682870161136b565b935050602061148e8682870161136b565b925050604061149f868287016113a1565b9150509250925092565b6000602082840312156114bf576114be61131d565b5b60006114cd8482850161136b565b91505092915050565b600060ff82169050919050565b6114ec816114d6565b82525050565b600060208201905061150760008301846114e3565b92915050565b600080604083850312156115245761152361131d565b5b60006115328582860161136b565b92505060206115438582860161136b565b9150509250929050565b7f4e487b7100000000000000000000000000000000000000000000000000000000600052601260045260246000fd5b7f4e487b7100000000000000000000000000000000000000000000000000000000600052601160045260246000fd5b60006115b682611380565b91506115c183611380565b9250826115d1576115d061154d565b5b828204905092915050565b7f4e487b7100000000000000000000000000000000000000000000000000000000600052602260045260246000fd5b6000600282049050600182168061162357607f821691505b60208210811415611637576116366115dc565b5b50919050565b600061164882611380565b915061165383611380565b9250817fffffffffffffffffffffffffffffffffffffffffffffffffffffffffffffffff048311821515161561168c5761168b61157c565b5b828202905092915050565b60006116a282611380565b91506116ad83611380565b9250827fffffffffffffffffffffffffffffffffffffffffffffffffffffffffffffffff038211156116e2576116e161157c565b5b828201905092915050565b7f42455032303a20617070726f76652066726f6d20746865207a65726f2061646460008201527f7265737300000000000000000000000000000000000000000000000000000000602082015250565b600061174960248361126d565b9150611754826116ed565b604082019050919050565b600060208201905081810360008301526117788161173c565b9050919050565b7f42455032303a20617070726f766520746f20746865207a65726f20616464726560008201527f7373000000000000000000000000000000000000000000000000000000000000602082015250565b60006117db60228361126d565b91506117e68261177f565b604082019050919050565b6000602082019050818103600083015261180a816117ce565b9050919050565b6000819050919050565b600061182682611811565b915061183183611811565b9250817f7fffffffffffffffffffffffffffffffffffffffffffffffffffffffffffffff0383136000831215161561186c5761186b61157c565b5b817f80000000000000000000000000000000000000000000000000000000000000000383126000831216156118a4576118a361157c565b5b828201905092915050565b600081905092915050565b50565b60006118ca6000836118af565b91506118d5826118ba565b600082019050919050565b60006118eb826118bd565b9150819050919050565b600061190082611380565b915061190b83611380565b92508282101561191e5761191d61157c565b5b828203905092915050565b600061193482611811565b915061193f83611811565b9250827f80000000000000000000000000000000000000000000000000000000000000000182126000841215161561197a5761197961157c565b5b827f7fffffffffffffffffffffffffffffffffffffffffffffffffffffffffffffff0182136000841216156119b2576119b161157c565b5b82820390509291505056fe42455032303a207472616e7366657220616d6f756e74206578636565647320616c6c6f77616e636542455032303a2064656372656173656420616c6c6f77616e63652062656c6f77207a65726fa2646970667358221220d44d0bfc5952d3995d376e090bdf765e1ce8b9bb84e04f6dd0a8e21e588afaaa64736f6c634300080b0033",
  "immutableReferences": {},
  "source": "// SPDX-License-Identifier: MIT\n\npragma solidity ^0.8.0;\n\nimport './BEP20.sol';\nimport './DividendPayingTokenInterface.sol';\nimport './DividendPayingTokenOptionalInterface.sol';\nimport '../library/SafeMathUint.sol';\nimport '../library/SafeMathInt.sol';\n\n/// @title Dividend-Paying Token\n/// @author Roger Wu (https://github.com/roger-wu)\n/// @dev A mintable BEP20 token that allows anyone to pay and distribute ether\n///  to token holders as dividends and allows token holders to withdraw their dividends.\n///  Reference: the source code of PoWH3D: https://etherscan.io/address/0xB3775fB83F7D12A36E0475aBdD1FCA35c091efBe#code\ncontract DividendPayingToken is BEP20, DividendPayingTokenInterface, DividendPayingTokenOptionalInterface {\n  using SafeMath for uint256;\n  using SafeMathUint for uint256;\n  using SafeMathInt for int256;\n\n  // With `magnitude`, we can properly distribute dividends even if the amount of received ether is small.\n  // For more discussion about choosing the value of `magnitude`,\n  //  see https://github.com/ethereum/EIPs/issues/1726#issuecomment-472352728\n  uint256 constant internal magnitude = 2**128;\n\n  uint256 internal magnifiedDividendPerShare;\n\n  // About dividendCorrection:\n  // If the token balance of a `_user` is never changed, the dividend of `_user` can be computed with:\n  //   `dividendOf(_user) = dividendPerShare * balanceOf(_user)`.\n  // When `balanceOf(_user)` is changed (via minting/burning/transferring tokens),\n  //   `dividendOf(_user)` should not be changed,\n  //   but the computed value of `dividendPerShare * balanceOf(_user)` is changed.\n  // To keep the `dividendOf(_user)` unchanged, we add a correction term:\n  //   `dividendOf(_user) = dividendPerShare * balanceOf(_user) + dividendCorrectionOf(_user)`,\n  //   where `dividendCorrectionOf(_user)` is updated whenever `balanceOf(_user)` is changed:\n  //   `dividendCorrectionOf(_user) = dividendPerShare * (old balanceOf(_user)) - (new balanceOf(_user))`.\n  // So now `dividendOf(_user)` returns the same value before and after `balanceOf(_user)` is changed.\n  mapping(address => int256) internal magnifiedDividendCorrections;\n  mapping(address => uint256) internal withdrawnDividends;\n\n  uint256 public totalDividendsDistributed;\n\n  constructor(string memory _name, string memory _symbol, uint8 _decimals) BEP20(_name, _symbol, _decimals) {\n\n  }\n\n  /// @dev Distributes dividends whenever ether is paid to this contract.\n  receive() external payable {\n    distributeDividends();\n  }\n\n  /// @notice Distributes ether to token holders as dividends.\n  /// @dev It reverts if the total supply of tokens is 0.\n  /// It emits the `DividendsDistributed` event if the amount of received ether is greater than 0.\n  /// About undistributed ether:\n  ///   In each distribution, there is a small amount of ether not distributed,\n  ///     the magnified amount of which is\n  ///     `(msg.value * magnitude) % totalSupply()`.\n  ///   With a well-chosen `magnitude`, the amount of undistributed ether\n  ///     (de-magnified) in a distribution can be less than 1 wei.\n  ///   We can actually keep track of the undistributed ether in a distribution\n  ///     and try to distribute it in the next distribution,\n  ///     but keeping track of such data on-chain costs much more than\n  ///     the saved ether, so we don't do that.\n  function distributeDividends() public override payable {\n    require(totalSupply() > 0);\n\n    if (msg.value > 0) {\n      magnifiedDividendPerShare = magnifiedDividendPerShare.add(\n        (msg.value).mul(magnitude) / totalSupply()\n      );\n      emit DividendsDistributed(msg.sender, msg.value);\n\n      totalDividendsDistributed = totalDividendsDistributed.add(msg.value);\n    }\n  }\n\n  /// @notice Withdraws the ether distributed to the sender.\n  /// @dev It emits a `DividendWithdrawn` event if the amount of withdrawn ether is greater than 0.\n  function withdrawDividend() public virtual override {\n    _withdrawDividendOfUser(payable(msg.sender));\n  }\n\n  /// @notice Withdraws the ether distributed to the sender.\n  /// @dev It emits a `DividendWithdrawn` event if the amount of withdrawn ether is greater than 0.\n  function _withdrawDividendOfUser(address payable user) internal returns (uint256) {\n    uint256 _withdrawableDividend = withdrawableDividendOf(user);\n    if (_withdrawableDividend > 0) {\n      withdrawnDividends[user] = withdrawnDividends[user].add(_withdrawableDividend);\n      emit DividendWithdrawn(user, _withdrawableDividend);\n      (bool success,) = user.call{value: _withdrawableDividend, gas: 3000}(\"\");\n\n      if(!success) {\n        withdrawnDividends[user] = withdrawnDividends[user].sub(_withdrawableDividend);\n        return 0;\n      }\n\n      return _withdrawableDividend;\n    }\n\n    return 0;\n  }\n\n\n  /// @notice View the amount of dividend in wei that an address can withdraw.\n  /// @param _owner The address of a token holder.\n  /// @return The amount of dividend in wei that `_owner` can withdraw.\n  function dividendOf(address _owner) public view override returns(uint256) {\n    return withdrawableDividendOf(_owner);\n  }\n\n  /// @notice View the amount of dividend in wei that an address can withdraw.\n  /// @param _owner The address of a token holder.\n  /// @return The amount of dividend in wei that `_owner` can withdraw.\n  function withdrawableDividendOf(address _owner) public view override returns(uint256) {\n    return accumulativeDividendOf(_owner).sub(withdrawnDividends[_owner]);\n  }\n\n  /// @notice View the amount of dividend in wei that an address has withdrawn.\n  /// @param _owner The address of a token holder.\n  /// @return The amount of dividend in wei that `_owner` has withdrawn.\n  function withdrawnDividendOf(address _owner) public view override returns(uint256) {\n    return withdrawnDividends[_owner];\n  }\n\n\n  /// @notice View the amount of dividend in wei that an address has earned in total.\n  /// @dev accumulativeDividendOf(_owner) = withdrawableDividendOf(_owner) + withdrawnDividendOf(_owner)\n  /// = (magnifiedDividendPerShare * balanceOf(_owner) + magnifiedDividendCorrections[_owner]) / magnitude\n  /// @param _owner The address of a token holder.\n  /// @return The amount of dividend in wei that `_owner` has earned in total.\n  function accumulativeDividendOf(address _owner) public view override returns(uint256) {\n    return magnifiedDividendPerShare.mul(balanceOf(_owner)).toInt256Safe()\n      .add(magnifiedDividendCorrections[_owner]).toUint256Safe() / magnitude;\n  }\n\n  /// @dev Internal function that transfer tokens from one address to another.\n  /// Update magnifiedDividendCorrections to keep dividends unchanged.\n  /// @param from The address to transfer from.\n  /// @param to The address to transfer to.\n  /// @param value The amount to be transferred.\n  function _transfer(address from, address to, uint256 value) internal virtual override {\n    require(false);\n\n    int256 _magCorrection = magnifiedDividendPerShare.mul(value).toInt256Safe();\n    magnifiedDividendCorrections[from] = magnifiedDividendCorrections[from].add(_magCorrection);\n    magnifiedDividendCorrections[to] = magnifiedDividendCorrections[to].sub(_magCorrection);\n  }\n\n  /// @dev Internal function that mints tokens to an account.\n  /// Update magnifiedDividendCorrections to keep dividends unchanged.\n  /// @param account The account that will receive the created tokens.\n  /// @param value The amount that will be created.\n  function _mint(address account, uint256 value) internal override {\n    super._mint(account, value);\n\n    magnifiedDividendCorrections[account] = magnifiedDividendCorrections[account]\n      .sub( (magnifiedDividendPerShare.mul(value)).toInt256Safe() );\n  }\n\n  /// @dev Internal function that burns an amount of the token of a given account.\n  /// Update magnifiedDividendCorrections to keep dividends unchanged.\n  /// @param account The account whose tokens will be burnt.\n  /// @param value The amount that will be burnt.\n  function _burn(address account, uint256 value) internal override {\n    super._burn(account, value);\n\n    magnifiedDividendCorrections[account] = magnifiedDividendCorrections[account]\n      .add( (magnifiedDividendPerShare.mul(value)).toInt256Safe() );\n  }\n\n  function _setBalance(address account, uint256 newBalance) internal {\n    uint256 currentBalance = balanceOf(account);\n\n    if(newBalance > currentBalance) {\n      uint256 mintAmount = newBalance.sub(currentBalance);\n      _mint(account, mintAmount);\n    } else if(newBalance < currentBalance) {\n      uint256 burnAmount = currentBalance.sub(newBalance);\n      _burn(account, burnAmount);\n    }\n  }\n}",
  "sourcePath": "/Users/nolannbiron/Documents/PROJETS/solidity/democracy/contracts/interfaces/DividendPayingToken.sol",
  "compiler": {
    "name": "solc",
    "version": "0.8.11+commit.d7f03943.Emscripten.clang"
  },
  "schemaVersion": "3.4.4",
  "updatedAt": "2021-12-30T23:59:42.327Z",
  "devdoc": {
    "author": "Roger Wu (https://github.com/roger-wu)",
    "details": "A mintable BEP20 token that allows anyone to pay and distribute ether  to token holders as dividends and allows token holders to withdraw their dividends.  Reference: the source code of PoWH3D: https://etherscan.io/address/0xB3775fB83F7D12A36E0475aBdD1FCA35c091efBe#code",
    "kind": "dev",
    "methods": {
      "accumulativeDividendOf(address)": {
        "details": "accumulativeDividendOf(_owner) = withdrawableDividendOf(_owner) + withdrawnDividendOf(_owner) = (magnifiedDividendPerShare * balanceOf(_owner) + magnifiedDividendCorrections[_owner]) / magnitude",
        "params": {
          "_owner": "The address of a token holder."
        },
        "returns": {
          "_0": "The amount of dividend in wei that `_owner` has earned in total."
        }
      },
      "allowance(address,address)": {
        "details": "See {IBEP20-allowance}."
      },
      "approve(address,uint256)": {
        "details": "See {IBEP20-approve}. Requirements: - `spender` cannot be the zero address."
      },
      "balanceOf(address)": {
        "details": "See {IBEP20-balanceOf}."
      },
      "decimals()": {
        "details": "Returns the number of decimals used to get its user representation. For example, if `decimals` equals `2`, a balance of `505` tokens should be displayed to a user as `5,05` (`505 / 10 ** 2`). Tokens usually opt for a value of 18, imitating the relationship between Ether and Wei. This is the value {BEP20} uses, unless this function is overridden; NOTE: This information is only used for _display_ purposes: it in no way affects any of the arithmetic of the contract, including {IBEP20-balanceOf} and {IBEP20-transfer}."
      },
      "decreaseAllowance(address,uint256)": {
        "details": "Atomically decreases the allowance granted to `spender` by the caller. This is an alternative to {approve} that can be used as a mitigation for problems described in {IBEP20-approve}. Emits an {Approval} event indicating the updated allowance. Requirements: - `spender` cannot be the zero address. - `spender` must have allowance for the caller of at least `subtractedValue`."
      },
      "distributeDividends()": {
        "details": "It reverts if the total supply of tokens is 0. It emits the `DividendsDistributed` event if the amount of received ether is greater than 0. About undistributed ether:   In each distribution, there is a small amount of ether not distributed,     the magnified amount of which is     `(msg.value * magnitude) % totalSupply()`.   With a well-chosen `magnitude`, the amount of undistributed ether     (de-magnified) in a distribution can be less than 1 wei.   We can actually keep track of the undistributed ether in a distribution     and try to distribute it in the next distribution,     but keeping track of such data on-chain costs much more than     the saved ether, so we don't do that."
      },
      "dividendOf(address)": {
        "params": {
          "_owner": "The address of a token holder."
        },
        "returns": {
          "_0": "The amount of dividend in wei that `_owner` can withdraw."
        }
      },
      "increaseAllowance(address,uint256)": {
        "details": "Atomically increases the allowance granted to `spender` by the caller. This is an alternative to {approve} that can be used as a mitigation for problems described in {IBEP20-approve}. Emits an {Approval} event indicating the updated allowance. Requirements: - `spender` cannot be the zero address."
      },
      "name()": {
        "details": "Returns the name of the token."
      },
      "symbol()": {
        "details": "Returns the symbol of the token, usually a shorter version of the name."
      },
      "totalSupply()": {
        "details": "See {IBEP20-totalSupply}."
      },
      "transfer(address,uint256)": {
        "details": "See {IBEP20-transfer}. Requirements: - `recipient` cannot be the zero address. - the caller must have a balance of at least `amount`."
      },
      "transferFrom(address,address,uint256)": {
        "details": "See {IBEP20-transferFrom}. Emits an {Approval} event indicating the updated allowance. This is not required by the EIP. See the note at the beginning of {BEP20}. Requirements: - `sender` and `recipient` cannot be the zero address. - `sender` must have a balance of at least `amount`. - the caller must have allowance for ``sender``'s tokens of at least `amount`."
      },
      "withdrawDividend()": {
        "details": "It emits a `DividendWithdrawn` event if the amount of withdrawn ether is greater than 0."
      },
      "withdrawableDividendOf(address)": {
        "params": {
          "_owner": "The address of a token holder."
        },
        "returns": {
          "_0": "The amount of dividend in wei that `_owner` can withdraw."
        }
      },
      "withdrawnDividendOf(address)": {
        "params": {
          "_owner": "The address of a token holder."
        },
        "returns": {
          "_0": "The amount of dividend in wei that `_owner` has withdrawn."
        }
      }
    },
    "title": "Dividend-Paying Token",
    "version": 1
  },
  "userdoc": {
    "kind": "user",
    "methods": {
      "accumulativeDividendOf(address)": {
        "notice": "View the amount of dividend in wei that an address has earned in total."
      },
      "distributeDividends()": {
        "notice": "Distributes ether to token holders as dividends."
      },
      "dividendOf(address)": {
        "notice": "View the amount of dividend in wei that an address can withdraw."
      },
      "withdrawDividend()": {
        "notice": "Withdraws the ether distributed to the sender."
      },
      "withdrawableDividendOf(address)": {
        "notice": "View the amount of dividend in wei that an address can withdraw."
      },
      "withdrawnDividendOf(address)": {
        "notice": "View the amount of dividend in wei that an address has withdrawn."
      }
    },
    "version": 1
  }
}