{
  "contractName": "ElectionsHelper",
  "abi": [
    {
      "anonymous": false,
      "inputs": [
        {
          "indexed": true,
          "internalType": "address",
          "name": "previousOwner",
          "type": "address"
        },
        {
          "indexed": true,
          "internalType": "address",
          "name": "newOwner",
          "type": "address"
        }
      ],
      "name": "OwnershipTransferred",
      "type": "event"
    },
    {
      "anonymous": false,
      "inputs": [
        {
          "indexed": true,
          "internalType": "uint256",
          "name": "id",
          "type": "uint256"
        },
        {
          "indexed": false,
          "internalType": "string",
          "name": "name",
          "type": "string"
        },
        {
          "indexed": false,
          "internalType": "string",
          "name": "symbol",
          "type": "string"
        },
        {
          "indexed": false,
          "internalType": "address",
          "name": "leader",
          "type": "address"
        }
      ],
      "name": "PartyCreated",
      "type": "event"
    },
    {
      "anonymous": false,
      "inputs": [
        {
          "indexed": false,
          "internalType": "string",
          "name": "name",
          "type": "string"
        },
        {
          "indexed": false,
          "internalType": "string",
          "name": "symbol",
          "type": "string"
        },
        {
          "indexed": false,
          "internalType": "address",
          "name": "leader",
          "type": "address"
        }
      ],
      "name": "PartyRegisteredForElection",
      "type": "event"
    },
    {
      "anonymous": false,
      "inputs": [
        {
          "components": [
            {
              "internalType": "uint256",
              "name": "creationTime",
              "type": "uint256"
            },
            {
              "internalType": "string",
              "name": "name",
              "type": "string"
            },
            {
              "internalType": "string",
              "name": "symbol",
              "type": "string"
            },
            {
              "internalType": "address",
              "name": "leader",
              "type": "address"
            },
            {
              "internalType": "address[]",
              "name": "members",
              "type": "address[]"
            },
            {
              "internalType": "bool",
              "name": "active",
              "type": "bool"
            },
            {
              "internalType": "address[]",
              "name": "supporters",
              "type": "address[]"
            },
            {
              "internalType": "bool",
              "name": "registered",
              "type": "bool"
            }
          ],
          "indexed": true,
          "internalType": "struct PartiesFactory.Party",
          "name": "party",
          "type": "tuple"
        },
        {
          "indexed": false,
          "internalType": "uint256",
          "name": "time",
          "type": "uint256"
        }
      ],
      "name": "VoteRegistered",
      "type": "event"
    },
    {
      "inputs": [
        {
          "internalType": "address",
          "name": "member",
          "type": "address"
        }
      ],
      "name": "addMemberToParty",
      "outputs": [],
      "stateMutability": "nonpayable",
      "type": "function"
    },
    {
      "inputs": [
        {
          "internalType": "uint256",
          "name": "partyId",
          "type": "uint256"
        }
      ],
      "name": "addSupporter",
      "outputs": [],
      "stateMutability": "nonpayable",
      "type": "function"
    },
    {
      "inputs": [
        {
          "internalType": "bool",
          "name": "status",
          "type": "bool"
        }
      ],
      "name": "changePartyStatus",
      "outputs": [],
      "stateMutability": "nonpayable",
      "type": "function"
    },
    {
      "inputs": [
        {
          "internalType": "string",
          "name": "name",
          "type": "string"
        },
        {
          "internalType": "string",
          "name": "symbol",
          "type": "string"
        }
      ],
      "name": "createParty",
      "outputs": [],
      "stateMutability": "payable",
      "type": "function"
    },
    {
      "inputs": [],
      "name": "deleteParty",
      "outputs": [],
      "stateMutability": "nonpayable",
      "type": "function"
    },
    {
      "inputs": [
        {
          "internalType": "uint256",
          "name": "index",
          "type": "uint256"
        }
      ],
      "name": "getParty",
      "outputs": [
        {
          "components": [
            {
              "internalType": "uint256",
              "name": "creationTime",
              "type": "uint256"
            },
            {
              "internalType": "string",
              "name": "name",
              "type": "string"
            },
            {
              "internalType": "string",
              "name": "symbol",
              "type": "string"
            },
            {
              "internalType": "address",
              "name": "leader",
              "type": "address"
            },
            {
              "internalType": "address[]",
              "name": "members",
              "type": "address[]"
            },
            {
              "internalType": "bool",
              "name": "active",
              "type": "bool"
            },
            {
              "internalType": "address[]",
              "name": "supporters",
              "type": "address[]"
            },
            {
              "internalType": "bool",
              "name": "registered",
              "type": "bool"
            }
          ],
          "internalType": "struct PartiesFactory.Party",
          "name": "",
          "type": "tuple"
        }
      ],
      "stateMutability": "view",
      "type": "function"
    },
    {
      "inputs": [],
      "name": "getPartyFromAddress",
      "outputs": [
        {
          "components": [
            {
              "internalType": "uint256",
              "name": "creationTime",
              "type": "uint256"
            },
            {
              "internalType": "string",
              "name": "name",
              "type": "string"
            },
            {
              "internalType": "string",
              "name": "symbol",
              "type": "string"
            },
            {
              "internalType": "address",
              "name": "leader",
              "type": "address"
            },
            {
              "internalType": "address[]",
              "name": "members",
              "type": "address[]"
            },
            {
              "internalType": "bool",
              "name": "active",
              "type": "bool"
            },
            {
              "internalType": "address[]",
              "name": "supporters",
              "type": "address[]"
            },
            {
              "internalType": "bool",
              "name": "registered",
              "type": "bool"
            }
          ],
          "internalType": "struct PartiesFactory.Party",
          "name": "",
          "type": "tuple"
        }
      ],
      "stateMutability": "view",
      "type": "function"
    },
    {
      "inputs": [
        {
          "internalType": "uint256",
          "name": "",
          "type": "uint256"
        }
      ],
      "name": "idToParty",
      "outputs": [
        {
          "internalType": "uint256",
          "name": "creationTime",
          "type": "uint256"
        },
        {
          "internalType": "string",
          "name": "name",
          "type": "string"
        },
        {
          "internalType": "string",
          "name": "symbol",
          "type": "string"
        },
        {
          "internalType": "address",
          "name": "leader",
          "type": "address"
        },
        {
          "internalType": "bool",
          "name": "active",
          "type": "bool"
        },
        {
          "internalType": "bool",
          "name": "registered",
          "type": "bool"
        }
      ],
      "stateMutability": "view",
      "type": "function"
    },
    {
      "inputs": [],
      "name": "partiesCount",
      "outputs": [
        {
          "internalType": "uint256",
          "name": "",
          "type": "uint256"
        }
      ],
      "stateMutability": "view",
      "type": "function"
    },
    {
      "inputs": [],
      "name": "president",
      "outputs": [
        {
          "internalType": "address",
          "name": "",
          "type": "address"
        }
      ],
      "stateMutability": "view",
      "type": "function"
    },
    {
      "inputs": [],
      "name": "registerPartyToElection",
      "outputs": [],
      "stateMutability": "payable",
      "type": "function"
    },
    {
      "inputs": [],
      "name": "regulator",
      "outputs": [
        {
          "internalType": "address",
          "name": "",
          "type": "address"
        }
      ],
      "stateMutability": "view",
      "type": "function"
    },
    {
      "inputs": [],
      "name": "renounceOwnership",
      "outputs": [],
      "stateMutability": "nonpayable",
      "type": "function"
    },
    {
      "inputs": [],
      "name": "retirePartyFromElection",
      "outputs": [],
      "stateMutability": "nonpayable",
      "type": "function"
    },
    {
      "inputs": [],
      "name": "startNewElection",
      "outputs": [],
      "stateMutability": "nonpayable",
      "type": "function"
    },
    {
      "inputs": [
        {
          "internalType": "address",
          "name": "newRegulator",
          "type": "address"
        }
      ],
      "name": "transferOwnership",
      "outputs": [],
      "stateMutability": "nonpayable",
      "type": "function"
    },
    {
      "inputs": [
        {
          "internalType": "uint256",
          "name": "partyId",
          "type": "uint256"
        }
      ],
      "name": "vote",
      "outputs": [],
      "stateMutability": "nonpayable",
      "type": "function"
    },
    {
      "inputs": [],
      "name": "getVoteResults",
      "outputs": [],
      "stateMutability": "nonpayable",
      "type": "function"
    },
    {
      "inputs": [],
      "name": "lastWinner",
      "outputs": [
        {
          "components": [
            {
              "internalType": "string",
              "name": "partyName",
              "type": "string"
            },
            {
              "internalType": "address",
              "name": "leader",
              "type": "address"
            },
            {
              "internalType": "uint256",
              "name": "votes",
              "type": "uint256"
            },
            {
              "internalType": "uint256",
              "name": "electionDate",
              "type": "uint256"
            }
          ],
          "internalType": "struct ElectionsHelper.Winner",
          "name": "",
          "type": "tuple"
        }
      ],
      "stateMutability": "view",
      "type": "function"
    }
  ],
  "bytecode": "0x6080604052426009556000600b60006101000a81548160ff0219169083151502179055503480156200003057600080fd5b506200005162000045620000a760201b60201c565b620000af60201b60201c565b62000061620000a760201b60201c565b600160006101000a81548173ffffffffffffffffffffffffffffffffffffffff021916908373ffffffffffffffffffffffffffffffffffffffff16021790555062000173565b600033905090565b60008060009054906101000a900473ffffffffffffffffffffffffffffffffffffffff169050816000806101000a81548173ffffffffffffffffffffffffffffffffffffffff021916908373ffffffffffffffffffffffffffffffffffffffff1602179055508173ffffffffffffffffffffffffffffffffffffffff168173ffffffffffffffffffffffffffffffffffffffff167f8be0079c531659141344cd1fd0a4f28419497f9722a3daafe3b4186f6b6457e060405160405180910390a35050565b61457480620001836000396000f3fe6080604052600436106101145760003560e01c8063a1338f37116100a0578063ebf3d9aa11610064578063ebf3d9aa1461030c578063f2fde38b1461034e578063fc1ecd5714610377578063fdfe55f214610393578063fe188184146103aa57610114565b8063a1338f371461024b578063bdb8107814610276578063c56a35401461028d578063dd8fee14146102b8578063de0913d9146102e357610114565b806347f33fb5116100e757806347f33fb5146101a05780635764b651146101b7578063715018a6146101e057806386a66dc3146101f7578063947582181461020e57610114565b80630121b93f146101195780630da12bcf14610142578063324a13761461016b5780633262d97c14610196575b600080fd5b34801561012557600080fd5b50610140600480360381019061013b91906130f1565b6103d5565b005b34801561014e57600080fd5b506101696004803603810190610164919061317c565b6106d1565b005b34801561017757600080fd5b50610180610982565b60405161018d91906131b8565b60405180910390f35b61019e6109a8565b005b3480156101ac57600080fd5b506101b5610c57565b005b3480156101c357600080fd5b506101de60048036038101906101d9919061320b565b610e3e565b005b3480156101ec57600080fd5b506101f5610ff5565b005b34801561020357600080fd5b5061020c61107d565b005b34801561021a57600080fd5b50610235600480360381019061023091906130f1565b6113a8565b6040516102429190613472565b60405180910390f35b34801561025757600080fd5b506102606116ac565b60405161026d9190613472565b60405180910390f35b34801561028257600080fd5b5061028b611a83565b005b34801561029957600080fd5b506102a2611cda565b6040516102af91906134a3565b60405180910390f35b3480156102c457600080fd5b506102cd611ce0565b6040516102da91906131b8565b60405180910390f35b3480156102ef57600080fd5b5061030a600480360381019061030591906130f1565b611d09565b005b34801561031857600080fd5b50610333600480360381019061032e91906130f1565b611f03565b60405161034596959493929190613517565b60405180910390f35b34801561035a57600080fd5b506103756004803603810190610370919061317c565b612089565b005b610391600480360381019061038c91906136bb565b612181565b005b34801561039f57600080fd5b506103a861224f565b005b3480156103b657600080fd5b506103bf612463565b6040516103cc9190613796565b60405180910390f35b600a544210610419576040517f08c379a000000000000000000000000000000000000000000000000000000000815260040161041090613804565b60405180910390fd5b60001515600f60006104296125aa565b73ffffffffffffffffffffffffffffffffffffffff1673ffffffffffffffffffffffffffffffffffffffff16815260200190815260200160002060009054906101000a900460ff161515146104b3576040517f08c379a00000000000000000000000000000000000000000000000000000000081526004016104aa90613870565b60405180910390fd5b8060038054905081106104fb576040517f08c379a00000000000000000000000000000000000000000000000000000000081526004016104f2906138dc565b60405180910390fd5b81600115156011600083815260200190815260200160002060009054906101000a900460ff16151514610563576040517f08c379a000000000000000000000000000000000000000000000000000000000815260040161055a90613948565b60405180910390fd5b600e6000848152602001908152602001600020600081548092919061058790613997565b91905055506012600081548092919061059f90613997565b9190505550600d6105ae6125aa565b9080600181540180825580915050600190039060005260206000200160009091909190916101000a81548173ffffffffffffffffffffffffffffffffffffffff021916908373ffffffffffffffffffffffffffffffffffffffff1602179055506001600f600061061c6125aa565b73ffffffffffffffffffffffffffffffffffffffff1673ffffffffffffffffffffffffffffffffffffffff16815260200190815260200160002060006101000a81548160ff0219169083151502179055506006600084815260200190815260200160002060405161068d9190613d89565b60405180910390207ffd932d3a11edfc870b96b70f58a65313007f9f20eee502f5cd19bdae10d26bf1426040516106c491906134a3565b60405180910390a2505050565b6000600760006106df6125aa565b73ffffffffffffffffffffffffffffffffffffffff1673ffffffffffffffffffffffffffffffffffffffff1681526020019081526020016000205490506107246125aa565b73ffffffffffffffffffffffffffffffffffffffff166003828154811061074e5761074d613da0565b5b906000526020600020906008020160030160009054906101000a900473ffffffffffffffffffffffffffffffffffffffff1673ffffffffffffffffffffffffffffffffffffffff16146107a057600080fd5b6000600860008473ffffffffffffffffffffffffffffffffffffffff1673ffffffffffffffffffffffffffffffffffffffff1681526020019081526020016000205414610822576040517f08c379a000000000000000000000000000000000000000000000000000000000815260040161081990613e41565b60405180910390fd5b6000600760006108306125aa565b73ffffffffffffffffffffffffffffffffffffffff1673ffffffffffffffffffffffffffffffffffffffff16815260200190815260200160002054905060066000828152602001908152602001600020600401839080600181540180825580915050600190039060005260206000200160009091909190916101000a81548173ffffffffffffffffffffffffffffffffffffffff021916908373ffffffffffffffffffffffffffffffffffffffff16021790555080600760008573ffffffffffffffffffffffffffffffffffffffff1673ffffffffffffffffffffffffffffffffffffffff16815260200190815260200160002081905550600860008473ffffffffffffffffffffffffffffffffffffffff1673ffffffffffffffffffffffffffffffffffffffff168152602001908152602001600020600081548092919061097890613997565b9190505550505050565b600160009054906101000a900473ffffffffffffffffffffffffffffffffffffffff1681565b6000600760006109b66125aa565b73ffffffffffffffffffffffffffffffffffffffff1673ffffffffffffffffffffffffffffffffffffffff1681526020019081526020016000205490506109fb6125aa565b73ffffffffffffffffffffffffffffffffffffffff1660038281548110610a2557610a24613da0565b5b906000526020600020906008020160030160009054906101000a900473ffffffffffffffffffffffffffffffffffffffff1673ffffffffffffffffffffffffffffffffffffffff1614610a7757600080fd5b600954421015610abc576040517f08c379a0000000000000000000000000000000000000000000000000000000008152600401610ab390613ead565b60405180910390fd5b600060076000610aca6125aa565b73ffffffffffffffffffffffffffffffffffffffff1673ffffffffffffffffffffffffffffffffffffffff168152602001908152602001600020549050600015156006600083815260200190815260200160002060070160009054906101000a900460ff16151514610b71576040517f08c379a0000000000000000000000000000000000000000000000000000000008152600401610b6890613f19565b60405180910390fd5b60016006600083815260200190815260200160002060070160006101000a81548160ff02191690831515021790555060056000815480929190610bb390613997565b91905055507fdc99320e451a851ad160a0503e6238022c25b3a2b75d8c4a955b59435b8dda2060066000838152602001908152602001600020600101600660008481526020019081526020016000206002016006600085815260200190815260200160002060030160009054906101000a900473ffffffffffffffffffffffffffffffffffffffff16604051610c4b93929190613fb9565b60405180910390a15050565b600954421015610c9c576040517f08c379a0000000000000000000000000000000000000000000000000000000008152600401610c9390613ead565b60405180910390fd5b60001515600b60009054906101000a900460ff16151514610cf2576040517f08c379a0000000000000000000000000000000000000000000000000000000008152600401610ce99061404a565b60405180910390fd5b610cfa6125aa565b73ffffffffffffffffffffffffffffffffffffffff16610d18611ce0565b73ffffffffffffffffffffffffffffffffffffffff1614610d6e576040517f08c379a0000000000000000000000000000000000000000000000000000000008152600401610d65906140b6565b60405180910390fd5b600a42610d7b91906140d6565b600a819055506001600b60006101000a81548160ff02191690831515021790555060005b600554811015610e3b576006600082815260200190815260200160002060070160009054906101000a900460ff1615610e2857600c81908060018154018082558091505060019003906000526020600020016000909190919091505560016011600083815260200190815260200160002060006101000a81548160ff0219169083151502179055505b8080610e3390613997565b915050610d9f565b50565b600060076000610e4c6125aa565b73ffffffffffffffffffffffffffffffffffffffff1673ffffffffffffffffffffffffffffffffffffffff168152602001908152602001600020549050610e916125aa565b73ffffffffffffffffffffffffffffffffffffffff1660038281548110610ebb57610eba613da0565b5b906000526020600020906008020160030160009054906101000a900473ffffffffffffffffffffffffffffffffffffffff1673ffffffffffffffffffffffffffffffffffffffff1614610f0d57600080fd5b600060076000610f1b6125aa565b73ffffffffffffffffffffffffffffffffffffffff1673ffffffffffffffffffffffffffffffffffffffff1681526020019081526020016000205490508215156006600083815260200190815260200160002060050160009054906101000a900460ff1615151415610fc2576040517f08c379a0000000000000000000000000000000000000000000000000000000008152600401610fb990614178565b60405180910390fd5b826006600083815260200190815260200160002060050160006101000a81548160ff021916908315150217905550505050565b610ffd6125aa565b73ffffffffffffffffffffffffffffffffffffffff1661101b611ce0565b73ffffffffffffffffffffffffffffffffffffffff1614611071576040517f08c379a0000000000000000000000000000000000000000000000000000000008152600401611068906140b6565b60405180910390fd5b61107b60006125b2565b565b6110856125aa565b73ffffffffffffffffffffffffffffffffffffffff166110a3611ce0565b73ffffffffffffffffffffffffffffffffffffffff16146110f9576040517f08c379a00000000000000000000000000000000000000000000000000000000081526004016110f0906140b6565b60405180910390fd5b600a5442101561113e576040517f08c379a0000000000000000000000000000000000000000000000000000000008152600401611135906141e4565b60405180910390fd5b60008060005b6003805490508110156111995781600e600083815260200190815260200160002054111561118657600e60008281526020019081526020016000205491508092505b808061119190613997565b915050611144565b50601360405180608001604052806006600086815260200190815260200160002060010180546111c890613a67565b80601f01602080910402602001604051908101604052809291908181526020018280546111f490613a67565b80156112415780601f1061121657610100808354040283529160200191611241565b820191906000526020600020905b81548152906001019060200180831161122457829003601f168201915b505050505081526020016006600086815260200190815260200160002060030160009054906101000a900473ffffffffffffffffffffffffffffffffffffffff1673ffffffffffffffffffffffffffffffffffffffff168152602001600e600086815260200190815260200160002054815260200142815250908060018154018082558091505060019003906000526020600020906004020160009091909190915060008201518160000190805190602001906112ff929190612e7c565b5060208201518160010160006101000a81548173ffffffffffffffffffffffffffffffffffffffff021916908373ffffffffffffffffffffffffffffffffffffffff1602179055506040820151816002015560608201518160030155505061139c6006600084815260200190815260200160002060030160009054906101000a900473ffffffffffffffffffffffffffffffffffffffff16612676565b6113a4612736565b5050565b6113b0612f02565b6006600083815260200190815260200160002060405180610100016040529081600082015481526020016001820180546113e990613a67565b80601f016020809104026020016040519081016040528092919081815260200182805461141590613a67565b80156114625780601f1061143757610100808354040283529160200191611462565b820191906000526020600020905b81548152906001019060200180831161144557829003601f168201915b5050505050815260200160028201805461147b90613a67565b80601f01602080910402602001604051908101604052809291908181526020018280546114a790613a67565b80156114f45780601f106114c9576101008083540402835291602001916114f4565b820191906000526020600020905b8154815290600101906020018083116114d757829003601f168201915b505050505081526020016003820160009054906101000a900473ffffffffffffffffffffffffffffffffffffffff1673ffffffffffffffffffffffffffffffffffffffff1673ffffffffffffffffffffffffffffffffffffffff168152602001600482018054806020026020016040519081016040528092919081815260200182805480156115d857602002820191906000526020600020905b8160009054906101000a900473ffffffffffffffffffffffffffffffffffffffff1673ffffffffffffffffffffffffffffffffffffffff168152602001906001019080831161158e575b505050505081526020016005820160009054906101000a900460ff161515151581526020016006820180548060200260200160405190810160405280929190818152602001828054801561168157602002820191906000526020600020905b8160009054906101000a900473ffffffffffffffffffffffffffffffffffffffff1673ffffffffffffffffffffffffffffffffffffffff1681526020019060010190808311611637575b505050505081526020016007820160009054906101000a900460ff1615151515815250509050919050565b6116b4612f02565b6000600860006116c26125aa565b73ffffffffffffffffffffffffffffffffffffffff1673ffffffffffffffffffffffffffffffffffffffff168152602001908152602001600020541161173d576040517f08c379a000000000000000000000000000000000000000000000000000000000815260040161173490614250565b60405180910390fd5b60006007600061174b6125aa565b73ffffffffffffffffffffffffffffffffffffffff1673ffffffffffffffffffffffffffffffffffffffff1681526020019081526020016000205490506006600082815260200190815260200160002060405180610100016040529081600082015481526020016001820180546117c190613a67565b80601f01602080910402602001604051908101604052809291908181526020018280546117ed90613a67565b801561183a5780601f1061180f5761010080835404028352916020019161183a565b820191906000526020600020905b81548152906001019060200180831161181d57829003601f168201915b5050505050815260200160028201805461185390613a67565b80601f016020809104026020016040519081016040528092919081815260200182805461187f90613a67565b80156118cc5780601f106118a1576101008083540402835291602001916118cc565b820191906000526020600020905b8154815290600101906020018083116118af57829003601f168201915b505050505081526020016003820160009054906101000a900473ffffffffffffffffffffffffffffffffffffffff1673ffffffffffffffffffffffffffffffffffffffff1673ffffffffffffffffffffffffffffffffffffffff168152602001600482018054806020026020016040519081016040528092919081815260200182805480156119b057602002820191906000526020600020905b8160009054906101000a900473ffffffffffffffffffffffffffffffffffffffff1673ffffffffffffffffffffffffffffffffffffffff1681526020019060010190808311611966575b505050505081526020016005820160009054906101000a900460ff1615151515815260200160068201805480602002602001604051908101604052809291908181526020018280548015611a5957602002820191906000526020600020905b8160009054906101000a900473ffffffffffffffffffffffffffffffffffffffff1673ffffffffffffffffffffffffffffffffffffffff1681526020019060010190808311611a0f575b505050505081526020016007820160009054906101000a900460ff16151515158152505091505090565b600060076000611a916125aa565b73ffffffffffffffffffffffffffffffffffffffff1673ffffffffffffffffffffffffffffffffffffffff168152602001908152602001600020549050611ad66125aa565b73ffffffffffffffffffffffffffffffffffffffff1660038281548110611b0057611aff613da0565b5b906000526020600020906008020160030160009054906101000a900473ffffffffffffffffffffffffffffffffffffffff1673ffffffffffffffffffffffffffffffffffffffff1614611b5257600080fd5b600060076000611b606125aa565b73ffffffffffffffffffffffffffffffffffffffff1673ffffffffffffffffffffffffffffffffffffffff16815260200190815260200160002054905060005b600380549050811015611cd5578160028281548110611bc257611bc1613da0565b5b90600052602060002001541415611cc2576003805480611be557611be4614270565b5b6001900381819060005260206000209060080201600080820160009055600182016000611c129190612f61565b600282016000611c229190612f61565b6003820160006101000a81549073ffffffffffffffffffffffffffffffffffffffff0219169055600482016000611c599190612fa1565b6005820160006101000a81549060ff0219169055600682016000611c7d9190612fa1565b6007820160006101000a81549060ff0219169055505090556002805480611ca757611ca6614270565b5b60019003818190600052602060002001600090559055611cd5565b8080611ccd90613997565b915050611ba0565b505050565b60045481565b60008060009054906101000a900473ffffffffffffffffffffffffffffffffffffffff16905090565b806003805490508110611d51576040517f08c379a0000000000000000000000000000000000000000000000000000000008152600401611d48906138dc565b60405180910390fd5b600060086000611d5f6125aa565b73ffffffffffffffffffffffffffffffffffffffff1673ffffffffffffffffffffffffffffffffffffffff1681526020019081526020016000205414611dda576040517f08c379a0000000000000000000000000000000000000000000000000000000008152600401611dd190614311565b60405180910390fd5b60066000838152602001908152602001600020600601611df86125aa565b9080600181540180825580915050600190039060005260206000200160009091909190916101000a81548173ffffffffffffffffffffffffffffffffffffffff021916908373ffffffffffffffffffffffffffffffffffffffff1602179055508160076000611e656125aa565b73ffffffffffffffffffffffffffffffffffffffff1673ffffffffffffffffffffffffffffffffffffffff1681526020019081526020016000208190555060086000611eaf6125aa565b73ffffffffffffffffffffffffffffffffffffffff1673ffffffffffffffffffffffffffffffffffffffff1681526020019081526020016000206000815480929190611efa90613997565b91905055505050565b6006602052806000526040600020600091509050806000015490806001018054611f2c90613a67565b80601f0160208091040260200160405190810160405280929190818152602001828054611f5890613a67565b8015611fa55780601f10611f7a57610100808354040283529160200191611fa5565b820191906000526020600020905b815481529060010190602001808311611f8857829003601f168201915b505050505090806002018054611fba90613a67565b80601f0160208091040260200160405190810160405280929190818152602001828054611fe690613a67565b80156120335780601f1061200857610100808354040283529160200191612033565b820191906000526020600020905b81548152906001019060200180831161201657829003601f168201915b5050505050908060030160009054906101000a900473ffffffffffffffffffffffffffffffffffffffff16908060050160009054906101000a900460ff16908060070160009054906101000a900460ff16905086565b6120916125aa565b73ffffffffffffffffffffffffffffffffffffffff166120af611ce0565b73ffffffffffffffffffffffffffffffffffffffff1614612105576040517f08c379a00000000000000000000000000000000000000000000000000000000081526004016120fc906140b6565b60405180910390fd5b600073ffffffffffffffffffffffffffffffffffffffff168173ffffffffffffffffffffffffffffffffffffffff161415612175576040517f08c379a000000000000000000000000000000000000000000000000000000000815260040161216c906143a3565b60405180910390fd5b61217e816125b2565b50565b60006008600061218f6125aa565b73ffffffffffffffffffffffffffffffffffffffff1673ffffffffffffffffffffffffffffffffffffffff168152602001908152602001600020541461220a576040517f08c379a00000000000000000000000000000000000000000000000000000000081526004016122019061440f565b60405180910390fd5b670de0b6b3a7640000341461221e57600080fd5b60008251118015612230575060008151115b61223957600080fd5b61224b82826122466125aa565b6127ef565b5050565b60006007600061225d6125aa565b73ffffffffffffffffffffffffffffffffffffffff1673ffffffffffffffffffffffffffffffffffffffff1681526020019081526020016000205490506122a26125aa565b73ffffffffffffffffffffffffffffffffffffffff16600382815481106122cc576122cb613da0565b5b906000526020600020906008020160030160009054906101000a900473ffffffffffffffffffffffffffffffffffffffff1673ffffffffffffffffffffffffffffffffffffffff161461231e57600080fd5b600a54421015612363576040517f08c379a000000000000000000000000000000000000000000000000000000000815260040161235a906141e4565b60405180910390fd5b6000600760006123716125aa565b73ffffffffffffffffffffffffffffffffffffffff1673ffffffffffffffffffffffffffffffffffffffff168152602001908152602001600020549050600115156006600083815260200190815260200160002060070160009054906101000a900460ff16151514612418576040517f08c379a000000000000000000000000000000000000000000000000000000000815260040161240f9061447b565b60405180910390fd5b60006006600083815260200190815260200160002060070160006101000a81548160ff0219169083151502179055506005600081548092919061245a9061449b565b91905055505050565b61246b612fc2565b6013600160138054905061247f91906144c5565b815481106124905761248f613da0565b5b90600052602060002090600402016040518060800160405290816000820180546124b990613a67565b80601f01602080910402602001604051908101604052809291908181526020018280546124e590613a67565b80156125325780601f1061250757610100808354040283529160200191612532565b820191906000526020600020905b81548152906001019060200180831161251557829003601f168201915b505050505081526020016001820160009054906101000a900473ffffffffffffffffffffffffffffffffffffffff1673ffffffffffffffffffffffffffffffffffffffff1673ffffffffffffffffffffffffffffffffffffffff16815260200160028201548152602001600382015481525050905090565b600033905090565b60008060009054906101000a900473ffffffffffffffffffffffffffffffffffffffff169050816000806101000a81548173ffffffffffffffffffffffffffffffffffffffff021916908373ffffffffffffffffffffffffffffffffffffffff1602179055508173ffffffffffffffffffffffffffffffffffffffff168173ffffffffffffffffffffffffffffffffffffffff167f8be0079c531659141344cd1fd0a4f28419497f9722a3daafe3b4186f6b6457e060405160405180910390a35050565b61267e6125aa565b73ffffffffffffffffffffffffffffffffffffffff1661269c611ce0565b73ffffffffffffffffffffffffffffffffffffffff16146126f2576040517f08c379a00000000000000000000000000000000000000000000000000000000081526004016126e9906140b6565b60405180910390fd5b80600160006101000a81548173ffffffffffffffffffffffffffffffffffffffff021916908373ffffffffffffffffffffffffffffffffffffffff16021790555050565b61273e6125aa565b73ffffffffffffffffffffffffffffffffffffffff1661275c611ce0565b73ffffffffffffffffffffffffffffffffffffffff16146127b2576040517f08c379a00000000000000000000000000000000000000000000000000000000081526004016127a9906140b6565b60405180910390fd5b6127ba612c75565b6127c2612d2d565b6000600b60006101000a81548160ff02191690831515021790555060006012819055506127ed612e65565b565b6127f7612f02565b4281600001818152505083816020018190525082816040018190525081816060019073ffffffffffffffffffffffffffffffffffffffff16908173ffffffffffffffffffffffffffffffffffffffff1681525050600067ffffffffffffffff81111561286657612865613590565b5b6040519080825280602002602001820160405280156128945781602001602082028036833780820191505090505b508160800181905250600067ffffffffffffffff8111156128b8576128b7613590565b5b6040519080825280602002602001820160405280156128e65781602001602082028036833780820191505090505b508160c0018190525060018160a00190151590811515815250506003819080600181540180825580915050600190039060005260206000209060080201600090919091909150600082015181600001556020820151816001019080519060200190612952929190612e7c565b50604082015181600201908051906020019061296f929190612e7c565b5060608201518160030160006101000a81548173ffffffffffffffffffffffffffffffffffffffff021916908373ffffffffffffffffffffffffffffffffffffffff16021790555060808201518160040190805190602001906129d3929190613000565b5060a08201518160050160006101000a81548160ff02191690831515021790555060c0820151816006019080519060200190612a10929190613000565b5060e08201518160070160006101000a81548160ff021916908315150217905550505080600660006001600380549050612a4a91906144c5565b8152602001908152602001600020600082015181600001556020820151816001019080519060200190612a7e929190612e7c565b506040820151816002019080519060200190612a9b929190612e7c565b5060608201518160030160006101000a81548173ffffffffffffffffffffffffffffffffffffffff021916908373ffffffffffffffffffffffffffffffffffffffff1602179055506080820151816004019080519060200190612aff929190613000565b5060a08201518160050160006101000a81548160ff02191690831515021790555060c0820151816006019080519060200190612b3c929190613000565b5060e08201518160070160006101000a81548160ff0219169083151502179055509050506001600380549050612b7291906144c5565b600760008473ffffffffffffffffffffffffffffffffffffffff1673ffffffffffffffffffffffffffffffffffffffff16815260200190815260200160002081905550600860008373ffffffffffffffffffffffffffffffffffffffff1673ffffffffffffffffffffffffffffffffffffffff1681526020019081526020016000206000815480929190612c0590613997565b919050555060046000815480929190612c1d90613997565b91905055506001600380549050612c3491906144c5565b7fea590abf0bfe8d6eb00d5263bb7e5739c6821e7f645b0f54984badc27a682e13858585604051612c67939291906144f9565b60405180910390a250505050565b612c7d6125aa565b73ffffffffffffffffffffffffffffffffffffffff16612c9b611ce0565b73ffffffffffffffffffffffffffffffffffffffff1614612cf1576040517f08c379a0000000000000000000000000000000000000000000000000000000008152600401612ce8906140b6565b60405180910390fd5b60005b600554811015612d2a576000600e6000838152602001908152602001600020819055508080612d2290613997565b915050612cf4565b50565b612d356125aa565b73ffffffffffffffffffffffffffffffffffffffff16612d53611ce0565b73ffffffffffffffffffffffffffffffffffffffff1614612da9576040517f08c379a0000000000000000000000000000000000000000000000000000000008152600401612da0906140b6565b60405180910390fd5b60005b600d80549050811015612e62576000600f6000600d8481548110612dd357612dd2613da0565b5b9060005260206000200160009054906101000a900473ffffffffffffffffffffffffffffffffffffffff1673ffffffffffffffffffffffffffffffffffffffff1673ffffffffffffffffffffffffffffffffffffffff16815260200190815260200160002060006101000a81548160ff0219169083151502179055508080612e5a90613997565b915050612dac565b50565b62278d0042612e7491906140d6565b600981905550565b828054612e8890613a67565b90600052602060002090601f016020900481019282612eaa5760008555612ef1565b82601f10612ec357805160ff1916838001178555612ef1565b82800160010185558215612ef1579182015b82811115612ef0578251825591602001919060010190612ed5565b5b509050612efe919061308a565b5090565b604051806101000160405280600081526020016060815260200160608152602001600073ffffffffffffffffffffffffffffffffffffffff16815260200160608152602001600015158152602001606081526020016000151581525090565b508054612f6d90613a67565b6000825580601f10612f7f5750612f9e565b601f016020900490600052602060002090810190612f9d919061308a565b5b50565b5080546000825590600052602060002090810190612fbf919061308a565b50565b604051806080016040528060608152602001600073ffffffffffffffffffffffffffffffffffffffff16815260200160008152602001600081525090565b828054828255906000526020600020908101928215613079579160200282015b828111156130785782518260006101000a81548173ffffffffffffffffffffffffffffffffffffffff021916908373ffffffffffffffffffffffffffffffffffffffff16021790555091602001919060010190613020565b5b509050613086919061308a565b5090565b5b808211156130a357600081600090555060010161308b565b5090565b6000604051905090565b600080fd5b600080fd5b6000819050919050565b6130ce816130bb565b81146130d957600080fd5b50565b6000813590506130eb816130c5565b92915050565b600060208284031215613107576131066130b1565b5b6000613115848285016130dc565b91505092915050565b600073ffffffffffffffffffffffffffffffffffffffff82169050919050565b60006131498261311e565b9050919050565b6131598161313e565b811461316457600080fd5b50565b60008135905061317681613150565b92915050565b600060208284031215613192576131916130b1565b5b60006131a084828501613167565b91505092915050565b6131b28161313e565b82525050565b60006020820190506131cd60008301846131a9565b92915050565b60008115159050919050565b6131e8816131d3565b81146131f357600080fd5b50565b600081359050613205816131df565b92915050565b600060208284031215613221576132206130b1565b5b600061322f848285016131f6565b91505092915050565b613241816130bb565b82525050565b600081519050919050565b600082825260208201905092915050565b60005b83811015613281578082015181840152602081019050613266565b83811115613290576000848401525b50505050565b6000601f19601f8301169050919050565b60006132b282613247565b6132bc8185613252565b93506132cc818560208601613263565b6132d581613296565b840191505092915050565b6132e98161313e565b82525050565b600081519050919050565b600082825260208201905092915050565b6000819050602082019050919050565b600061332783836132e0565b60208301905092915050565b6000602082019050919050565b600061334b826132ef565b61335581856132fa565b93506133608361330b565b8060005b83811015613391578151613378888261331b565b975061338383613333565b925050600181019050613364565b5085935050505092915050565b6133a7816131d3565b82525050565b6000610100830160008301516133c66000860182613238565b50602083015184820360208601526133de82826132a7565b915050604083015184820360408601526133f882826132a7565b915050606083015161340d60608601826132e0565b50608083015184820360808601526134258282613340565b91505060a083015161343a60a086018261339e565b5060c083015184820360c08601526134528282613340565b91505060e083015161346760e086018261339e565b508091505092915050565b6000602082019050818103600083015261348c81846133ad565b905092915050565b61349d816130bb565b82525050565b60006020820190506134b86000830184613494565b92915050565b600082825260208201905092915050565b60006134da82613247565b6134e481856134be565b93506134f4818560208601613263565b6134fd81613296565b840191505092915050565b613511816131d3565b82525050565b600060c08201905061352c6000830189613494565b818103602083015261353e81886134cf565b9050818103604083015261355281876134cf565b905061356160608301866131a9565b61356e6080830185613508565b61357b60a0830184613508565b979650505050505050565b600080fd5b600080fd5b7f4e487b7100000000000000000000000000000000000000000000000000000000600052604160045260246000fd5b6135c882613296565b810181811067ffffffffffffffff821117156135e7576135e6613590565b5b80604052505050565b60006135fa6130a7565b905061360682826135bf565b919050565b600067ffffffffffffffff82111561362657613625613590565b5b61362f82613296565b9050602081019050919050565b82818337600083830152505050565b600061365e6136598461360b565b6135f0565b90508281526020810184848401111561367a5761367961358b565b5b61368584828561363c565b509392505050565b600082601f8301126136a2576136a1613586565b5b81356136b284826020860161364b565b91505092915050565b600080604083850312156136d2576136d16130b1565b5b600083013567ffffffffffffffff8111156136f0576136ef6130b6565b5b6136fc8582860161368d565b925050602083013567ffffffffffffffff81111561371d5761371c6130b6565b5b6137298582860161368d565b9150509250929050565b6000608083016000830151848203600086015261375082826132a7565b915050602083015161376560208601826132e0565b5060408301516137786040860182613238565b50606083015161378b6060860182613238565b508091505092915050565b600060208201905081810360008301526137b08184613733565b905092915050565b7f566f74696e67206973206e6f7420616374697665000000000000000000000000600082015250565b60006137ee6014836134be565b91506137f9826137b8565b602082019050919050565b6000602082019050818103600083015261381d816137e1565b9050919050565b7f596f7520616c726561647920766f746564000000000000000000000000000000600082015250565b600061385a6011836134be565b915061386582613824565b602082019050919050565b600060208201905081810360008301526138898161384d565b9050919050565b7f506172747920646f6573206e6f74206578697374000000000000000000000000600082015250565b60006138c66014836134be565b91506138d182613890565b602082019050919050565b600060208201905081810360008301526138f5816138b9565b9050919050565b7f5061727479206973206e6f742072656769737465726564000000000000000000600082015250565b60006139326017836134be565b915061393d826138fc565b602082019050919050565b6000602082019050818103600083015261396181613925565b9050919050565b7f4e487b7100000000000000000000000000000000000000000000000000000000600052601160045260246000fd5b60006139a2826130bb565b91507fffffffffffffffffffffffffffffffffffffffffffffffffffffffffffffffff8214156139d5576139d4613968565b5b600182019050919050565b60008160001c9050919050565b6000819050919050565b6000613a0a613a05836139e0565b6139ed565b9050919050565b613a1a816130bb565b82525050565b6000613a2c8383613a11565b60208301905092915050565b7f4e487b7100000000000000000000000000000000000000000000000000000000600052602260045260246000fd5b60006002820490506001821680613a7f57607f821691505b60208210811415613a9357613a92613a38565b5b50919050565b600081905092915050565b60008190508160005260206000209050919050565b60008154613ac681613a67565b613ad08186613a99565b94506001821660008114613aeb5760018114613afd57613b30565b60ff1983168652602086019350613b30565b613b0685613aa4565b60005b83811015613b2857815481890152600182019150602081019050613b09565b808801955050505b50505092915050565b6000613b458383613ab9565b905092915050565b600073ffffffffffffffffffffffffffffffffffffffff82169050919050565b6000613b80613b7b836139e0565b613b4d565b9050919050565b613b908161313e565b82525050565b6000613ba28383613b87565b60208301905092915050565b600081549050919050565b600081905092915050565b60008190508160005260206000209050919050565b6000613be58254613b6d565b9050919050565b6000600182019050919050565b6000613c0482613bae565b613c0e8185613bb9565b9350613c1983613bc4565b8060005b83811015613c5157613c2e82613bd9565b613c388882613b96565b9750613c4383613bec565b925050600181019050613c1d565b5085935050505092915050565b6000613c6a8383613bf9565b905092915050565b600060ff82169050919050565b6000613c92613c8d836139e0565b613c72565b9050919050565b613ca2816131d3565b82525050565b6000613cb48383613c99565b60208301905092915050565b60008083016000808401549050613cd6816139f7565b613ce08682613a20565b95505060018401613cf18682613b39565b95505060028401613d028682613b39565b95505060038401549050613d1581613b6d565b613d1f8682613b96565b95505060048401613d308682613c5e565b95505060058401549050613d4381613c7f565b613d4d8682613ca8565b95505060068401613d5e8682613c5e565b95505060078401549050613d7181613c7f565b613d7b8682613ca8565b955050849250505092915050565b6000613d958284613cc0565b915081905092915050565b7f4e487b7100000000000000000000000000000000000000000000000000000000600052603260045260246000fd5b7f4d656d62657220616c72656164792062656c6f6e677320746f2061207061727460008201527f7900000000000000000000000000000000000000000000000000000000000000602082015250565b6000613e2b6021836134be565b9150613e3682613dcf565b604082019050919050565b60006020820190508181036000830152613e5a81613e1e565b9050919050565b7f456c656374696f6e7320617265206e6f74207265616479207965740000000000600082015250565b6000613e97601b836134be565b9150613ea282613e61565b602082019050919050565b60006020820190508181036000830152613ec681613e8a565b9050919050565b7f506172747920697320616c726561647920616374697665000000000000000000600082015250565b6000613f036017836134be565b9150613f0e82613ecd565b602082019050919050565b60006020820190508181036000830152613f3281613ef6565b9050919050565b60008154613f4681613a67565b613f5081866134be565b94506001821660008114613f6b5760018114613f7d57613fb0565b60ff1983168652602086019350613fb0565b613f8685613aa4565b60005b83811015613fa857815481890152600182019150602081019050613f89565b808801955050505b50505092915050565b60006060820190508181036000830152613fd38186613f39565b90508181036020830152613fe78185613f39565b9050613ff660408301846131a9565b949350505050565b7f456c656374696f6e732061726520616374697665000000000000000000000000600082015250565b60006140346014836134be565b915061403f82613ffe565b602082019050919050565b6000602082019050818103600083015261406381614027565b9050919050565b7f4f776e61626c653a2063616c6c6572206973206e6f7420746865206f776e6572600082015250565b60006140a06020836134be565b91506140ab8261406a565b602082019050919050565b600060208201905081810360008301526140cf81614093565b9050919050565b60006140e1826130bb565b91506140ec836130bb565b9250827fffffffffffffffffffffffffffffffffffffffffffffffffffffffffffffffff0382111561412157614120613968565b5b828201905092915050565b7f506172747920616c726561647920686173207468697320737461747573000000600082015250565b6000614162601d836134be565b915061416d8261412c565b602082019050919050565b6000602082019050818103600083015261419181614155565b9050919050565b7f456c656374696f6e7320617265206e6f7420656e646564207965740000000000600082015250565b60006141ce601b836134be565b91506141d982614198565b602082019050919050565b600060208201905081810360008301526141fd816141c1565b9050919050565b7f596f7520646f206e6f742062656c6f6e6720746f206120706172747900000000600082015250565b600061423a601c836134be565b915061424582614204565b602082019050919050565b600060208201905081810360008301526142698161422d565b9050919050565b7f4e487b7100000000000000000000000000000000000000000000000000000000600052603160045260246000fd5b7f537570706f7274657220616c72656164792062656c6f6e677320746f2061207060008201527f6172747900000000000000000000000000000000000000000000000000000000602082015250565b60006142fb6024836134be565b91506143068261429f565b604082019050919050565b6000602082019050818103600083015261432a816142ee565b9050919050565b7f4f776e61626c653a206e6577206f776e657220697320746865207a65726f206160008201527f6464726573730000000000000000000000000000000000000000000000000000602082015250565b600061438d6026836134be565b915061439882614331565b604082019050919050565b600060208201905081810360008301526143bc81614380565b9050919050565b7f596f7520616c7265616479206f776e2061207061727479000000000000000000600082015250565b60006143f96017836134be565b9150614404826143c3565b602082019050919050565b60006020820190508181036000830152614428816143ec565b9050919050565b7f5061727479206973206e6f742061637469766500000000000000000000000000600082015250565b60006144656013836134be565b91506144708261442f565b602082019050919050565b6000602082019050818103600083015261449481614458565b9050919050565b60006144a6826130bb565b915060008214156144ba576144b9613968565b5b600182039050919050565b60006144d0826130bb565b91506144db836130bb565b9250828210156144ee576144ed613968565b5b828203905092915050565b6000606082019050818103600083015261451381866134cf565b9050818103602083015261452781856134cf565b905061453660408301846131a9565b94935050505056fea26469706673582212202ab4b63eb8c76626f5fd8402f9d209c8a89abc29989903988171b405392fec0464736f6c634300080b0033",
  "immutableReferences": {},
  "source": "// SPDX-License-Identifier: MIT\n\npragma solidity ^0.8.0;\n\nimport \"./ElectionsFactory.sol\";\n\ncontract ElectionsHelper is ElectionsFactory{\n\n    struct Winner {\n        string partyName;\n        address leader;\n        uint votes;\n        uint electionDate;\n    }\n\n    Winner[] internal winners;\n\n    modifier onlyVoter(){\n        require(userVoted[_msgSender()] == false, \"You already voted\");\n        _;\n    }\n\n    modifier _isVoteActive(){\n        require(block.timestamp < ending, \"Voting is not active\");\n        _;\n    }\n\n    function vote(uint partyId) external _isVoteActive  onlyVoter _partyExists(partyId) _isCandidate(partyId){\n        partyVoteCount[partyId]++;\n        votersCount++;\n        voters.push(_msgSender());\n        userVoted[_msgSender()] = true;\n\n        emit VoteRegistered(idToParty[partyId], block.timestamp);\n    }\n\n    function getVoteResults() external onlyRegulator _ended {\n        uint winnerId = 0;\n        uint maxVotes = 0;\n        for(uint i = 0; i < parties.length; i++){\n            if(partyVoteCount[i] > maxVotes){\n                maxVotes = partyVoteCount[i];\n                winnerId = i;\n            }\n        }\n        winners.push(Winner(idToParty[winnerId].name, idToParty[winnerId].leader, partyVoteCount[winnerId], block.timestamp));\n        _setPresident(idToParty[winnerId].leader);\n        _closeElection();\n    }\n\n    function lastWinner() external view returns (Winner memory){\n        return winners[winners.length - 1];\n    }\n\n}",
  "sourcePath": "/Users/nolannbiron/Documents/PROJETS/solidity/democracy/contracts/ElectionsHelper.sol",
  "compiler": {
    "name": "solc",
    "version": "0.8.11+commit.d7f03943.Emscripten.clang"
  },
  "schemaVersion": "3.4.4",
  "updatedAt": "2022-01-03T11:29:29.776Z",
  "devdoc": {
    "kind": "dev",
    "methods": {
      "regulator()": {
        "details": "Returns the address of the current owner."
      },
      "renounceOwnership()": {
        "details": "Leaves the contract without owner. It will not be possible to call `onlyOwner` functions anymore. Can only be called by the current owner. NOTE: Renouncing ownership will leave the contract without an owner, thereby removing any functionality that is only available to the owner."
      },
      "transferOwnership(address)": {
        "details": "Transfers ownership of the contract to a new account (`newOwner`). Can only be called by the current owner."
      }
    },
    "version": 1
  },
  "userdoc": {
    "kind": "user",
    "methods": {},
    "version": 1
  }
}