{
  "contractName": "ElectionsFactory",
  "abi": [
    {
      "inputs": [],
      "stateMutability": "nonpayable",
      "type": "constructor"
    },
    {
      "anonymous": false,
      "inputs": [
        {
          "indexed": true,
          "internalType": "address",
          "name": "previousOwner",
          "type": "address"
        },
        {
          "indexed": true,
          "internalType": "address",
          "name": "newOwner",
          "type": "address"
        }
      ],
      "name": "OwnershipTransferred",
      "type": "event"
    },
    {
      "anonymous": false,
      "inputs": [
        {
          "indexed": true,
          "internalType": "uint256",
          "name": "id",
          "type": "uint256"
        },
        {
          "indexed": false,
          "internalType": "string",
          "name": "name",
          "type": "string"
        },
        {
          "indexed": false,
          "internalType": "string",
          "name": "symbol",
          "type": "string"
        },
        {
          "indexed": false,
          "internalType": "address",
          "name": "leader",
          "type": "address"
        }
      ],
      "name": "PartyCreated",
      "type": "event"
    },
    {
      "anonymous": false,
      "inputs": [
        {
          "indexed": false,
          "internalType": "string",
          "name": "name",
          "type": "string"
        },
        {
          "indexed": false,
          "internalType": "string",
          "name": "symbol",
          "type": "string"
        },
        {
          "indexed": false,
          "internalType": "address",
          "name": "leader",
          "type": "address"
        }
      ],
      "name": "PartyRegisteredForElection",
      "type": "event"
    },
    {
      "anonymous": false,
      "inputs": [
        {
          "components": [
            {
              "internalType": "uint256",
              "name": "creationTime",
              "type": "uint256"
            },
            {
              "internalType": "string",
              "name": "name",
              "type": "string"
            },
            {
              "internalType": "string",
              "name": "symbol",
              "type": "string"
            },
            {
              "internalType": "address",
              "name": "leader",
              "type": "address"
            },
            {
              "internalType": "address[]",
              "name": "members",
              "type": "address[]"
            },
            {
              "internalType": "bool",
              "name": "active",
              "type": "bool"
            },
            {
              "internalType": "address[]",
              "name": "supporters",
              "type": "address[]"
            },
            {
              "internalType": "bool",
              "name": "registered",
              "type": "bool"
            }
          ],
          "indexed": true,
          "internalType": "struct PartiesFactory.Party",
          "name": "party",
          "type": "tuple"
        },
        {
          "indexed": false,
          "internalType": "uint256",
          "name": "time",
          "type": "uint256"
        }
      ],
      "name": "VoteRegistered",
      "type": "event"
    },
    {
      "inputs": [
        {
          "internalType": "address",
          "name": "member",
          "type": "address"
        }
      ],
      "name": "addMemberToParty",
      "outputs": [],
      "stateMutability": "nonpayable",
      "type": "function"
    },
    {
      "inputs": [
        {
          "internalType": "uint256",
          "name": "partyId",
          "type": "uint256"
        }
      ],
      "name": "addSupporter",
      "outputs": [],
      "stateMutability": "nonpayable",
      "type": "function"
    },
    {
      "inputs": [
        {
          "internalType": "bool",
          "name": "status",
          "type": "bool"
        }
      ],
      "name": "changePartyStatus",
      "outputs": [],
      "stateMutability": "nonpayable",
      "type": "function"
    },
    {
      "inputs": [
        {
          "internalType": "string",
          "name": "name",
          "type": "string"
        },
        {
          "internalType": "string",
          "name": "symbol",
          "type": "string"
        }
      ],
      "name": "createParty",
      "outputs": [],
      "stateMutability": "payable",
      "type": "function"
    },
    {
      "inputs": [],
      "name": "deleteParty",
      "outputs": [],
      "stateMutability": "nonpayable",
      "type": "function"
    },
    {
      "inputs": [
        {
          "internalType": "uint256",
          "name": "index",
          "type": "uint256"
        }
      ],
      "name": "getParty",
      "outputs": [
        {
          "components": [
            {
              "internalType": "uint256",
              "name": "creationTime",
              "type": "uint256"
            },
            {
              "internalType": "string",
              "name": "name",
              "type": "string"
            },
            {
              "internalType": "string",
              "name": "symbol",
              "type": "string"
            },
            {
              "internalType": "address",
              "name": "leader",
              "type": "address"
            },
            {
              "internalType": "address[]",
              "name": "members",
              "type": "address[]"
            },
            {
              "internalType": "bool",
              "name": "active",
              "type": "bool"
            },
            {
              "internalType": "address[]",
              "name": "supporters",
              "type": "address[]"
            },
            {
              "internalType": "bool",
              "name": "registered",
              "type": "bool"
            }
          ],
          "internalType": "struct PartiesFactory.Party",
          "name": "",
          "type": "tuple"
        }
      ],
      "stateMutability": "view",
      "type": "function"
    },
    {
      "inputs": [],
      "name": "getPartyFromAddress",
      "outputs": [
        {
          "components": [
            {
              "internalType": "uint256",
              "name": "creationTime",
              "type": "uint256"
            },
            {
              "internalType": "string",
              "name": "name",
              "type": "string"
            },
            {
              "internalType": "string",
              "name": "symbol",
              "type": "string"
            },
            {
              "internalType": "address",
              "name": "leader",
              "type": "address"
            },
            {
              "internalType": "address[]",
              "name": "members",
              "type": "address[]"
            },
            {
              "internalType": "bool",
              "name": "active",
              "type": "bool"
            },
            {
              "internalType": "address[]",
              "name": "supporters",
              "type": "address[]"
            },
            {
              "internalType": "bool",
              "name": "registered",
              "type": "bool"
            }
          ],
          "internalType": "struct PartiesFactory.Party",
          "name": "",
          "type": "tuple"
        }
      ],
      "stateMutability": "view",
      "type": "function"
    },
    {
      "inputs": [
        {
          "internalType": "uint256",
          "name": "",
          "type": "uint256"
        }
      ],
      "name": "idToParty",
      "outputs": [
        {
          "internalType": "uint256",
          "name": "creationTime",
          "type": "uint256"
        },
        {
          "internalType": "string",
          "name": "name",
          "type": "string"
        },
        {
          "internalType": "string",
          "name": "symbol",
          "type": "string"
        },
        {
          "internalType": "address",
          "name": "leader",
          "type": "address"
        },
        {
          "internalType": "bool",
          "name": "active",
          "type": "bool"
        },
        {
          "internalType": "bool",
          "name": "registered",
          "type": "bool"
        }
      ],
      "stateMutability": "view",
      "type": "function"
    },
    {
      "inputs": [],
      "name": "partiesCount",
      "outputs": [
        {
          "internalType": "uint256",
          "name": "",
          "type": "uint256"
        }
      ],
      "stateMutability": "view",
      "type": "function"
    },
    {
      "inputs": [],
      "name": "president",
      "outputs": [
        {
          "internalType": "address",
          "name": "",
          "type": "address"
        }
      ],
      "stateMutability": "view",
      "type": "function"
    },
    {
      "inputs": [],
      "name": "regulator",
      "outputs": [
        {
          "internalType": "address",
          "name": "",
          "type": "address"
        }
      ],
      "stateMutability": "view",
      "type": "function"
    },
    {
      "inputs": [],
      "name": "renounceOwnership",
      "outputs": [],
      "stateMutability": "nonpayable",
      "type": "function"
    },
    {
      "inputs": [
        {
          "internalType": "address",
          "name": "newRegulator",
          "type": "address"
        }
      ],
      "name": "transferOwnership",
      "outputs": [],
      "stateMutability": "nonpayable",
      "type": "function"
    },
    {
      "inputs": [],
      "name": "startNewElection",
      "outputs": [],
      "stateMutability": "nonpayable",
      "type": "function"
    },
    {
      "inputs": [],
      "name": "registerPartyToElection",
      "outputs": [],
      "stateMutability": "payable",
      "type": "function"
    },
    {
      "inputs": [],
      "name": "retirePartyFromElection",
      "outputs": [],
      "stateMutability": "nonpayable",
      "type": "function"
    }
  ],
  "bytecode": "0x6080604052426009556000600b60006101000a81548160ff0219169083151502179055503480156200003057600080fd5b506200005162000045620000a760201b60201c565b620000af60201b60201c565b62000061620000a760201b60201c565b600160006101000a81548173ffffffffffffffffffffffffffffffffffffffff021916908373ffffffffffffffffffffffffffffffffffffffff16021790555062000173565b600033905090565b60008060009054906101000a900473ffffffffffffffffffffffffffffffffffffffff169050816000806101000a81548173ffffffffffffffffffffffffffffffffffffffff021916908373ffffffffffffffffffffffffffffffffffffffff1602179055508173ffffffffffffffffffffffffffffffffffffffff168173ffffffffffffffffffffffffffffffffffffffff167f8be0079c531659141344cd1fd0a4f28419497f9722a3daafe3b4186f6b6457e060405160405180910390a35050565b6134a980620001836000396000f3fe6080604052600436106100f35760003560e01c8063bdb810781161008a578063ebf3d9aa11610059578063ebf3d9aa146102ab578063f2fde38b146102ed578063fc1ecd5714610316578063fdfe55f214610332576100f3565b8063bdb8107814610215578063c56a35401461022c578063dd8fee1414610257578063de0913d914610282576100f3565b80635764b651116100c65780635764b6511461016d578063715018a61461019657806394758218146101ad578063a1338f37146101ea576100f3565b80630da12bcf146100f8578063324a1376146101215780633262d97c1461014c57806347f33fb514610156575b600080fd5b34801561010457600080fd5b5061011f600480360381019061011a9190612561565b610349565b005b34801561012d57600080fd5b506101366105fa565b604051610143919061259d565b60405180910390f35b610154610620565b005b34801561016257600080fd5b5061016b6108cf565b005b34801561017957600080fd5b50610194600480360381019061018f91906125f0565b610ab6565b005b3480156101a257600080fd5b506101ab610c6d565b005b3480156101b957600080fd5b506101d460048036038101906101cf9190612653565b610cf5565b6040516101e191906128ba565b60405180910390f35b3480156101f657600080fd5b506101ff610ff9565b60405161020c91906128ba565b60405180910390f35b34801561022157600080fd5b5061022a6113d0565b005b34801561023857600080fd5b50610241611627565b60405161024e91906128eb565b60405180910390f35b34801561026357600080fd5b5061026c61162d565b604051610279919061259d565b60405180910390f35b34801561028e57600080fd5b506102a960048036038101906102a49190612653565b611656565b005b3480156102b757600080fd5b506102d260048036038101906102cd9190612653565b611850565b6040516102e49695949392919061295f565b60405180910390f35b3480156102f957600080fd5b50610314600480360381019061030f9190612561565b6119d6565b005b610330600480360381019061032b9190612b03565b611ace565b005b34801561033e57600080fd5b50610347611b9c565b005b600060076000610357611db0565b73ffffffffffffffffffffffffffffffffffffffff1673ffffffffffffffffffffffffffffffffffffffff16815260200190815260200160002054905061039c611db0565b73ffffffffffffffffffffffffffffffffffffffff16600382815481106103c6576103c5612b7b565b5b906000526020600020906008020160030160009054906101000a900473ffffffffffffffffffffffffffffffffffffffff1673ffffffffffffffffffffffffffffffffffffffff161461041857600080fd5b6000600860008473ffffffffffffffffffffffffffffffffffffffff1673ffffffffffffffffffffffffffffffffffffffff168152602001908152602001600020541461049a576040517f08c379a000000000000000000000000000000000000000000000000000000000815260040161049190612c1c565b60405180910390fd5b6000600760006104a8611db0565b73ffffffffffffffffffffffffffffffffffffffff1673ffffffffffffffffffffffffffffffffffffffff16815260200190815260200160002054905060066000828152602001908152602001600020600401839080600181540180825580915050600190039060005260206000200160009091909190916101000a81548173ffffffffffffffffffffffffffffffffffffffff021916908373ffffffffffffffffffffffffffffffffffffffff16021790555080600760008573ffffffffffffffffffffffffffffffffffffffff1673ffffffffffffffffffffffffffffffffffffffff16815260200190815260200160002081905550600860008473ffffffffffffffffffffffffffffffffffffffff1673ffffffffffffffffffffffffffffffffffffffff16815260200190815260200160002060008154809291906105f090612c6b565b9190505550505050565b600160009054906101000a900473ffffffffffffffffffffffffffffffffffffffff1681565b60006007600061062e611db0565b73ffffffffffffffffffffffffffffffffffffffff1673ffffffffffffffffffffffffffffffffffffffff168152602001908152602001600020549050610673611db0565b73ffffffffffffffffffffffffffffffffffffffff166003828154811061069d5761069c612b7b565b5b906000526020600020906008020160030160009054906101000a900473ffffffffffffffffffffffffffffffffffffffff1673ffffffffffffffffffffffffffffffffffffffff16146106ef57600080fd5b600954421015610734576040517f08c379a000000000000000000000000000000000000000000000000000000000815260040161072b90612d00565b60405180910390fd5b600060076000610742611db0565b73ffffffffffffffffffffffffffffffffffffffff1673ffffffffffffffffffffffffffffffffffffffff168152602001908152602001600020549050600015156006600083815260200190815260200160002060070160009054906101000a900460ff161515146107e9576040517f08c379a00000000000000000000000000000000000000000000000000000000081526004016107e090612d6c565b60405180910390fd5b60016006600083815260200190815260200160002060070160006101000a81548160ff0219169083151502179055506005600081548092919061082b90612c6b565b91905055507fdc99320e451a851ad160a0503e6238022c25b3a2b75d8c4a955b59435b8dda2060066000838152602001908152602001600020600101600660008481526020019081526020016000206002016006600085815260200190815260200160002060030160009054906101000a900473ffffffffffffffffffffffffffffffffffffffff166040516108c393929190612e82565b60405180910390a15050565b600954421015610914576040517f08c379a000000000000000000000000000000000000000000000000000000000815260040161090b90612d00565b60405180910390fd5b60001515600b60009054906101000a900460ff1615151461096a576040517f08c379a000000000000000000000000000000000000000000000000000000000815260040161096190612f13565b60405180910390fd5b610972611db0565b73ffffffffffffffffffffffffffffffffffffffff1661099061162d565b73ffffffffffffffffffffffffffffffffffffffff16146109e6576040517f08c379a00000000000000000000000000000000000000000000000000000000081526004016109dd90612f7f565b60405180910390fd5b600a426109f39190612f9f565b600a819055506001600b60006101000a81548160ff02191690831515021790555060005b600554811015610ab3576006600082815260200190815260200160002060070160009054906101000a900460ff1615610aa057600c81908060018154018082558091505060019003906000526020600020016000909190919091505560016011600083815260200190815260200160002060006101000a81548160ff0219169083151502179055505b8080610aab90612c6b565b915050610a17565b50565b600060076000610ac4611db0565b73ffffffffffffffffffffffffffffffffffffffff1673ffffffffffffffffffffffffffffffffffffffff168152602001908152602001600020549050610b09611db0565b73ffffffffffffffffffffffffffffffffffffffff1660038281548110610b3357610b32612b7b565b5b906000526020600020906008020160030160009054906101000a900473ffffffffffffffffffffffffffffffffffffffff1673ffffffffffffffffffffffffffffffffffffffff1614610b8557600080fd5b600060076000610b93611db0565b73ffffffffffffffffffffffffffffffffffffffff1673ffffffffffffffffffffffffffffffffffffffff1681526020019081526020016000205490508215156006600083815260200190815260200160002060050160009054906101000a900460ff1615151415610c3a576040517f08c379a0000000000000000000000000000000000000000000000000000000008152600401610c3190613041565b60405180910390fd5b826006600083815260200190815260200160002060050160006101000a81548160ff021916908315150217905550505050565b610c75611db0565b73ffffffffffffffffffffffffffffffffffffffff16610c9361162d565b73ffffffffffffffffffffffffffffffffffffffff1614610ce9576040517f08c379a0000000000000000000000000000000000000000000000000000000008152600401610ce090612f7f565b60405180910390fd5b610cf36000611db8565b565b610cfd612302565b600660008381526020019081526020016000206040518061010001604052908160008201548152602001600182018054610d3690612dbb565b80601f0160208091040260200160405190810160405280929190818152602001828054610d6290612dbb565b8015610daf5780601f10610d8457610100808354040283529160200191610daf565b820191906000526020600020905b815481529060010190602001808311610d9257829003601f168201915b50505050508152602001600282018054610dc890612dbb565b80601f0160208091040260200160405190810160405280929190818152602001828054610df490612dbb565b8015610e415780601f10610e1657610100808354040283529160200191610e41565b820191906000526020600020905b815481529060010190602001808311610e2457829003601f168201915b505050505081526020016003820160009054906101000a900473ffffffffffffffffffffffffffffffffffffffff1673ffffffffffffffffffffffffffffffffffffffff1673ffffffffffffffffffffffffffffffffffffffff16815260200160048201805480602002602001604051908101604052809291908181526020018280548015610f2557602002820191906000526020600020905b8160009054906101000a900473ffffffffffffffffffffffffffffffffffffffff1673ffffffffffffffffffffffffffffffffffffffff1681526020019060010190808311610edb575b505050505081526020016005820160009054906101000a900460ff1615151515815260200160068201805480602002602001604051908101604052809291908181526020018280548015610fce57602002820191906000526020600020905b8160009054906101000a900473ffffffffffffffffffffffffffffffffffffffff1673ffffffffffffffffffffffffffffffffffffffff1681526020019060010190808311610f84575b505050505081526020016007820160009054906101000a900460ff1615151515815250509050919050565b611001612302565b60006008600061100f611db0565b73ffffffffffffffffffffffffffffffffffffffff1673ffffffffffffffffffffffffffffffffffffffff168152602001908152602001600020541161108a576040517f08c379a0000000000000000000000000000000000000000000000000000000008152600401611081906130ad565b60405180910390fd5b600060076000611098611db0565b73ffffffffffffffffffffffffffffffffffffffff1673ffffffffffffffffffffffffffffffffffffffff16815260200190815260200160002054905060066000828152602001908152602001600020604051806101000160405290816000820154815260200160018201805461110e90612dbb565b80601f016020809104026020016040519081016040528092919081815260200182805461113a90612dbb565b80156111875780601f1061115c57610100808354040283529160200191611187565b820191906000526020600020905b81548152906001019060200180831161116a57829003601f168201915b505050505081526020016002820180546111a090612dbb565b80601f01602080910402602001604051908101604052809291908181526020018280546111cc90612dbb565b80156112195780601f106111ee57610100808354040283529160200191611219565b820191906000526020600020905b8154815290600101906020018083116111fc57829003601f168201915b505050505081526020016003820160009054906101000a900473ffffffffffffffffffffffffffffffffffffffff1673ffffffffffffffffffffffffffffffffffffffff1673ffffffffffffffffffffffffffffffffffffffff168152602001600482018054806020026020016040519081016040528092919081815260200182805480156112fd57602002820191906000526020600020905b8160009054906101000a900473ffffffffffffffffffffffffffffffffffffffff1673ffffffffffffffffffffffffffffffffffffffff16815260200190600101908083116112b3575b505050505081526020016005820160009054906101000a900460ff16151515158152602001600682018054806020026020016040519081016040528092919081815260200182805480156113a657602002820191906000526020600020905b8160009054906101000a900473ffffffffffffffffffffffffffffffffffffffff1673ffffffffffffffffffffffffffffffffffffffff168152602001906001019080831161135c575b505050505081526020016007820160009054906101000a900460ff16151515158152505091505090565b6000600760006113de611db0565b73ffffffffffffffffffffffffffffffffffffffff1673ffffffffffffffffffffffffffffffffffffffff168152602001908152602001600020549050611423611db0565b73ffffffffffffffffffffffffffffffffffffffff166003828154811061144d5761144c612b7b565b5b906000526020600020906008020160030160009054906101000a900473ffffffffffffffffffffffffffffffffffffffff1673ffffffffffffffffffffffffffffffffffffffff161461149f57600080fd5b6000600760006114ad611db0565b73ffffffffffffffffffffffffffffffffffffffff1673ffffffffffffffffffffffffffffffffffffffff16815260200190815260200160002054905060005b60038054905081101561162257816002828154811061150f5761150e612b7b565b5b9060005260206000200154141561160f576003805480611532576115316130cd565b5b600190038181906000526020600020906008020160008082016000905560018201600061155f9190612361565b60028201600061156f9190612361565b6003820160006101000a81549073ffffffffffffffffffffffffffffffffffffffff02191690556004820160006115a691906123a1565b6005820160006101000a81549060ff02191690556006820160006115ca91906123a1565b6007820160006101000a81549060ff02191690555050905560028054806115f4576115f36130cd565b5b60019003818190600052602060002001600090559055611622565b808061161a90612c6b565b9150506114ed565b505050565b60045481565b60008060009054906101000a900473ffffffffffffffffffffffffffffffffffffffff16905090565b80600380549050811061169e576040517f08c379a000000000000000000000000000000000000000000000000000000000815260040161169590613148565b60405180910390fd5b6000600860006116ac611db0565b73ffffffffffffffffffffffffffffffffffffffff1673ffffffffffffffffffffffffffffffffffffffff1681526020019081526020016000205414611727576040517f08c379a000000000000000000000000000000000000000000000000000000000815260040161171e906131da565b60405180910390fd5b60066000838152602001908152602001600020600601611745611db0565b9080600181540180825580915050600190039060005260206000200160009091909190916101000a81548173ffffffffffffffffffffffffffffffffffffffff021916908373ffffffffffffffffffffffffffffffffffffffff16021790555081600760006117b2611db0565b73ffffffffffffffffffffffffffffffffffffffff1673ffffffffffffffffffffffffffffffffffffffff16815260200190815260200160002081905550600860006117fc611db0565b73ffffffffffffffffffffffffffffffffffffffff1673ffffffffffffffffffffffffffffffffffffffff168152602001908152602001600020600081548092919061184790612c6b565b91905055505050565b600660205280600052604060002060009150905080600001549080600101805461187990612dbb565b80601f01602080910402602001604051908101604052809291908181526020018280546118a590612dbb565b80156118f25780601f106118c7576101008083540402835291602001916118f2565b820191906000526020600020905b8154815290600101906020018083116118d557829003601f168201915b50505050509080600201805461190790612dbb565b80601f016020809104026020016040519081016040528092919081815260200182805461193390612dbb565b80156119805780601f1061195557610100808354040283529160200191611980565b820191906000526020600020905b81548152906001019060200180831161196357829003601f168201915b5050505050908060030160009054906101000a900473ffffffffffffffffffffffffffffffffffffffff16908060050160009054906101000a900460ff16908060070160009054906101000a900460ff16905086565b6119de611db0565b73ffffffffffffffffffffffffffffffffffffffff166119fc61162d565b73ffffffffffffffffffffffffffffffffffffffff1614611a52576040517f08c379a0000000000000000000000000000000000000000000000000000000008152600401611a4990612f7f565b60405180910390fd5b600073ffffffffffffffffffffffffffffffffffffffff168173ffffffffffffffffffffffffffffffffffffffff161415611ac2576040517f08c379a0000000000000000000000000000000000000000000000000000000008152600401611ab99061326c565b60405180910390fd5b611acb81611db8565b50565b600060086000611adc611db0565b73ffffffffffffffffffffffffffffffffffffffff1673ffffffffffffffffffffffffffffffffffffffff1681526020019081526020016000205414611b57576040517f08c379a0000000000000000000000000000000000000000000000000000000008152600401611b4e906132d8565b60405180910390fd5b670de0b6b3a76400003414611b6b57600080fd5b60008251118015611b7d575060008151115b611b8657600080fd5b611b988282611b93611db0565b611e7c565b5050565b600060076000611baa611db0565b73ffffffffffffffffffffffffffffffffffffffff1673ffffffffffffffffffffffffffffffffffffffff168152602001908152602001600020549050611bef611db0565b73ffffffffffffffffffffffffffffffffffffffff1660038281548110611c1957611c18612b7b565b5b906000526020600020906008020160030160009054906101000a900473ffffffffffffffffffffffffffffffffffffffff1673ffffffffffffffffffffffffffffffffffffffff1614611c6b57600080fd5b600a54421015611cb0576040517f08c379a0000000000000000000000000000000000000000000000000000000008152600401611ca790613344565b60405180910390fd5b600060076000611cbe611db0565b73ffffffffffffffffffffffffffffffffffffffff1673ffffffffffffffffffffffffffffffffffffffff168152602001908152602001600020549050600115156006600083815260200190815260200160002060070160009054906101000a900460ff16151514611d65576040517f08c379a0000000000000000000000000000000000000000000000000000000008152600401611d5c906133b0565b60405180910390fd5b60006006600083815260200190815260200160002060070160006101000a81548160ff02191690831515021790555060056000815480929190611da7906133d0565b91905055505050565b600033905090565b60008060009054906101000a900473ffffffffffffffffffffffffffffffffffffffff169050816000806101000a81548173ffffffffffffffffffffffffffffffffffffffff021916908373ffffffffffffffffffffffffffffffffffffffff1602179055508173ffffffffffffffffffffffffffffffffffffffff168173ffffffffffffffffffffffffffffffffffffffff167f8be0079c531659141344cd1fd0a4f28419497f9722a3daafe3b4186f6b6457e060405160405180910390a35050565b611e84612302565b4281600001818152505083816020018190525082816040018190525081816060019073ffffffffffffffffffffffffffffffffffffffff16908173ffffffffffffffffffffffffffffffffffffffff1681525050600067ffffffffffffffff811115611ef357611ef26129d8565b5b604051908082528060200260200182016040528015611f215781602001602082028036833780820191505090505b508160800181905250600067ffffffffffffffff811115611f4557611f446129d8565b5b604051908082528060200260200182016040528015611f735781602001602082028036833780820191505090505b508160c0018190525060018160a00190151590811515815250506003819080600181540180825580915050600190039060005260206000209060080201600090919091909150600082015181600001556020820151816001019080519060200190611fdf9291906123c2565b506040820151816002019080519060200190611ffc9291906123c2565b5060608201518160030160006101000a81548173ffffffffffffffffffffffffffffffffffffffff021916908373ffffffffffffffffffffffffffffffffffffffff1602179055506080820151816004019080519060200190612060929190612448565b5060a08201518160050160006101000a81548160ff02191690831515021790555060c082015181600601908051906020019061209d929190612448565b5060e08201518160070160006101000a81548160ff0219169083151502179055505050806006600060016003805490506120d791906133fa565b815260200190815260200160002060008201518160000155602082015181600101908051906020019061210b9291906123c2565b5060408201518160020190805190602001906121289291906123c2565b5060608201518160030160006101000a81548173ffffffffffffffffffffffffffffffffffffffff021916908373ffffffffffffffffffffffffffffffffffffffff160217905550608082015181600401908051906020019061218c929190612448565b5060a08201518160050160006101000a81548160ff02191690831515021790555060c08201518160060190805190602001906121c9929190612448565b5060e08201518160070160006101000a81548160ff02191690831515021790555090505060016003805490506121ff91906133fa565b600760008473ffffffffffffffffffffffffffffffffffffffff1673ffffffffffffffffffffffffffffffffffffffff16815260200190815260200160002081905550600860008373ffffffffffffffffffffffffffffffffffffffff1673ffffffffffffffffffffffffffffffffffffffff168152602001908152602001600020600081548092919061229290612c6b565b9190505550600460008154809291906122aa90612c6b565b919050555060016003805490506122c191906133fa565b7fea590abf0bfe8d6eb00d5263bb7e5739c6821e7f645b0f54984badc27a682e138585856040516122f49392919061342e565b60405180910390a250505050565b604051806101000160405280600081526020016060815260200160608152602001600073ffffffffffffffffffffffffffffffffffffffff16815260200160608152602001600015158152602001606081526020016000151581525090565b50805461236d90612dbb565b6000825580601f1061237f575061239e565b601f01602090049060005260206000209081019061239d91906124d2565b5b50565b50805460008255906000526020600020908101906123bf91906124d2565b50565b8280546123ce90612dbb565b90600052602060002090601f0160209004810192826123f05760008555612437565b82601f1061240957805160ff1916838001178555612437565b82800160010185558215612437579182015b8281111561243657825182559160200191906001019061241b565b5b50905061244491906124d2565b5090565b8280548282559060005260206000209081019282156124c1579160200282015b828111156124c05782518260006101000a81548173ffffffffffffffffffffffffffffffffffffffff021916908373ffffffffffffffffffffffffffffffffffffffff16021790555091602001919060010190612468565b5b5090506124ce91906124d2565b5090565b5b808211156124eb5760008160009055506001016124d3565b5090565b6000604051905090565b600080fd5b600080fd5b600073ffffffffffffffffffffffffffffffffffffffff82169050919050565b600061252e82612503565b9050919050565b61253e81612523565b811461254957600080fd5b50565b60008135905061255b81612535565b92915050565b600060208284031215612577576125766124f9565b5b60006125858482850161254c565b91505092915050565b61259781612523565b82525050565b60006020820190506125b2600083018461258e565b92915050565b60008115159050919050565b6125cd816125b8565b81146125d857600080fd5b50565b6000813590506125ea816125c4565b92915050565b600060208284031215612606576126056124f9565b5b6000612614848285016125db565b91505092915050565b6000819050919050565b6126308161261d565b811461263b57600080fd5b50565b60008135905061264d81612627565b92915050565b600060208284031215612669576126686124f9565b5b60006126778482850161263e565b91505092915050565b6126898161261d565b82525050565b600081519050919050565b600082825260208201905092915050565b60005b838110156126c95780820151818401526020810190506126ae565b838111156126d8576000848401525b50505050565b6000601f19601f8301169050919050565b60006126fa8261268f565b612704818561269a565b93506127148185602086016126ab565b61271d816126de565b840191505092915050565b61273181612523565b82525050565b600081519050919050565b600082825260208201905092915050565b6000819050602082019050919050565b600061276f8383612728565b60208301905092915050565b6000602082019050919050565b600061279382612737565b61279d8185612742565b93506127a883612753565b8060005b838110156127d95781516127c08882612763565b97506127cb8361277b565b9250506001810190506127ac565b5085935050505092915050565b6127ef816125b8565b82525050565b60006101008301600083015161280e6000860182612680565b506020830151848203602086015261282682826126ef565b9150506040830151848203604086015261284082826126ef565b91505060608301516128556060860182612728565b506080830151848203608086015261286d8282612788565b91505060a083015161288260a08601826127e6565b5060c083015184820360c086015261289a8282612788565b91505060e08301516128af60e08601826127e6565b508091505092915050565b600060208201905081810360008301526128d481846127f5565b905092915050565b6128e58161261d565b82525050565b600060208201905061290060008301846128dc565b92915050565b600082825260208201905092915050565b60006129228261268f565b61292c8185612906565b935061293c8185602086016126ab565b612945816126de565b840191505092915050565b612959816125b8565b82525050565b600060c08201905061297460008301896128dc565b81810360208301526129868188612917565b9050818103604083015261299a8187612917565b90506129a9606083018661258e565b6129b66080830185612950565b6129c360a0830184612950565b979650505050505050565b600080fd5b600080fd5b7f4e487b7100000000000000000000000000000000000000000000000000000000600052604160045260246000fd5b612a10826126de565b810181811067ffffffffffffffff82111715612a2f57612a2e6129d8565b5b80604052505050565b6000612a426124ef565b9050612a4e8282612a07565b919050565b600067ffffffffffffffff821115612a6e57612a6d6129d8565b5b612a77826126de565b9050602081019050919050565b82818337600083830152505050565b6000612aa6612aa184612a53565b612a38565b905082815260208101848484011115612ac257612ac16129d3565b5b612acd848285612a84565b509392505050565b600082601f830112612aea57612ae96129ce565b5b8135612afa848260208601612a93565b91505092915050565b60008060408385031215612b1a57612b196124f9565b5b600083013567ffffffffffffffff811115612b3857612b376124fe565b5b612b4485828601612ad5565b925050602083013567ffffffffffffffff811115612b6557612b646124fe565b5b612b7185828601612ad5565b9150509250929050565b7f4e487b7100000000000000000000000000000000000000000000000000000000600052603260045260246000fd5b7f4d656d62657220616c72656164792062656c6f6e677320746f2061207061727460008201527f7900000000000000000000000000000000000000000000000000000000000000602082015250565b6000612c06602183612906565b9150612c1182612baa565b604082019050919050565b60006020820190508181036000830152612c3581612bf9565b9050919050565b7f4e487b7100000000000000000000000000000000000000000000000000000000600052601160045260246000fd5b6000612c768261261d565b91507fffffffffffffffffffffffffffffffffffffffffffffffffffffffffffffffff821415612ca957612ca8612c3c565b5b600182019050919050565b7f456c656374696f6e7320617265206e6f74207265616479207965740000000000600082015250565b6000612cea601b83612906565b9150612cf582612cb4565b602082019050919050565b60006020820190508181036000830152612d1981612cdd565b9050919050565b7f506172747920697320616c726561647920616374697665000000000000000000600082015250565b6000612d56601783612906565b9150612d6182612d20565b602082019050919050565b60006020820190508181036000830152612d8581612d49565b9050919050565b7f4e487b7100000000000000000000000000000000000000000000000000000000600052602260045260246000fd5b60006002820490506001821680612dd357607f821691505b60208210811415612de757612de6612d8c565b5b50919050565b60008190508160005260206000209050919050565b60008154612e0f81612dbb565b612e198186612906565b94506001821660008114612e345760018114612e4657612e79565b60ff1983168652602086019350612e79565b612e4f85612ded565b60005b83811015612e7157815481890152600182019150602081019050612e52565b808801955050505b50505092915050565b60006060820190508181036000830152612e9c8186612e02565b90508181036020830152612eb08185612e02565b9050612ebf604083018461258e565b949350505050565b7f456c656374696f6e732061726520616374697665000000000000000000000000600082015250565b6000612efd601483612906565b9150612f0882612ec7565b602082019050919050565b60006020820190508181036000830152612f2c81612ef0565b9050919050565b7f4f776e61626c653a2063616c6c6572206973206e6f7420746865206f776e6572600082015250565b6000612f69602083612906565b9150612f7482612f33565b602082019050919050565b60006020820190508181036000830152612f9881612f5c565b9050919050565b6000612faa8261261d565b9150612fb58361261d565b9250827fffffffffffffffffffffffffffffffffffffffffffffffffffffffffffffffff03821115612fea57612fe9612c3c565b5b828201905092915050565b7f506172747920616c726561647920686173207468697320737461747573000000600082015250565b600061302b601d83612906565b915061303682612ff5565b602082019050919050565b6000602082019050818103600083015261305a8161301e565b9050919050565b7f596f7520646f206e6f742062656c6f6e6720746f206120706172747900000000600082015250565b6000613097601c83612906565b91506130a282613061565b602082019050919050565b600060208201905081810360008301526130c68161308a565b9050919050565b7f4e487b7100000000000000000000000000000000000000000000000000000000600052603160045260246000fd5b7f506172747920646f6573206e6f74206578697374000000000000000000000000600082015250565b6000613132601483612906565b915061313d826130fc565b602082019050919050565b6000602082019050818103600083015261316181613125565b9050919050565b7f537570706f7274657220616c72656164792062656c6f6e677320746f2061207060008201527f6172747900000000000000000000000000000000000000000000000000000000602082015250565b60006131c4602483612906565b91506131cf82613168565b604082019050919050565b600060208201905081810360008301526131f3816131b7565b9050919050565b7f4f776e61626c653a206e6577206f776e657220697320746865207a65726f206160008201527f6464726573730000000000000000000000000000000000000000000000000000602082015250565b6000613256602683612906565b9150613261826131fa565b604082019050919050565b6000602082019050818103600083015261328581613249565b9050919050565b7f596f7520616c7265616479206f776e2061207061727479000000000000000000600082015250565b60006132c2601783612906565b91506132cd8261328c565b602082019050919050565b600060208201905081810360008301526132f1816132b5565b9050919050565b7f456c656374696f6e7320617265206e6f7420656e646564207965740000000000600082015250565b600061332e601b83612906565b9150613339826132f8565b602082019050919050565b6000602082019050818103600083015261335d81613321565b9050919050565b7f5061727479206973206e6f742061637469766500000000000000000000000000600082015250565b600061339a601383612906565b91506133a582613364565b602082019050919050565b600060208201905081810360008301526133c98161338d565b9050919050565b60006133db8261261d565b915060008214156133ef576133ee612c3c565b5b600182039050919050565b60006134058261261d565b91506134108361261d565b92508282101561342357613422612c3c565b5b828203905092915050565b600060608201905081810360008301526134488186612917565b9050818103602083015261345c8185612917565b905061346b604083018461258e565b94935050505056fea2646970667358221220219355691da764a3a4ef28568cbdd5dc0c81cf5a76ed4ae8dca1245de587719d64736f6c634300080b0033",
  "immutableReferences": {},
  "source": "// SPDX-License-Identifier: MIT\n\npragma solidity ^0.8.0;\n\nimport \"./PartiesFactory.sol\";\n\ncontract ElectionsFactory is PartiesFactory{\n\n    event VoteRegistered(Party indexed party, uint time);\n\n    uint internal constant COOLDOWN_TIME = 60 * 60 * 24 * 30; // 30 days\n    uint internal constant VOTING_TIME = 10; //60 * 60 * 24 * 7; // 7 days\n    uint internal readyTime = block.timestamp;\n    uint internal ending;\n    bool internal isActive = false;\n    uint[] internal candidates;\n    address[] internal voters;\n\n    mapping(uint => uint) internal partyVoteCount;\n    mapping(address => bool) internal userVoted;\n    mapping(address => uint) internal userVote;\n    mapping(uint => bool) internal candidatesExists;\n    uint internal votersCount;\n\n    constructor(){\n        // startNewElection();\n    }\n\n    modifier _isReady(){\n        require(block.timestamp >= readyTime, \"Elections are not ready yet\");\n        _;\n    }\n\n    modifier _isElectionInactive(){\n        require(isActive == false, \"Elections are active\");\n        _;\n    }\n\n    modifier _ended(){\n        require(block.timestamp >= ending, \"Elections are not ended yet\");\n        _;\n    }\n\n    modifier _isCandidate(uint partyId){\n        require(candidatesExists[partyId] == true, \"Party is not registered\");\n        _;\n    }\n\n    function _triggerCooldown() internal {\n        readyTime = block.timestamp + COOLDOWN_TIME;\n    }\n\n    function startNewElection() public _isReady _isElectionInactive onlyRegulator{\n        ending = block.timestamp + VOTING_TIME;\n        isActive = true;\n        for(uint i = 0; i < partiesRegisteredCount; i++){\n            if(idToParty[i].registered){\n                candidates.push(i);\n                candidatesExists[i] = true;\n            }\n        }\n    }\n\n    function _closeElection() internal onlyRegulator{\n        _resetPartyVoteCount();\n        _resetUsersVotes();\n        isActive = false;\n        votersCount = 0;\n        _triggerCooldown();\n    }\n\n    function _resetPartyVoteCount() private onlyRegulator {\n        for (uint i=0; i < partiesRegisteredCount; i++){\n            partyVoteCount[i] = 0;\n        }\n    }\n\n    function _resetUsersVotes() private onlyRegulator {\n        for (uint i=0; i < voters.length; i++){\n            userVoted[voters[i]] = false;\n        }\n    }\n\n    function registerPartyToElection() external onlyLeader _isReady payable{\n        uint partyId = addressToPartyID[_msgSender()];\n        require(idToParty[partyId].registered == false, \"Party is already active\");\n        idToParty[partyId].registered = true;\n        partiesRegisteredCount++;\n        emit PartyRegisteredForElection(idToParty[partyId].name, idToParty[partyId].symbol, idToParty[partyId].leader);\n    }\n\n    function retirePartyFromElection() external onlyLeader _ended{\n        uint partyId = addressToPartyID[_msgSender()];\n        require(idToParty[partyId].registered == true, \"Party is not active\");\n        idToParty[partyId].registered = false;\n        partiesRegisteredCount--;\n    }\n}",
  "sourcePath": "/Users/nolannbiron/Documents/PROJETS/solidity/democracy/contracts/ElectionsFactory.sol",
  "compiler": {
    "name": "solc",
    "version": "0.8.11+commit.d7f03943.Emscripten.clang"
  },
  "schemaVersion": "3.4.4",
  "updatedAt": "2022-01-03T11:29:29.757Z",
  "devdoc": {
    "kind": "dev",
    "methods": {
      "regulator()": {
        "details": "Returns the address of the current owner."
      },
      "renounceOwnership()": {
        "details": "Leaves the contract without owner. It will not be possible to call `onlyOwner` functions anymore. Can only be called by the current owner. NOTE: Renouncing ownership will leave the contract without an owner, thereby removing any functionality that is only available to the owner."
      },
      "transferOwnership(address)": {
        "details": "Transfers ownership of the contract to a new account (`newOwner`). Can only be called by the current owner."
      }
    },
    "version": 1
  },
  "userdoc": {
    "kind": "user",
    "methods": {},
    "version": 1
  }
}